{
  "contractName": "LibMeta",
  "abi": [
    {
      "inputs": [
        {
          "components": [
            {
              "internalType": "uint256",
              "name": "saleId",
              "type": "uint256"
            },
            {
              "internalType": "address",
              "name": "collectionAddress",
              "type": "address"
            },
            {
              "internalType": "uint256",
              "name": "tokenId",
              "type": "uint256"
            },
            {
              "internalType": "uint256",
              "name": "price",
              "type": "uint256"
            },
            {
              "internalType": "bool",
              "name": "directSale",
              "type": "bool"
            },
            {
              "internalType": "bool",
              "name": "bidSale",
              "type": "bool"
            },
            {
              "internalType": "bool",
              "name": "status",
              "type": "bool"
            },
            {
              "internalType": "uint256",
              "name": "bidStartTime",
              "type": "uint256"
            },
            {
              "internalType": "uint256",
              "name": "bidEndTime",
              "type": "uint256"
            },
            {
              "internalType": "address",
              "name": "mintedBy",
              "type": "address"
            },
            {
              "internalType": "address",
              "name": "currentOwner",
              "type": "address"
            }
          ],
          "internalType": "struct LibMeta.TokenMeta",
          "name": "token",
          "type": "tuple"
        },
        {
          "internalType": "address",
          "name": "_to",
          "type": "address"
        }
      ],
      "name": "transfer",
      "outputs": [],
      "stateMutability": "pure",
      "type": "function",
      "constant": true
    }
  ],
  "bytecode": "0x6103a4610053600b82828239805160001a607314610046577f4e487b7100000000000000000000000000000000000000000000000000000000600052600060045260246000fd5b30600052607381538281f3fe73000000000000000000000000000000000000000030146080604052600436106100355760003560e01c8063eecee9051461003a575b600080fd5b610054600480360381019061004f919061020d565b610056565b005b8082610140019073ffffffffffffffffffffffffffffffffffffffff16908173ffffffffffffffffffffffffffffffffffffffff168152505060008260c0019015159081151581525050600082608001901515908115158152505060008260a00190151590811515815250505050565b6000813590506100d581610329565b92915050565b6000813590506100ea81610340565b92915050565b6000610160828403121561010357600080fd5b61010e61016061024b565b9050600061011e848285016101f8565b6000830152506020610132848285016100c6565b6020830152506040610146848285016101f8565b604083015250606061015a848285016101f8565b606083015250608061016e848285016100db565b60808301525060a0610182848285016100db565b60a08301525060c0610196848285016100db565b60c08301525060e06101aa848285016101f8565b60e0830152506101006101bf848285016101f8565b610100830152506101206101d5848285016100c6565b610120830152506101406101eb848285016100c6565b6101408301525092915050565b60008135905061020781610357565b92915050565b600080610180838503121561022157600080fd5b600061022f858286016100f0565b925050610160610241858286016100c6565b9150509250929050565b6000610255610266565b905061026182826102b8565b919050565b6000604051905090565b600061027b8261028e565b9050919050565b60008115159050919050565b600073ffffffffffffffffffffffffffffffffffffffff82169050919050565b6000819050919050565b6102c182610318565b810181811067ffffffffffffffff821117156102e0576102df6102e9565b5b80604052505050565b7f4e487b7100000000000000000000000000000000000000000000000000000000600052604160045260246000fd5b6000601f19601f8301169050919050565b61033281610270565b811461033d57600080fd5b50565b61034981610282565b811461035457600080fd5b50565b610360816102ae565b811461036b57600080fd5b5056fea264697066735822122050326dd9dfd4d3d0f1f48b582f96a98345ad97f46aeda025c127357e3930ba7d64736f6c63430008030033",
  "immutableReferences": {},
  "source": "// SPDX-License-Identifier: MIT\r\npragma solidity ^0.8.0;\r\n\r\nlibrary LibMeta {\r\n\r\n    struct TokenMeta {\r\n        uint256 saleId;\r\n        address collectionAddress;\r\n        uint256 tokenId;\r\n        uint256 price;\r\n        bool directSale;\r\n        bool bidSale;\r\n        bool status;\r\n        uint256 bidStartTime;\r\n        uint256 bidEndTime;\r\n        address mintedBy;\r\n        address currentOwner;\r\n    }\r\n\r\n    function transfer(TokenMeta memory token, address _to ) public pure{\r\n        token.currentOwner = _to;\r\n        token.status = false;\r\n        token.directSale = false ;\r\n        token.bidSale = false ;\r\n    } \r\n}",
  "sourcePath": "D:\\Blockchain\\Liquidity\\new\\Modular-contract\\contracts\\Libraries\\LibMeta.sol",
  "compiler": {
    "name": "solc",
    "version": "0.8.3+commit.8d00100c.Emscripten.clang"
  },
  "schemaVersion": "3.4.3",
  "updatedAt": "2021-12-22T02:48:44.875Z",
  "networkType": "ethereum",
  "devdoc": {
    "kind": "dev",
    "methods": {},
    "version": 1
  },
  "userdoc": {
    "kind": "user",
    "methods": {},
    "version": 1
  }
}