{
  "contractName": "NFTBid",
  "abi": [
    {
      "anonymous": false,
      "inputs": [
        {
          "indexed": false,
          "internalType": "uint256",
          "name": "time",
          "type": "uint256"
        }
      ],
      "name": "AuctionStarted",
      "type": "event"
    },
    {
      "anonymous": false,
      "inputs": [
        {
          "indexed": false,
          "internalType": "uint256",
          "name": "price",
          "type": "uint256"
        }
      ],
      "name": "BidExecuted",
      "type": "event"
    },
    {
      "anonymous": false,
      "inputs": [
        {
          "components": [
            {
              "internalType": "uint256",
              "name": "saleId",
              "type": "uint256"
            },
            {
              "internalType": "address",
              "name": "sellerAddress",
              "type": "address"
            },
            {
              "internalType": "address",
              "name": "buyerAddress",
              "type": "address"
            },
            {
              "internalType": "uint256",
              "name": "price",
              "type": "uint256"
            },
            {
              "internalType": "bool",
              "name": "withdrawn",
              "type": "bool"
            }
          ],
          "indexed": false,
          "internalType": "struct LibBid.BidOrder",
          "name": "bid",
          "type": "tuple"
        }
      ],
      "name": "BidOrderReturn",
      "type": "event"
    },
    {
      "anonymous": false,
      "inputs": [
        {
          "indexed": true,
          "internalType": "address",
          "name": "previousOwner",
          "type": "address"
        },
        {
          "indexed": true,
          "internalType": "address",
          "name": "newOwner",
          "type": "address"
        }
      ],
      "name": "OwnershipTransferred",
      "type": "event"
    },
    {
      "anonymous": false,
      "inputs": [
        {
          "components": [
            {
              "internalType": "uint256",
              "name": "saleId",
              "type": "uint256"
            },
            {
              "internalType": "address",
              "name": "collectionAddress",
              "type": "address"
            },
            {
              "internalType": "uint256",
              "name": "tokenId",
              "type": "uint256"
            },
            {
              "internalType": "uint256",
              "name": "price",
              "type": "uint256"
            },
            {
              "internalType": "bool",
              "name": "directSale",
              "type": "bool"
            },
            {
              "internalType": "bool",
              "name": "bidSale",
              "type": "bool"
            },
            {
              "internalType": "bool",
              "name": "status",
              "type": "bool"
            },
            {
              "internalType": "uint256",
              "name": "bidStartTime",
              "type": "uint256"
            },
            {
              "internalType": "uint256",
              "name": "bidEndTime",
              "type": "uint256"
            },
            {
              "internalType": "address",
              "name": "mintedBy",
              "type": "address"
            },
            {
              "internalType": "address",
              "name": "currentOwner",
              "type": "address"
            }
          ],
          "indexed": false,
          "internalType": "struct LibMeta.TokenMeta",
          "name": "data",
          "type": "tuple"
        },
        {
          "indexed": false,
          "internalType": "uint256",
          "name": "id",
          "type": "uint256"
        }
      ],
      "name": "TokenMetaReturn",
      "type": "event"
    },
    {
      "inputs": [
        {
          "internalType": "uint256",
          "name": "",
          "type": "uint256"
        },
        {
          "internalType": "uint256",
          "name": "",
          "type": "uint256"
        }
      ],
      "name": "Bids",
      "outputs": [
        {
          "internalType": "uint256",
          "name": "saleId",
          "type": "uint256"
        },
        {
          "internalType": "address",
          "name": "sellerAddress",
          "type": "address"
        },
        {
          "internalType": "address",
          "name": "buyerAddress",
          "type": "address"
        },
        {
          "internalType": "uint256",
          "name": "price",
          "type": "uint256"
        },
        {
          "internalType": "bool",
          "name": "withdrawn",
          "type": "bool"
        }
      ],
      "stateMutability": "view",
      "type": "function"
    },
    {
      "inputs": [
        {
          "internalType": "uint256",
          "name": "_saleId",
          "type": "uint256"
        }
      ],
      "name": "BuyNFT",
      "outputs": [],
      "stateMutability": "payable",
      "type": "function"
    },
    {
      "inputs": [],
      "name": "_tokenIds",
      "outputs": [
        {
          "internalType": "uint256",
          "name": "",
          "type": "uint256"
        }
      ],
      "stateMutability": "view",
      "type": "function"
    },
    {
      "inputs": [
        {
          "internalType": "uint256",
          "name": "",
          "type": "uint256"
        }
      ],
      "name": "_tokenMeta",
      "outputs": [
        {
          "internalType": "uint256",
          "name": "saleId",
          "type": "uint256"
        },
        {
          "internalType": "address",
          "name": "collectionAddress",
          "type": "address"
        },
        {
          "internalType": "uint256",
          "name": "tokenId",
          "type": "uint256"
        },
        {
          "internalType": "uint256",
          "name": "price",
          "type": "uint256"
        },
        {
          "internalType": "bool",
          "name": "directSale",
          "type": "bool"
        },
        {
          "internalType": "bool",
          "name": "bidSale",
          "type": "bool"
        },
        {
          "internalType": "bool",
          "name": "status",
          "type": "bool"
        },
        {
          "internalType": "uint256",
          "name": "bidStartTime",
          "type": "uint256"
        },
        {
          "internalType": "uint256",
          "name": "bidEndTime",
          "type": "uint256"
        },
        {
          "internalType": "address",
          "name": "mintedBy",
          "type": "address"
        },
        {
          "internalType": "address",
          "name": "currentOwner",
          "type": "address"
        }
      ],
      "stateMutability": "view",
      "type": "function"
    },
    {
      "inputs": [
        {
          "internalType": "uint256",
          "name": "_saleId",
          "type": "uint256"
        }
      ],
      "name": "cancelSale",
      "outputs": [],
      "stateMutability": "nonpayable",
      "type": "function"
    },
    {
      "inputs": [],
      "name": "collectionIdTracker",
      "outputs": [
        {
          "internalType": "uint256",
          "name": "_value",
          "type": "uint256"
        }
      ],
      "stateMutability": "view",
      "type": "function"
    },
    {
      "inputs": [
        {
          "internalType": "address",
          "name": "",
          "type": "address"
        }
      ],
      "name": "collectionToOwner",
      "outputs": [
        {
          "internalType": "address",
          "name": "",
          "type": "address"
        }
      ],
      "stateMutability": "view",
      "type": "function"
    },
    {
      "inputs": [
        {
          "internalType": "uint256",
          "name": "",
          "type": "uint256"
        }
      ],
      "name": "collections",
      "outputs": [
        {
          "internalType": "uint256",
          "name": "id",
          "type": "uint256"
        },
        {
          "internalType": "string",
          "name": "name",
          "type": "string"
        },
        {
          "internalType": "string",
          "name": "symbol",
          "type": "string"
        },
        {
          "internalType": "address",
          "name": "contractAddress",
          "type": "address"
        },
        {
          "internalType": "address",
          "name": "owner",
          "type": "address"
        },
        {
          "internalType": "string",
          "name": "description",
          "type": "string"
        }
      ],
      "stateMutability": "view",
      "type": "function"
    },
    {
      "inputs": [],
      "name": "initialize",
      "outputs": [],
      "stateMutability": "nonpayable",
      "type": "function"
    },
    {
      "inputs": [
        {
          "internalType": "address",
          "name": "",
          "type": "address"
        },
        {
          "internalType": "address",
          "name": "",
          "type": "address"
        },
        {
          "internalType": "uint256",
          "name": "",
          "type": "uint256"
        },
        {
          "internalType": "bytes",
          "name": "",
          "type": "bytes"
        }
      ],
      "name": "onERC721Received",
      "outputs": [
        {
          "internalType": "bytes4",
          "name": "",
          "type": "bytes4"
        }
      ],
      "stateMutability": "nonpayable",
      "type": "function"
    },
    {
      "inputs": [],
      "name": "owner",
      "outputs": [
        {
          "internalType": "address",
          "name": "",
          "type": "address"
        }
      ],
      "stateMutability": "view",
      "type": "function"
    },
    {
      "inputs": [
        {
          "internalType": "address",
          "name": "",
          "type": "address"
        },
        {
          "internalType": "uint256",
          "name": "",
          "type": "uint256"
        }
      ],
      "name": "ownerToCollections",
      "outputs": [
        {
          "internalType": "uint256",
          "name": "",
          "type": "uint256"
        }
      ],
      "stateMutability": "view",
      "type": "function"
    },
    {
      "inputs": [],
      "name": "renounceOwnership",
      "outputs": [],
      "stateMutability": "nonpayable",
      "type": "function"
    },
    {
      "inputs": [
        {
          "internalType": "address",
          "name": "_collectionAddress",
          "type": "address"
        },
        {
          "internalType": "uint256",
          "name": "_tokenId",
          "type": "uint256"
        },
        {
          "internalType": "uint256",
          "name": "_price",
          "type": "uint256"
        }
      ],
      "name": "sellNFT",
      "outputs": [],
      "stateMutability": "nonpayable",
      "type": "function"
    },
    {
      "inputs": [
        {
          "internalType": "address",
          "name": "newOwner",
          "type": "address"
        }
      ],
      "name": "transferOwnership",
      "outputs": [],
      "stateMutability": "nonpayable",
      "type": "function"
    },
    {
      "inputs": [
        {
          "internalType": "uint256",
          "name": "_saleId",
          "type": "uint256"
        }
      ],
      "name": "Bid",
      "outputs": [],
      "stateMutability": "payable",
      "type": "function"
    },
    {
      "inputs": [
        {
          "internalType": "address",
          "name": "_collectionAddress",
          "type": "address"
        },
        {
          "internalType": "uint256",
          "name": "_tokenId",
          "type": "uint256"
        },
        {
          "internalType": "uint256",
          "name": "_price",
          "type": "uint256"
        },
        {
          "internalType": "uint256",
          "name": "_bidTime",
          "type": "uint256"
        }
      ],
      "name": "SellNFT_byBid",
      "outputs": [],
      "stateMutability": "nonpayable",
      "type": "function"
    },
    {
      "inputs": [
        {
          "internalType": "uint256",
          "name": "_saleId",
          "type": "uint256"
        },
        {
          "internalType": "uint256",
          "name": "_bidOrderID",
          "type": "uint256"
        }
      ],
      "name": "executeBidOrder",
      "outputs": [],
      "stateMutability": "nonpayable",
      "type": "function"
    },
    {
      "inputs": [
        {
          "internalType": "uint256",
          "name": "_saleId",
          "type": "uint256"
        },
        {
          "internalType": "uint256",
          "name": "_bidId",
          "type": "uint256"
        }
      ],
      "name": "withdrawBidMoney",
      "outputs": [],
      "stateMutability": "nonpayable",
      "type": "function"
    }
  ],
  "bytecode": "0x608060405234801561001057600080fd5b506143f9806100206000396000f3fe6080604052600436106101145760003560e01c80638da5cb5b116100a0578063bd94b00511610064578063bd94b00514610391578063f2fde38b146103ba578063f436682a146103e3578063f779a1931461040c578063fdbda0ec1461043557610114565b80638da5cb5b146102975780638e57ff16146102c2578063a37365e014610309578063a7f323da14610325578063aa46a4001461036657610114565b806348d79ed4116100e757806348d79ed4146101e7578063715018a61461022457806376cb66471461023b5780637a183e84146102645780638129fc1c1461028057610114565b8063150b7a02146101195780631e3b4ac8146101565780632bd87c4f1461018157806340045db6146101aa575b600080fd5b34801561012557600080fd5b50610140600480360381019061013b9190613425565b610477565b60405161014d9190613aa7565b60405180910390f35b34801561016257600080fd5b5061016b61048b565b6040516101789190613bd3565b60405180910390f35b34801561018d57600080fd5b506101a860048036038101906101a391906135f8565b610497565b005b3480156101b657600080fd5b506101d160048036038101906101cc91906133d3565b610783565b6040516101de9190613a55565b60405180910390f35b3480156101f357600080fd5b5061020e600480360381019061020991906134a0565b6107b6565b60405161021b9190613bd3565b60405180910390f35b34801561023057600080fd5b506102396107e7565b005b34801561024757600080fd5b50610262600480360381019061025d91906135f8565b61086f565b005b61027e600480360381019061027991906135cf565b6111c2565b005b34801561028c57600080fd5b50610295611493565b005b3480156102a357600080fd5b506102ac611584565b6040516102b99190613a55565b60405180910390f35b3480156102ce57600080fd5b506102e960048036038101906102e491906135cf565b6115ae565b6040516103009b9a99989796959493929190613c41565b60405180910390f35b610323600480360381019061031e91906135cf565b61168f565b005b34801561033157600080fd5b5061034c600480360381019061034791906135f8565b611def565b60405161035d959493929190613bee565b60405180910390f35b34801561037257600080fd5b5061037b611e8f565b6040516103889190613bd3565b60405180910390f35b34801561039d57600080fd5b506103b860048036038101906103b391906135cf565b611e95565b005b3480156103c657600080fd5b506103e160048036038101906103dc91906133d3565b611f69565b005b3480156103ef57600080fd5b5061040a6004803603810190610405919061352b565b612061565b005b34801561041857600080fd5b50610433600480360381019061042e91906134dc565b6124af565b005b34801561044157600080fd5b5061045c600480360381019061045791906135cf565b6128f3565b60405161046e96959493929190613cec565b60405180910390f35b600063150b7a0260e01b9050949350505050565b60d08060000154905081565b60c9600083815260200190815260200160002060080160009054906101000a900473ffffffffffffffffffffffffffffffffffffffff1673ffffffffffffffffffffffffffffffffffffffff163373ffffffffffffffffffffffffffffffffffffffff16141561050657600080fd5b3373ffffffffffffffffffffffffffffffffffffffff1660cb60008481526020019081526020016000208281548110610568577f4e487b7100000000000000000000000000000000000000000000000000000000600052603260045260246000fd5b906000526020600020906005020160020160009054906101000a900473ffffffffffffffffffffffffffffffffffffffff1673ffffffffffffffffffffffffffffffffffffffff16146105ba57600080fd5b6000151560cb60008481526020019081526020016000208281548110610609577f4e487b7100000000000000000000000000000000000000000000000000000000600052603260045260246000fd5b906000526020600020906005020160040160009054906101000a900460ff1615151461063457600080fd5b3373ffffffffffffffffffffffffffffffffffffffff166108fc60cb60008581526020019081526020016000208381548110610699577f4e487b7100000000000000000000000000000000000000000000000000000000600052603260045260246000fd5b9060005260206000209060050201600301549081150290604051600060405180830381858888f193505050501561074457600160cb60008481526020019081526020016000208281548110610717577f4e487b7100000000000000000000000000000000000000000000000000000000600052603260045260246000fd5b906000526020600020906005020160040160006101000a81548160ff02191690831515021790555061077f565b6040517f08c379a000000000000000000000000000000000000000000000000000000000815260040161077690613ae2565b60405180910390fd5b5050565b60cf6020528060005260406000206000915054906101000a900473ffffffffffffffffffffffffffffffffffffffff1681565b60ce60205281600052604060002081815481106107d257600080fd5b90600052602060002001600091509150505481565b6107ef612b07565b73ffffffffffffffffffffffffffffffffffffffff1661080d611584565b73ffffffffffffffffffffffffffffffffffffffff1614610863576040517f08c379a000000000000000000000000000000000000000000000000000000000815260040161085a90613b22565b60405180910390fd5b61086d6000612b0f565b565b600260655414156108b5576040517f08c379a00000000000000000000000000000000000000000000000000000000081526004016108ac90613b42565b60405180910390fd5b600260658190555060c9600083815260200190815260200160002060080160009054906101000a900473ffffffffffffffffffffffffffffffffffffffff1673ffffffffffffffffffffffffffffffffffffffff163373ffffffffffffffffffffffffffffffffffffffff161461092b57600080fd5b6000151560cb6000848152602001908152602001600020828154811061097a577f4e487b7100000000000000000000000000000000000000000000000000000000600052603260045260246000fd5b906000526020600020906005020160040160009054906101000a900460ff161515146109a557600080fd5b6001151560c9600084815260200190815260200160002060040160029054906101000a900460ff161515146109d957600080fd5b606060d260009054906101000a900473ffffffffffffffffffffffffffffffffffffffff1673ffffffffffffffffffffffffffffffffffffffff1660c9600085815260200190815260200160002060010160009054906101000a900473ffffffffffffffffffffffffffffffffffffffff1673ffffffffffffffffffffffffffffffffffffffff161415610b345760d260009054906101000a900473ffffffffffffffffffffffffffffffffffffffff1673ffffffffffffffffffffffffffffffffffffffff1663bb3bafd660c96000868152602001908152602001600020600201546040518263ffffffff1660e01b8152600401610ad89190613bd3565b60006040518083038186803b158015610af057600080fd5b505afa158015610b04573d6000803e3d6000fd5b505050506040513d6000823e3d601f19601f82011682018060405250810190610b2d919061358e565b9050610c11565b60c9600084815260200190815260200160002060010160009054906101000a900473ffffffffffffffffffffffffffffffffffffffff1673ffffffffffffffffffffffffffffffffffffffff1663bb3bafd660c96000868152602001908152602001600020600201546040518263ffffffff1660e01b8152600401610bb99190613bd3565b60006040518083038186803b158015610bd157600080fd5b505afa158015610be5573d6000803e3d6000fd5b505050506040513d6000823e3d601f19601f82011682018060405250810190610c0e919061358e565b90505b60c9600084815260200190815260200160002060010160009054906101000a900473ffffffffffffffffffffffffffffffffffffffff1673ffffffffffffffffffffffffffffffffffffffff166342842e0e3060cb60008781526020019081526020016000208581548110610caf577f4e487b7100000000000000000000000000000000000000000000000000000000600052603260045260246000fd5b906000526020600020906005020160020160009054906101000a900473ffffffffffffffffffffffffffffffffffffffff1660c96000888152602001908152602001600020600201546040518463ffffffff1660e01b8152600401610d1693929190613a70565b600060405180830381600087803b158015610d3057600080fd5b505af1158015610d44573d6000803e3d6000fd5b50505050600060cb60008581526020019081526020016000208381548110610d95577f4e487b7100000000000000000000000000000000000000000000000000000000600052603260045260246000fd5b906000526020600020906005020160030154905060005b8251811015610f3357600060cb60008781526020019081526020016000208581548110610e02577f4e487b7100000000000000000000000000000000000000000000000000000000600052603260045260246000fd5b906000526020600020906005020160030154612710858481518110610e50577f4e487b7100000000000000000000000000000000000000000000000000000000600052603260045260246000fd5b602002602001015160200151610e669190613e56565b6bffffffffffffffffffffffff16610e7e9190613e87565b90506000848381518110610ebb577f4e487b7100000000000000000000000000000000000000000000000000000000600052603260045260246000fd5b60200260200101516000015190508073ffffffffffffffffffffffffffffffffffffffff166108fc839081150290604051600060405180830381858888f19350505050158015610f0f573d6000803e3d6000fd5b508184610f1c9190613ee1565b935050508080610f2b90614111565b915050610dac565b503373ffffffffffffffffffffffffffffffffffffffff166108fc829081150290604051600060405180830381858888f19350505050158015610f7a573d6000803e3d6000fd5b5060cb60008581526020019081526020016000208381548110610fc6577f4e487b7100000000000000000000000000000000000000000000000000000000600052603260045260246000fd5b906000526020600020906005020160020160009054906101000a900473ffffffffffffffffffffffffffffffffffffffff1660c9600086815260200190815260200160002060080160006101000a81548173ffffffffffffffffffffffffffffffffffffffff021916908373ffffffffffffffffffffffffffffffffffffffff16021790555060cb60008581526020019081526020016000208381548110611097577f4e487b7100000000000000000000000000000000000000000000000000000000600052603260045260246000fd5b90600052602060002090600502016003015460c9600086815260200190815260200160002060030181905550600060c9600086815260200190815260200160002060040160016101000a81548160ff021916908315150217905550600060c9600086815260200190815260200160002060040160026101000a81548160ff0219169083151502179055507fc1a33fc6bb7dd982480f7d209db0c9ee0afb428b5f804be0268c066863032e4c60cb6000868152602001908152602001600020848154811061118d577f4e487b7100000000000000000000000000000000000000000000000000000000600052603260045260246000fd5b9060005260206000209060050201600301546040516111ac9190613bd3565b60405180910390a1505060016065819055505050565b6111ca612b07565b73ffffffffffffffffffffffffffffffffffffffff1660c9600083815260200190815260200160002060080160009054906101000a900473ffffffffffffffffffffffffffffffffffffffff1673ffffffffffffffffffffffffffffffffffffffff16141561123857600080fd5b6001151560c9600083815260200190815260200160002060040160029054906101000a900460ff1615151461126c57600080fd5b60c960008281526020019081526020016000206006015442111561128f57600080fd5b3460c9600083815260200190815260200160002060030154106112b157600080fd5b60006040518060a0016040528083815260200160c9600085815260200190815260200160002060080160009054906101000a900473ffffffffffffffffffffffffffffffffffffffff1673ffffffffffffffffffffffffffffffffffffffff1681526020013373ffffffffffffffffffffffffffffffffffffffff16815260200134815260200160001515815250905060cb60008381526020019081526020016000208190806001815401808255809150506001900390600052602060002090600502016000909190919091506000820151816000015560208201518160010160006101000a81548173ffffffffffffffffffffffffffffffffffffffff021916908373ffffffffffffffffffffffffffffffffffffffff16021790555060408201518160020160006101000a81548173ffffffffffffffffffffffffffffffffffffffff021916908373ffffffffffffffffffffffffffffffffffffffff1602179055506060820151816003015560808201518160040160006101000a81548160ff02191690831515021790555050503460c9600084815260200190815260200160002050507f3b3ffb780943e7b296c790f2c023897e46e6f296757b898adbf83e4c392b16fa816040516114879190613b62565b60405180910390a15050565b600060019054906101000a900460ff16806114b9575060008054906101000a900460ff16155b6114f8576040517f08c379a00000000000000000000000000000000000000000000000000000000081526004016114ef90613b02565b60405180910390fd5b60008060019054906101000a900460ff161590508015611548576001600060016101000a81548160ff02191690831515021790555060016000806101000a81548160ff0219169083151502179055505b611550612bd5565b611558612cbe565b611560612d9f565b80156115815760008060016101000a81548160ff0219169083151502179055505b50565b6000603360009054906101000a900473ffffffffffffffffffffffffffffffffffffffff16905090565b60c96020528060005260406000206000915090508060000154908060010160009054906101000a900473ffffffffffffffffffffffffffffffffffffffff16908060020154908060030154908060040160009054906101000a900460ff16908060040160019054906101000a900460ff16908060040160029054906101000a900460ff16908060050154908060060154908060070160009054906101000a900473ffffffffffffffffffffffffffffffffffffffff16908060080160009054906101000a900473ffffffffffffffffffffffffffffffffffffffff1690508b565b600260655414156116d5576040517f08c379a00000000000000000000000000000000000000000000000000000000081526004016116cc90613b42565b60405180910390fd5b6002606581905550600060c9600083815260200190815260200160002060405180610160016040529081600082015481526020016001820160009054906101000a900473ffffffffffffffffffffffffffffffffffffffff1673ffffffffffffffffffffffffffffffffffffffff1673ffffffffffffffffffffffffffffffffffffffff16815260200160028201548152602001600382015481526020016004820160009054906101000a900460ff161515151581526020016004820160019054906101000a900460ff161515151581526020016004820160029054906101000a900460ff1615151515815260200160058201548152602001600682015481526020016007820160009054906101000a900473ffffffffffffffffffffffffffffffffffffffff1673ffffffffffffffffffffffffffffffffffffffff1673ffffffffffffffffffffffffffffffffffffffff1681526020016008820160009054906101000a900473ffffffffffffffffffffffffffffffffffffffff1673ffffffffffffffffffffffffffffffffffffffff1673ffffffffffffffffffffffffffffffffffffffff16815250509050606060d260009054906101000a900473ffffffffffffffffffffffffffffffffffffffff1673ffffffffffffffffffffffffffffffffffffffff1660c9600085815260200190815260200160002060010160009054906101000a900473ffffffffffffffffffffffffffffffffffffffff1673ffffffffffffffffffffffffffffffffffffffff1614156119e05760d260009054906101000a900473ffffffffffffffffffffffffffffffffffffffff1673ffffffffffffffffffffffffffffffffffffffff1663bb3bafd660c96000868152602001908152602001600020600201546040518263ffffffff1660e01b81526004016119849190613bd3565b60006040518083038186803b15801561199c57600080fd5b505afa1580156119b0573d6000803e3d6000fd5b505050506040513d6000823e3d601f19601f820116820180604052508101906119d9919061358e565b9050611abd565b60c9600084815260200190815260200160002060010160009054906101000a900473ffffffffffffffffffffffffffffffffffffffff1673ffffffffffffffffffffffffffffffffffffffff1663bb3bafd660c96000868152602001908152602001600020600201546040518263ffffffff1660e01b8152600401611a659190613bd3565b60006040518083038186803b158015611a7d57600080fd5b505afa158015611a91573d6000803e3d6000fd5b505050506040513d6000823e3d601f19601f82011682018060405250810190611aba919061358e565b90505b600115158260c00151151514611ad257600080fd5b600073ffffffffffffffffffffffffffffffffffffffff163373ffffffffffffffffffffffffffffffffffffffff1614158015611b40575081610140015173ffffffffffffffffffffffffffffffffffffffff163373ffffffffffffffffffffffffffffffffffffffff1614155b611b4957600080fd5b600015158260a00151151514611b5e57600080fd5b8160600151341015611b6f57600080fd5b600034905060005b8251811015611ca257600034612710858481518110611bbf577f4e487b7100000000000000000000000000000000000000000000000000000000600052603260045260246000fd5b602002602001015160200151611bd59190613e56565b6bffffffffffffffffffffffff16611bed9190613e87565b90506000848381518110611c2a577f4e487b7100000000000000000000000000000000000000000000000000000000600052603260045260246000fd5b60200260200101516000015190508073ffffffffffffffffffffffffffffffffffffffff166108fc839081150290604051600060405180830381858888f19350505050158015611c7e573d6000803e3d6000fd5b508184611c8b9190613ee1565b935050508080611c9a90614111565b915050611b77565b5082610140015173ffffffffffffffffffffffffffffffffffffffff166108fc829081150290604051600060405180830381858888f19350505050158015611cee573d6000803e3d6000fd5b50826020015173ffffffffffffffffffffffffffffffffffffffff166342842e0e303386604001516040518463ffffffff1660e01b8152600401611d3493929190613a70565b600060405180830381600087803b158015611d4e57600080fd5b505af1158015611d62573d6000803e3d6000fd5b5050505073__LibMeta_______________________________63eecee90560c96000878152602001908152602001600020336040518363ffffffff1660e01b8152600401611db1929190613ba8565b60006040518083038186803b158015611dc957600080fd5b505af4158015611ddd573d6000803e3d6000fd5b50505050505050600160658190555050565b60cb6020528160005260406000208181548110611e0b57600080fd5b9060005260206000209060050201600091509150508060000154908060010160009054906101000a900473ffffffffffffffffffffffffffffffffffffffff16908060020160009054906101000a900473ffffffffffffffffffffffffffffffffffffffff16908060030154908060040160009054906101000a900460ff16905085565b60ca5481565b60c9600082815260200190815260200160002060080160009054906101000a900473ffffffffffffffffffffffffffffffffffffffff1673ffffffffffffffffffffffffffffffffffffffff163373ffffffffffffffffffffffffffffffffffffffff1614611f0357600080fd5b6001151560c9600083815260200190815260200160002060040160029054906101000a900460ff16151514611f3757600080fd5b600060c9600083815260200190815260200160002060040160026101000a81548160ff02191690831515021790555050565b611f71612b07565b73ffffffffffffffffffffffffffffffffffffffff16611f8f611584565b73ffffffffffffffffffffffffffffffffffffffff1614611fe5576040517f08c379a0000000000000000000000000000000000000000000000000000000008152600401611fdc90613b22565b60405180910390fd5b600073ffffffffffffffffffffffffffffffffffffffff168173ffffffffffffffffffffffffffffffffffffffff161415612055576040517f08c379a000000000000000000000000000000000000000000000000000000000815260040161204c90613ac2565b60405180910390fd5b61205e81612b0f565b50565b83838173ffffffffffffffffffffffffffffffffffffffff16636352211e826040518263ffffffff1660e01b815260040161209c9190613bd3565b60206040518083038186803b1580156120b457600080fd5b505afa1580156120c8573d6000803e3d6000fd5b505050506040513d601f19601f820116820180604052508101906120ec91906133fc565b73ffffffffffffffffffffffffffffffffffffffff163373ffffffffffffffffffffffffffffffffffffffff161461212357600080fd5b61212d60d1612e80565b8573ffffffffffffffffffffffffffffffffffffffff166342842e0e3330886040518463ffffffff1660e01b815260040161216a93929190613a70565b600060405180830381600087803b15801561218457600080fd5b505af1158015612198573d6000803e3d6000fd5b5050505060006040518061016001604052806121b460d1612e96565b81526020018873ffffffffffffffffffffffffffffffffffffffff168152602001878152602001868152602001600015158152602001600115158152602001600115158152602001428152602001854261220e9190613e00565b81526020018873ffffffffffffffffffffffffffffffffffffffff16636352211e896040518263ffffffff1660e01b815260040161224c9190613bd3565b60206040518083038186803b15801561226457600080fd5b505afa158015612278573d6000803e3d6000fd5b505050506040513d601f19601f8201168201806040525081019061229c91906133fc565b73ffffffffffffffffffffffffffffffffffffffff1681526020016122bf612b07565b73ffffffffffffffffffffffffffffffffffffffff1681525090508060c960006122e960d1612e96565b81526020019081526020016000206000820151816000015560208201518160010160006101000a81548173ffffffffffffffffffffffffffffffffffffffff021916908373ffffffffffffffffffffffffffffffffffffffff160217905550604082015181600201556060820151816003015560808201518160040160006101000a81548160ff02191690831515021790555060a08201518160040160016101000a81548160ff02191690831515021790555060c08201518160040160026101000a81548160ff02191690831515021790555060e0820151816005015561010082015181600601556101208201518160070160006101000a81548173ffffffffffffffffffffffffffffffffffffffff021916908373ffffffffffffffffffffffffffffffffffffffff1602179055506101408201518160080160006101000a81548173ffffffffffffffffffffffffffffffffffffffff021916908373ffffffffffffffffffffffffffffffffffffffff1602179055509050507fc7e90a8b24f51dc952add540ff08d8077bd45c54099dbed9b2bf2f83edd0c6dc8161249060d1612e96565b60405161249e929190613b7d565b60405180910390a150505050505050565b82828173ffffffffffffffffffffffffffffffffffffffff16636352211e826040518263ffffffff1660e01b81526004016124ea9190613bd3565b60206040518083038186803b15801561250257600080fd5b505afa158015612516573d6000803e3d6000fd5b505050506040513d601f19601f8201168201806040525081019061253a91906133fc565b73ffffffffffffffffffffffffffffffffffffffff163373ffffffffffffffffffffffffffffffffffffffff161461257157600080fd5b61257b60d1612e80565b8473ffffffffffffffffffffffffffffffffffffffff166342842e0e3330876040518463ffffffff1660e01b81526004016125b893929190613a70565b600060405180830381600087803b1580156125d257600080fd5b505af11580156125e6573d6000803e3d6000fd5b50505050600060405180610160016040528061260260d1612e96565b81526020018773ffffffffffffffffffffffffffffffffffffffff16815260200186815260200185815260200160011515815260200160001515815260200160011515815260200160008152602001600081526020018773ffffffffffffffffffffffffffffffffffffffff16636352211e886040518263ffffffff1660e01b81526004016126919190613bd3565b60206040518083038186803b1580156126a957600080fd5b505afa1580156126bd573d6000803e3d6000fd5b505050506040513d601f19601f820116820180604052508101906126e191906133fc565b73ffffffffffffffffffffffffffffffffffffffff168152602001612704612b07565b73ffffffffffffffffffffffffffffffffffffffff1681525090508060c9600061272e60d1612e96565b81526020019081526020016000206000820151816000015560208201518160010160006101000a81548173ffffffffffffffffffffffffffffffffffffffff021916908373ffffffffffffffffffffffffffffffffffffffff160217905550604082015181600201556060820151816003015560808201518160040160006101000a81548160ff02191690831515021790555060a08201518160040160016101000a81548160ff02191690831515021790555060c08201518160040160026101000a81548160ff02191690831515021790555060e0820151816005015561010082015181600601556101208201518160070160006101000a81548173ffffffffffffffffffffffffffffffffffffffff021916908373ffffffffffffffffffffffffffffffffffffffff1602179055506101408201518160080160006101000a81548173ffffffffffffffffffffffffffffffffffffffff021916908373ffffffffffffffffffffffffffffffffffffffff1602179055509050507fc7e90a8b24f51dc952add540ff08d8077bd45c54099dbed9b2bf2f83edd0c6dc816128d560d1612e96565b6040516128e3929190613b7d565b60405180910390a1505050505050565b60cd60205280600052604060002060009150905080600001549080600101805461291c9061402c565b80601f01602080910402602001604051908101604052809291908181526020018280546129489061402c565b80156129955780601f1061296a57610100808354040283529160200191612995565b820191906000526020600020905b81548152906001019060200180831161297857829003601f168201915b5050505050908060020180546129aa9061402c565b80601f01602080910402602001604051908101604052809291908181526020018280546129d69061402c565b8015612a235780601f106129f857610100808354040283529160200191612a23565b820191906000526020600020905b815481529060010190602001808311612a0657829003601f168201915b5050505050908060030160009054906101000a900473ffffffffffffffffffffffffffffffffffffffff16908060040160009054906101000a900473ffffffffffffffffffffffffffffffffffffffff1690806005018054612a849061402c565b80601f0160208091040260200160405190810160405280929190818152602001828054612ab09061402c565b8015612afd5780601f10612ad257610100808354040283529160200191612afd565b820191906000526020600020905b815481529060010190602001808311612ae057829003601f168201915b5050505050905086565b600033905090565b6000603360009054906101000a900473ffffffffffffffffffffffffffffffffffffffff16905081603360006101000a81548173ffffffffffffffffffffffffffffffffffffffff021916908373ffffffffffffffffffffffffffffffffffffffff1602179055508173ffffffffffffffffffffffffffffffffffffffff168173ffffffffffffffffffffffffffffffffffffffff167f8be0079c531659141344cd1fd0a4f28419497f9722a3daafe3b4186f6b6457e060405160405180910390a35050565b600060019054906101000a900460ff1680612bfb575060008054906101000a900460ff16155b612c3a576040517f08c379a0000000000000000000000000000000000000000000000000000000008152600401612c3190613b02565b60405180910390fd5b60008060019054906101000a900460ff161590508015612c8a576001600060016101000a81548160ff02191690831515021790555060016000806101000a81548160ff0219169083151502179055505b612c92612ea4565b612c9a612f7d565b8015612cbb5760008060016101000a81548160ff0219169083151502179055505b50565b600060019054906101000a900460ff1680612ce4575060008054906101000a900460ff16155b612d23576040517f08c379a0000000000000000000000000000000000000000000000000000000008152600401612d1a90613b02565b60405180910390fd5b60008060019054906101000a900460ff161590508015612d73576001600060016101000a81548160ff02191690831515021790555060016000806101000a81548160ff0219169083151502179055505b612d7b613066565b8015612d9c5760008060016101000a81548160ff0219169083151502179055505b50565b600060019054906101000a900460ff1680612dc5575060008054906101000a900460ff16155b612e04576040517f08c379a0000000000000000000000000000000000000000000000000000000008152600401612dfb90613b02565b60405180910390fd5b60008060019054906101000a900460ff161590508015612e54576001600060016101000a81548160ff02191690831515021790555060016000806101000a81548160ff0219169083151502179055505b612e5c613147565b8015612e7d5760008060016101000a81548160ff0219169083151502179055505b50565b6001816000016000828254019250508190555050565b600081600001549050919050565b600060019054906101000a900460ff1680612eca575060008054906101000a900460ff16155b612f09576040517f08c379a0000000000000000000000000000000000000000000000000000000008152600401612f0090613b02565b60405180910390fd5b60008060019054906101000a900460ff161590508015612f59576001600060016101000a81548160ff02191690831515021790555060016000806101000a81548160ff0219169083151502179055505b8015612f7a5760008060016101000a81548160ff0219169083151502179055505b50565b600060019054906101000a900460ff1680612fa3575060008054906101000a900460ff16155b612fe2576040517f08c379a0000000000000000000000000000000000000000000000000000000008152600401612fd990613b02565b60405180910390fd5b60008060019054906101000a900460ff161590508015613032576001600060016101000a81548160ff02191690831515021790555060016000806101000a81548160ff0219169083151502179055505b61304261303d612b07565b612b0f565b80156130635760008060016101000a81548160ff0219169083151502179055505b50565b600060019054906101000a900460ff168061308c575060008054906101000a900460ff16155b6130cb576040517f08c379a00000000000000000000000000000000000000000000000000000000081526004016130c290613b02565b60405180910390fd5b60008060019054906101000a900460ff16159050801561311b576001600060016101000a81548160ff02191690831515021790555060016000806101000a81548160ff0219169083151502179055505b600160658190555080156131445760008060016101000a81548160ff0219169083151502179055505b50565b600060019054906101000a900460ff168061316d575060008054906101000a900460ff16155b6131ac576040517f08c379a00000000000000000000000000000000000000000000000000000000081526004016131a390613b02565b60405180910390fd5b60008060019054906101000a900460ff1615905080156131fc576001600060016101000a81548160ff02191690831515021790555060016000806101000a81548160ff0219169083151502179055505b801561321d5760008060016101000a81548160ff0219169083151502179055505b50565b600061323361322e84613d87565b613d62565b9050808382526020820190508285604086028201111561325257600080fd5b60005b858110156132825781613268888261335d565b845260208401935060408301925050600181019050613255565b5050509392505050565b600061329f61329a84613db3565b613d62565b9050828152602081018484840111156132b757600080fd5b6132c2848285613fea565b509392505050565b6000813590506132d981614367565b92915050565b6000815190506132ee81614367565b92915050565b6000815190506133038161437e565b92915050565b600082601f83011261331a57600080fd5b815161332a848260208601613220565b91505092915050565b600082601f83011261334457600080fd5b813561335484826020860161328c565b91505092915050565b60006040828403121561336f57600080fd5b6133796040613d62565b90506000613389848285016132f4565b600083015250602061339d848285016133be565b60208301525092915050565b6000813590506133b881614395565b92915050565b6000815190506133cd816143ac565b92915050565b6000602082840312156133e557600080fd5b60006133f3848285016132ca565b91505092915050565b60006020828403121561340e57600080fd5b600061341c848285016132df565b91505092915050565b6000806000806080858703121561343b57600080fd5b6000613449878288016132ca565b945050602061345a878288016132ca565b935050604061346b878288016133a9565b925050606085013567ffffffffffffffff81111561348857600080fd5b61349487828801613333565b91505092959194509250565b600080604083850312156134b357600080fd5b60006134c1858286016132ca565b92505060206134d2858286016133a9565b9150509250929050565b6000806000606084860312156134f157600080fd5b60006134ff868287016132ca565b9350506020613510868287016133a9565b9250506040613521868287016133a9565b9150509250925092565b6000806000806080858703121561354157600080fd5b600061354f878288016132ca565b9450506020613560878288016133a9565b9350506040613571878288016133a9565b9250506060613582878288016133a9565b91505092959194509250565b6000602082840312156135a057600080fd5b600082015167ffffffffffffffff8111156135ba57600080fd5b6135c684828501613309565b91505092915050565b6000602082840312156135e157600080fd5b60006135ef848285016133a9565b91505092915050565b6000806040838503121561360b57600080fd5b6000613619858286016133a9565b925050602061362a858286016133a9565b9150509250929050565b61363d81613f4c565b82525050565b61364c81613f4c565b82525050565b61365b81613f4c565b82525050565b61366a81613f4c565b82525050565b61367981613f70565b82525050565b61368881613f70565b82525050565b61369781613f70565b82525050565b6136a681613f7c565b82525050565b60006136b782613de4565b6136c18185613def565b93506136d1818560208601613ff9565b6136da81614216565b840191505092915050565b60006136f2602683613def565b91506136fd8261424e565b604082019050919050565b6000613715600e83613def565b91506137208261429d565b602082019050919050565b6000613738602e83613def565b9150613743826142c6565b604082019050919050565b600061375b602083613def565b915061376682614315565b602082019050919050565b600061377e601f83613def565b91506137898261433e565b602082019050919050565b60a0820160008201516137aa6000850182613a28565b5060208201516137bd6020850182613634565b5060408201516137d06040850182613634565b5060608201516137e36060850182613a28565b5060808201516137f66080850182613670565b50505050565b610160820160008201516138136000850182613a28565b5060208201516138266020850182613634565b5060408201516138396040850182613a28565b50606082015161384c6060850182613a28565b50608082015161385f6080850182613670565b5060a082015161387260a0850182613670565b5060c082015161388560c0850182613670565b5060e082015161389860e0850182613a28565b506101008201516138ad610100850182613a28565b506101208201516138c2610120850182613634565b506101408201516138d7610140850182613634565b50505050565b610160820160008083015490506138f381614092565b6139006000860182613a46565b50600183015490506139118161405e565b61391e6020860182613661565b506002830154905061392f81614092565b61393c6040860182613a46565b506003830154905061394d81614092565b61395a6060860182613a46565b506004830154905061396b81614078565b613978608086018261368e565b50613982816140ac565b61398f60a086018261368e565b50613999816140c6565b6139a660c086018261368e565b50600583015490506139b781614092565b6139c460e0860182613a46565b50600683015490506139d581614092565b6139e3610100860182613a46565b50600783015490506139f48161405e565b613a02610120860182613661565b5060088301549050613a138161405e565b613a21610140860182613661565b5050505050565b613a3181613fc8565b82525050565b613a4081613fc8565b82525050565b613a4f81613fc8565b82525050565b6000602082019050613a6a6000830184613643565b92915050565b6000606082019050613a856000830186613643565b613a926020830185613643565b613a9f6040830184613a37565b949350505050565b6000602082019050613abc600083018461369d565b92915050565b60006020820190508181036000830152613adb816136e5565b9050919050565b60006020820190508181036000830152613afb81613708565b9050919050565b60006020820190508181036000830152613b1b8161372b565b9050919050565b60006020820190508181036000830152613b3b8161374e565b9050919050565b60006020820190508181036000830152613b5b81613771565b9050919050565b600060a082019050613b776000830184613794565b92915050565b600061018082019050613b9360008301856137fc565b613ba1610160830184613a37565b9392505050565b600061018082019050613bbe60008301856138dd565b613bcc610160830184613652565b9392505050565b6000602082019050613be86000830184613a37565b92915050565b600060a082019050613c036000830188613a37565b613c106020830187613643565b613c1d6040830186613643565b613c2a6060830185613a37565b613c37608083018461367f565b9695505050505050565b600061016082019050613c57600083018e613a37565b613c64602083018d613643565b613c71604083018c613a37565b613c7e606083018b613a37565b613c8b608083018a61367f565b613c9860a083018961367f565b613ca560c083018861367f565b613cb260e0830187613a37565b613cc0610100830186613a37565b613cce610120830185613643565b613cdc610140830184613643565b9c9b505050505050505050505050565b600060c082019050613d016000830189613a37565b8181036020830152613d1381886136ac565b90508181036040830152613d2781876136ac565b9050613d366060830186613643565b613d436080830185613643565b81810360a0830152613d5581846136ac565b9050979650505050505050565b6000613d6c613d7d565b9050613d7882826140e0565b919050565b6000604051905090565b600067ffffffffffffffff821115613da257613da16141e7565b5b602082029050602081019050919050565b600067ffffffffffffffff821115613dce57613dcd6141e7565b5b613dd782614216565b9050602081019050919050565b600081519050919050565b600082825260208201905092915050565b6000613e0b82613fc8565b9150613e1683613fc8565b9250827fffffffffffffffffffffffffffffffffffffffffffffffffffffffffffffffff03821115613e4b57613e4a61415a565b5b828201905092915050565b6000613e6182613fd2565b9150613e6c83613fd2565b925082613e7c57613e7b614189565b5b828204905092915050565b6000613e9282613fc8565b9150613e9d83613fc8565b9250817fffffffffffffffffffffffffffffffffffffffffffffffffffffffffffffffff0483118215151615613ed657613ed561415a565b5b828202905092915050565b6000613eec82613fc8565b9150613ef783613fc8565b925082821015613f0a57613f0961415a565b5b828203905092915050565b600073ffffffffffffffffffffffffffffffffffffffff82169050919050565b600060ff82169050919050565b6000819050919050565b6000613f5782613fa8565b9050919050565b6000613f6982613fa8565b9050919050565b60008115159050919050565b60007fffffffff0000000000000000000000000000000000000000000000000000000082169050919050565b600073ffffffffffffffffffffffffffffffffffffffff82169050919050565b6000819050919050565b60006bffffffffffffffffffffffff82169050919050565b82818337600083830152505050565b60005b83811015614017578082015181840152602081019050613ffc565b83811115614026576000848401525b50505050565b6000600282049050600182168061404457607f821691505b60208210811415614058576140576141b8565b5b50919050565b600061407161406c83614227565b613f15565b9050919050565b600061408b61408683614227565b613f35565b9050919050565b60006140a56140a083614227565b613f42565b9050919050565b60006140bf6140ba83614241565b613f35565b9050919050565b60006140d96140d483614234565b613f35565b9050919050565b6140e982614216565b810181811067ffffffffffffffff82111715614108576141076141e7565b5b80604052505050565b600061411c82613fc8565b91507fffffffffffffffffffffffffffffffffffffffffffffffffffffffffffffffff82141561414f5761414e61415a565b5b600182019050919050565b7f4e487b7100000000000000000000000000000000000000000000000000000000600052601160045260246000fd5b7f4e487b7100000000000000000000000000000000000000000000000000000000600052601260045260246000fd5b7f4e487b7100000000000000000000000000000000000000000000000000000000600052602260045260246000fd5b7f4e487b7100000000000000000000000000000000000000000000000000000000600052604160045260246000fd5b6000601f19601f8301169050919050565b60008160001c9050919050565b60008160101c9050919050565b60008160081c9050919050565b7f4f776e61626c653a206e6577206f776e657220697320746865207a65726f206160008201527f6464726573730000000000000000000000000000000000000000000000000000602082015250565b7f4e6f204d6f6e6579206c65667421000000000000000000000000000000000000600082015250565b7f496e697469616c697a61626c653a20636f6e747261637420697320616c72656160008201527f647920696e697469616c697a6564000000000000000000000000000000000000602082015250565b7f4f776e61626c653a2063616c6c6572206973206e6f7420746865206f776e6572600082015250565b7f5265656e7472616e637947756172643a207265656e7472616e742063616c6c00600082015250565b61437081613f4c565b811461437b57600080fd5b50565b61438781613f5e565b811461439257600080fd5b50565b61439e81613fc8565b81146143a957600080fd5b50565b6143b581613fd2565b81146143c057600080fd5b5056fea26469706673582212202fb06136d1a7d712c64ed18ce8d04165763482520a3e0b0aec6da574ab1b9c6264736f6c63430008030033",
  "immutableReferences": {},
  "source": "// SPDX-License-Identifier: MIT\r\npragma solidity ^0.8.0;\r\n\r\nimport \"../NFTFactoryContract.sol\";\r\nimport \"../Libraries/LibBid.sol\";\r\nimport \"../Libraries/LibMeta.sol\";\r\n\r\ncontract NFTBid is NFTFactoryContract {\r\n    event BidOrderReturn(LibBid.BidOrder bid);\r\n    event BidExecuted(uint256 price);\r\n    event AuctionStarted(uint time);\r\n\r\n    using Counters for Counters.Counter;\r\n\r\n    function Bid(uint256 _saleId) public payable {\r\n        require(_tokenMeta[_saleId].currentOwner != _msgSender());\r\n        require(_tokenMeta[_saleId].status == true);\r\n        require(block.timestamp <= _tokenMeta[_saleId].bidEndTime);\r\n        require(\r\n            _tokenMeta[_saleId].price < msg.value\r\n        );\r\n        //  require(_timeOfAuction[_saleId] >= block.timestamp,\"Auction Over\");\r\n\r\n        LibBid.BidOrder memory bid = LibBid.BidOrder(\r\n            _saleId,\r\n            _tokenMeta[_saleId].currentOwner,\r\n            msg.sender,\r\n            msg.value,\r\n            false\r\n        );\r\n        Bids[_saleId].push(bid);\r\n        _tokenMeta[_saleId].price == msg.value;\r\n\r\n        emit BidOrderReturn(bid);\r\n    }\r\n\r\n    function SellNFT_byBid(address _collectionAddress, uint256 _tokenId, uint256 _price, uint256 _bidTime)\r\n        public\r\n        onlyOwnerOfToken(_collectionAddress, _tokenId)\r\n    {\r\n\r\n         _tokenIdTracker.increment();\r\n\r\n        //needs approval on frontend\r\n        ERC721(_collectionAddress).safeTransferFrom(msg.sender, address(this), _tokenId);\r\n\r\n        LibMeta.TokenMeta memory meta = LibMeta.TokenMeta(\r\n            _tokenIdTracker.current(),\r\n            _collectionAddress,\r\n            _tokenId,\r\n            _price,\r\n            false,\r\n            true,\r\n            true,\r\n            block.timestamp,\r\n            block.timestamp + _bidTime,\r\n            ERC721(_collectionAddress).ownerOf(_tokenId),\r\n            _msgSender()\r\n        );\r\n\r\n         _tokenMeta[_tokenIdTracker.current()] = meta;\r\n\r\n        emit TokenMetaReturn(meta, _tokenIdTracker.current());\r\n      \r\n    }\r\n\r\n    function executeBidOrder(uint256 _saleId, uint256 _bidOrderID)\r\n        public\r\n        nonReentrant\r\n    {\r\n        require(msg.sender == _tokenMeta[_saleId].currentOwner);\r\n        require(Bids[_saleId][_bidOrderID].withdrawn == false);\r\n        require(_tokenMeta[_saleId].status == true);\r\n\r\n         LibShare.Share[] memory royalties;\r\n\r\n        if(_tokenMeta[_saleId].collectionAddress == PNDCAddress) {\r\n            royalties = PNDC_ERC721(PNDCAddress).getRoyalties(_tokenMeta[_saleId].tokenId);\r\n        }\r\n\r\n        else {\r\n            royalties = TokenERC721(_tokenMeta[_saleId].collectionAddress).getRoyalties(_tokenMeta[_saleId].tokenId);\r\n        }\r\n\r\n        ERC721(_tokenMeta[_saleId].collectionAddress).safeTransferFrom(\r\n            address(this),\r\n            Bids[_saleId][_bidOrderID].buyerAddress,\r\n            _tokenMeta[_saleId].tokenId\r\n        );\r\n\r\n         uint sum = Bids[_saleId][_bidOrderID].price;\r\n\r\n        for(uint256 i = 0; i < royalties.length; i ++) {\r\n            uint256 amount = (royalties[i].value / 10000) * Bids[_saleId][_bidOrderID].price;\r\n            address payable receiver = royalties[i].account;\r\n            receiver.transfer(amount);\r\n            sum = sum - amount;\r\n        }\r\n\r\n        payable(msg.sender).transfer(sum);\r\n\r\n        _tokenMeta[_saleId].currentOwner = Bids[_saleId][_bidOrderID]\r\n            .buyerAddress;\r\n        _tokenMeta[_saleId].price = Bids[_saleId][_bidOrderID].price;\r\n        _tokenMeta[_saleId].bidSale = false;\r\n        _tokenMeta[_saleId].status = false;\r\n\r\n        emit BidExecuted(Bids[_saleId][_bidOrderID].price);\r\n    }\r\n\r\n    function withdrawBidMoney(uint256 _saleId, uint256 _bidId) public {\r\n        require(\r\n            msg.sender != _tokenMeta[_saleId].currentOwner\r\n        );\r\n        // BidOrder[] memory bids = Bids[_tokenId];\r\n\r\n        require(\r\n            Bids[_saleId][_bidId].buyerAddress == msg.sender\r\n        );\r\n        require(Bids[_saleId][_bidId].withdrawn == false);\r\n        if (payable(msg.sender).send(Bids[_saleId][_bidId].price)) {\r\n            Bids[_saleId][_bidId].withdrawn = true;\r\n        } else {\r\n            revert(\"No Money left!\");\r\n        }\r\n    }\r\n}\r\n",
  "sourcePath": "D:\\Blockchain\\Liquidity\\new\\Modular-contract\\contracts\\Auction\\Bid.sol",
  "compiler": {
    "name": "solc",
    "version": "0.8.3+commit.8d00100c.Emscripten.clang"
  },
  "schemaVersion": "3.4.3",
  "updatedAt": "2021-12-22T02:48:44.792Z",
  "networkType": "ethereum",
  "devdoc": {
    "kind": "dev",
    "methods": {
      "onERC721Received(address,address,uint256,bytes)": {
        "details": "See {IERC721Receiver-onERC721Received}. Always returns `IERC721Receiver.onERC721Received.selector`."
      },
      "owner()": {
        "details": "Returns the address of the current owner."
      },
      "renounceOwnership()": {
        "details": "Leaves the contract without owner. It will not be possible to call `onlyOwner` functions anymore. Can only be called by the current owner. NOTE: Renouncing ownership will leave the contract without an owner, thereby removing any functionality that is only available to the owner."
      },
      "transferOwnership(address)": {
        "details": "Transfers ownership of the contract to a new account (`newOwner`). Can only be called by the current owner."
      }
    },
    "version": 1
  },
  "userdoc": {
    "kind": "user",
    "methods": {},
    "version": 1
  }
}