{
  "contractName": "NFTFactoryContract",
  "abi": [
    {
      "anonymous": false,
      "inputs": [
        {
          "indexed": true,
          "internalType": "address",
          "name": "previousOwner",
          "type": "address"
        },
        {
          "indexed": true,
          "internalType": "address",
          "name": "newOwner",
          "type": "address"
        }
      ],
      "name": "OwnershipTransferred",
      "type": "event"
    },
    {
      "anonymous": false,
      "inputs": [
        {
          "components": [
            {
              "internalType": "uint256",
              "name": "saleId",
              "type": "uint256"
            },
            {
              "internalType": "address",
              "name": "collectionAddress",
              "type": "address"
            },
            {
              "internalType": "uint256",
              "name": "tokenId",
              "type": "uint256"
            },
            {
              "internalType": "uint256",
              "name": "price",
              "type": "uint256"
            },
            {
              "internalType": "bool",
              "name": "directSale",
              "type": "bool"
            },
            {
              "internalType": "bool",
              "name": "bidSale",
              "type": "bool"
            },
            {
              "internalType": "bool",
              "name": "status",
              "type": "bool"
            },
            {
              "internalType": "uint256",
              "name": "bidStartTime",
              "type": "uint256"
            },
            {
              "internalType": "uint256",
              "name": "bidEndTime",
              "type": "uint256"
            },
            {
              "internalType": "address",
              "name": "mintedBy",
              "type": "address"
            },
            {
              "internalType": "address",
              "name": "currentOwner",
              "type": "address"
            }
          ],
          "indexed": false,
          "internalType": "struct LibMeta.TokenMeta",
          "name": "data",
          "type": "tuple"
        },
        {
          "indexed": false,
          "internalType": "uint256",
          "name": "id",
          "type": "uint256"
        }
      ],
      "name": "TokenMetaReturn",
      "type": "event"
    },
    {
      "inputs": [
        {
          "internalType": "uint256",
          "name": "",
          "type": "uint256"
        },
        {
          "internalType": "uint256",
          "name": "",
          "type": "uint256"
        }
      ],
      "name": "Bids",
      "outputs": [
        {
          "internalType": "uint256",
          "name": "saleId",
          "type": "uint256"
        },
        {
          "internalType": "address",
          "name": "sellerAddress",
          "type": "address"
        },
        {
          "internalType": "address",
          "name": "buyerAddress",
          "type": "address"
        },
        {
          "internalType": "uint256",
          "name": "price",
          "type": "uint256"
        },
        {
          "internalType": "bool",
          "name": "withdrawn",
          "type": "bool"
        }
      ],
      "stateMutability": "view",
      "type": "function"
    },
    {
      "inputs": [],
      "name": "_tokenIds",
      "outputs": [
        {
          "internalType": "uint256",
          "name": "",
          "type": "uint256"
        }
      ],
      "stateMutability": "view",
      "type": "function"
    },
    {
      "inputs": [
        {
          "internalType": "uint256",
          "name": "",
          "type": "uint256"
        }
      ],
      "name": "_tokenMeta",
      "outputs": [
        {
          "internalType": "uint256",
          "name": "saleId",
          "type": "uint256"
        },
        {
          "internalType": "address",
          "name": "collectionAddress",
          "type": "address"
        },
        {
          "internalType": "uint256",
          "name": "tokenId",
          "type": "uint256"
        },
        {
          "internalType": "uint256",
          "name": "price",
          "type": "uint256"
        },
        {
          "internalType": "bool",
          "name": "directSale",
          "type": "bool"
        },
        {
          "internalType": "bool",
          "name": "bidSale",
          "type": "bool"
        },
        {
          "internalType": "bool",
          "name": "status",
          "type": "bool"
        },
        {
          "internalType": "uint256",
          "name": "bidStartTime",
          "type": "uint256"
        },
        {
          "internalType": "uint256",
          "name": "bidEndTime",
          "type": "uint256"
        },
        {
          "internalType": "address",
          "name": "mintedBy",
          "type": "address"
        },
        {
          "internalType": "address",
          "name": "currentOwner",
          "type": "address"
        }
      ],
      "stateMutability": "view",
      "type": "function"
    },
    {
      "inputs": [],
      "name": "collectionIdTracker",
      "outputs": [
        {
          "internalType": "uint256",
          "name": "_value",
          "type": "uint256"
        }
      ],
      "stateMutability": "view",
      "type": "function"
    },
    {
      "inputs": [
        {
          "internalType": "address",
          "name": "",
          "type": "address"
        }
      ],
      "name": "collectionToOwner",
      "outputs": [
        {
          "internalType": "address",
          "name": "",
          "type": "address"
        }
      ],
      "stateMutability": "view",
      "type": "function"
    },
    {
      "inputs": [
        {
          "internalType": "uint256",
          "name": "",
          "type": "uint256"
        }
      ],
      "name": "collections",
      "outputs": [
        {
          "internalType": "uint256",
          "name": "id",
          "type": "uint256"
        },
        {
          "internalType": "string",
          "name": "name",
          "type": "string"
        },
        {
          "internalType": "string",
          "name": "symbol",
          "type": "string"
        },
        {
          "internalType": "address",
          "name": "contractAddress",
          "type": "address"
        },
        {
          "internalType": "address",
          "name": "owner",
          "type": "address"
        },
        {
          "internalType": "string",
          "name": "description",
          "type": "string"
        }
      ],
      "stateMutability": "view",
      "type": "function"
    },
    {
      "inputs": [
        {
          "internalType": "address",
          "name": "",
          "type": "address"
        },
        {
          "internalType": "address",
          "name": "",
          "type": "address"
        },
        {
          "internalType": "uint256",
          "name": "",
          "type": "uint256"
        },
        {
          "internalType": "bytes",
          "name": "",
          "type": "bytes"
        }
      ],
      "name": "onERC721Received",
      "outputs": [
        {
          "internalType": "bytes4",
          "name": "",
          "type": "bytes4"
        }
      ],
      "stateMutability": "nonpayable",
      "type": "function"
    },
    {
      "inputs": [],
      "name": "owner",
      "outputs": [
        {
          "internalType": "address",
          "name": "",
          "type": "address"
        }
      ],
      "stateMutability": "view",
      "type": "function"
    },
    {
      "inputs": [
        {
          "internalType": "address",
          "name": "",
          "type": "address"
        },
        {
          "internalType": "uint256",
          "name": "",
          "type": "uint256"
        }
      ],
      "name": "ownerToCollections",
      "outputs": [
        {
          "internalType": "uint256",
          "name": "",
          "type": "uint256"
        }
      ],
      "stateMutability": "view",
      "type": "function"
    },
    {
      "inputs": [],
      "name": "renounceOwnership",
      "outputs": [],
      "stateMutability": "nonpayable",
      "type": "function"
    },
    {
      "inputs": [
        {
          "internalType": "address",
          "name": "newOwner",
          "type": "address"
        }
      ],
      "name": "transferOwnership",
      "outputs": [],
      "stateMutability": "nonpayable",
      "type": "function"
    },
    {
      "inputs": [],
      "name": "initialize",
      "outputs": [],
      "stateMutability": "nonpayable",
      "type": "function"
    },
    {
      "inputs": [
        {
          "internalType": "uint256",
          "name": "_saleId",
          "type": "uint256"
        }
      ],
      "name": "BuyNFT",
      "outputs": [],
      "stateMutability": "payable",
      "type": "function"
    },
    {
      "inputs": [
        {
          "internalType": "address",
          "name": "_collectionAddress",
          "type": "address"
        },
        {
          "internalType": "uint256",
          "name": "_tokenId",
          "type": "uint256"
        },
        {
          "internalType": "uint256",
          "name": "_price",
          "type": "uint256"
        }
      ],
      "name": "sellNFT",
      "outputs": [],
      "stateMutability": "nonpayable",
      "type": "function"
    },
    {
      "inputs": [
        {
          "internalType": "uint256",
          "name": "_saleId",
          "type": "uint256"
        }
      ],
      "name": "cancelSale",
      "outputs": [],
      "stateMutability": "nonpayable",
      "type": "function"
    }
  ],
  "bytecode": "0x608060405234801561001057600080fd5b50612e30806100206000396000f3fe6080604052600436106100e85760003560e01c80638e57ff161161008a578063bd94b00511610059578063bd94b005146102f7578063f2fde38b14610320578063f779a19314610349578063fdbda0ec14610372576100e8565b80638e57ff1614610228578063a37365e01461026f578063a7f323da1461028b578063aa46a400146102cc576100e8565b806348d79ed4116100c657806348d79ed414610192578063715018a6146101cf5780638129fc1c146101e65780638da5cb5b146101fd576100e8565b8063150b7a02146100ed5780631e3b4ac81461012a57806340045db614610155575b600080fd5b3480156100f957600080fd5b50610114600480360381019061010f9190612004565b6103b4565b6040516101219190612598565b60405180910390f35b34801561013657600080fd5b5061013f6103c8565b60405161014c9190612689565b60405180910390f35b34801561016157600080fd5b5061017c60048036038101906101779190611fb2565b6103d4565b6040516101899190612546565b60405180910390f35b34801561019e57600080fd5b506101b960048036038101906101b4919061207f565b610407565b6040516101c69190612689565b60405180910390f35b3480156101db57600080fd5b506101e4610438565b005b3480156101f257600080fd5b506101fb6104c0565b005b34801561020957600080fd5b506102126105b1565b60405161021f9190612546565b60405180910390f35b34801561023457600080fd5b5061024f600480360381019061024a919061214b565b6105db565b6040516102669b9a999897969594939291906126f7565b60405180910390f35b6102896004803603810190610284919061214b565b6106bc565b005b34801561029757600080fd5b506102b260048036038101906102ad9190612174565b610e1c565b6040516102c39594939291906126a4565b60405180910390f35b3480156102d857600080fd5b506102e1610ebc565b6040516102ee9190612689565b60405180910390f35b34801561030357600080fd5b5061031e6004803603810190610319919061214b565b610ec2565b005b34801561032c57600080fd5b5061034760048036038101906103429190611fb2565b610f96565b005b34801561035557600080fd5b50610370600480360381019061036b91906120bb565b61108e565b005b34801561037e57600080fd5b506103996004803603810190610394919061214b565b6114d2565b6040516103ab969594939291906127a2565b60405180910390f35b600063150b7a0260e01b9050949350505050565b60d08060000154905081565b60cf6020528060005260406000206000915054906101000a900473ffffffffffffffffffffffffffffffffffffffff1681565b60ce602052816000526040600020818154811061042357600080fd5b90600052602060002001600091509150505481565b6104406116e6565b73ffffffffffffffffffffffffffffffffffffffff1661045e6105b1565b73ffffffffffffffffffffffffffffffffffffffff16146104b4576040517f08c379a00000000000000000000000000000000000000000000000000000000081526004016104ab906125f3565b60405180910390fd5b6104be60006116ee565b565b600060019054906101000a900460ff16806104e6575060008054906101000a900460ff16155b610525576040517f08c379a000000000000000000000000000000000000000000000000000000000815260040161051c906125d3565b60405180910390fd5b60008060019054906101000a900460ff161590508015610575576001600060016101000a81548160ff02191690831515021790555060016000806101000a81548160ff0219169083151502179055505b61057d6117b4565b61058561189d565b61058d61197e565b80156105ae5760008060016101000a81548160ff0219169083151502179055505b50565b6000603360009054906101000a900473ffffffffffffffffffffffffffffffffffffffff16905090565b60c96020528060005260406000206000915090508060000154908060010160009054906101000a900473ffffffffffffffffffffffffffffffffffffffff16908060020154908060030154908060040160009054906101000a900460ff16908060040160019054906101000a900460ff16908060040160029054906101000a900460ff16908060050154908060060154908060070160009054906101000a900473ffffffffffffffffffffffffffffffffffffffff16908060080160009054906101000a900473ffffffffffffffffffffffffffffffffffffffff1690508b565b60026065541415610702576040517f08c379a00000000000000000000000000000000000000000000000000000000081526004016106f990612613565b60405180910390fd5b6002606581905550600060c9600083815260200190815260200160002060405180610160016040529081600082015481526020016001820160009054906101000a900473ffffffffffffffffffffffffffffffffffffffff1673ffffffffffffffffffffffffffffffffffffffff1673ffffffffffffffffffffffffffffffffffffffff16815260200160028201548152602001600382015481526020016004820160009054906101000a900460ff161515151581526020016004820160019054906101000a900460ff161515151581526020016004820160029054906101000a900460ff1615151515815260200160058201548152602001600682015481526020016007820160009054906101000a900473ffffffffffffffffffffffffffffffffffffffff1673ffffffffffffffffffffffffffffffffffffffff1673ffffffffffffffffffffffffffffffffffffffff1681526020016008820160009054906101000a900473ffffffffffffffffffffffffffffffffffffffff1673ffffffffffffffffffffffffffffffffffffffff1673ffffffffffffffffffffffffffffffffffffffff16815250509050606060d260009054906101000a900473ffffffffffffffffffffffffffffffffffffffff1673ffffffffffffffffffffffffffffffffffffffff1660c9600085815260200190815260200160002060010160009054906101000a900473ffffffffffffffffffffffffffffffffffffffff1673ffffffffffffffffffffffffffffffffffffffff161415610a0d5760d260009054906101000a900473ffffffffffffffffffffffffffffffffffffffff1673ffffffffffffffffffffffffffffffffffffffff1663bb3bafd660c96000868152602001908152602001600020600201546040518263ffffffff1660e01b81526004016109b19190612689565b60006040518083038186803b1580156109c957600080fd5b505afa1580156109dd573d6000803e3d6000fd5b505050506040513d6000823e3d601f19601f82011682018060405250810190610a06919061210a565b9050610aea565b60c9600084815260200190815260200160002060010160009054906101000a900473ffffffffffffffffffffffffffffffffffffffff1673ffffffffffffffffffffffffffffffffffffffff1663bb3bafd660c96000868152602001908152602001600020600201546040518263ffffffff1660e01b8152600401610a929190612689565b60006040518083038186803b158015610aaa57600080fd5b505afa158015610abe573d6000803e3d6000fd5b505050506040513d6000823e3d601f19601f82011682018060405250810190610ae7919061210a565b90505b600115158260c00151151514610aff57600080fd5b600073ffffffffffffffffffffffffffffffffffffffff163373ffffffffffffffffffffffffffffffffffffffff1614158015610b6d575081610140015173ffffffffffffffffffffffffffffffffffffffff163373ffffffffffffffffffffffffffffffffffffffff1614155b610b7657600080fd5b600015158260a00151151514610b8b57600080fd5b8160600151341015610b9c57600080fd5b600034905060005b8251811015610ccf57600034612710858481518110610bec577f4e487b7100000000000000000000000000000000000000000000000000000000600052603260045260246000fd5b602002602001015160200151610c0291906128b6565b6bffffffffffffffffffffffff16610c1a91906128e7565b90506000848381518110610c57577f4e487b7100000000000000000000000000000000000000000000000000000000600052603260045260246000fd5b60200260200101516000015190508073ffffffffffffffffffffffffffffffffffffffff166108fc839081150290604051600060405180830381858888f19350505050158015610cab573d6000803e3d6000fd5b508184610cb89190612941565b935050508080610cc790612b71565b915050610ba4565b5082610140015173ffffffffffffffffffffffffffffffffffffffff166108fc829081150290604051600060405180830381858888f19350505050158015610d1b573d6000803e3d6000fd5b50826020015173ffffffffffffffffffffffffffffffffffffffff166342842e0e303386604001516040518463ffffffff1660e01b8152600401610d6193929190612561565b600060405180830381600087803b158015610d7b57600080fd5b505af1158015610d8f573d6000803e3d6000fd5b5050505073__LibMeta_______________________________63eecee90560c96000878152602001908152602001600020336040518363ffffffff1660e01b8152600401610dde92919061265e565b60006040518083038186803b158015610df657600080fd5b505af4158015610e0a573d6000803e3d6000fd5b50505050505050600160658190555050565b60cb6020528160005260406000208181548110610e3857600080fd5b9060005260206000209060050201600091509150508060000154908060010160009054906101000a900473ffffffffffffffffffffffffffffffffffffffff16908060020160009054906101000a900473ffffffffffffffffffffffffffffffffffffffff16908060030154908060040160009054906101000a900460ff16905085565b60ca5481565b60c9600082815260200190815260200160002060080160009054906101000a900473ffffffffffffffffffffffffffffffffffffffff1673ffffffffffffffffffffffffffffffffffffffff163373ffffffffffffffffffffffffffffffffffffffff1614610f3057600080fd5b6001151560c9600083815260200190815260200160002060040160029054906101000a900460ff16151514610f6457600080fd5b600060c9600083815260200190815260200160002060040160026101000a81548160ff02191690831515021790555050565b610f9e6116e6565b73ffffffffffffffffffffffffffffffffffffffff16610fbc6105b1565b73ffffffffffffffffffffffffffffffffffffffff1614611012576040517f08c379a0000000000000000000000000000000000000000000000000000000008152600401611009906125f3565b60405180910390fd5b600073ffffffffffffffffffffffffffffffffffffffff168173ffffffffffffffffffffffffffffffffffffffff161415611082576040517f08c379a0000000000000000000000000000000000000000000000000000000008152600401611079906125b3565b60405180910390fd5b61108b816116ee565b50565b82828173ffffffffffffffffffffffffffffffffffffffff16636352211e826040518263ffffffff1660e01b81526004016110c99190612689565b60206040518083038186803b1580156110e157600080fd5b505afa1580156110f5573d6000803e3d6000fd5b505050506040513d601f19601f820116820180604052508101906111199190611fdb565b73ffffffffffffffffffffffffffffffffffffffff163373ffffffffffffffffffffffffffffffffffffffff161461115057600080fd5b61115a60d1611a5f565b8473ffffffffffffffffffffffffffffffffffffffff166342842e0e3330876040518463ffffffff1660e01b815260040161119793929190612561565b600060405180830381600087803b1580156111b157600080fd5b505af11580156111c5573d6000803e3d6000fd5b5050505060006040518061016001604052806111e160d1611a75565b81526020018773ffffffffffffffffffffffffffffffffffffffff16815260200186815260200185815260200160011515815260200160001515815260200160011515815260200160008152602001600081526020018773ffffffffffffffffffffffffffffffffffffffff16636352211e886040518263ffffffff1660e01b81526004016112709190612689565b60206040518083038186803b15801561128857600080fd5b505afa15801561129c573d6000803e3d6000fd5b505050506040513d601f19601f820116820180604052508101906112c09190611fdb565b73ffffffffffffffffffffffffffffffffffffffff1681526020016112e36116e6565b73ffffffffffffffffffffffffffffffffffffffff1681525090508060c9600061130d60d1611a75565b81526020019081526020016000206000820151816000015560208201518160010160006101000a81548173ffffffffffffffffffffffffffffffffffffffff021916908373ffffffffffffffffffffffffffffffffffffffff160217905550604082015181600201556060820151816003015560808201518160040160006101000a81548160ff02191690831515021790555060a08201518160040160016101000a81548160ff02191690831515021790555060c08201518160040160026101000a81548160ff02191690831515021790555060e0820151816005015561010082015181600601556101208201518160070160006101000a81548173ffffffffffffffffffffffffffffffffffffffff021916908373ffffffffffffffffffffffffffffffffffffffff1602179055506101408201518160080160006101000a81548173ffffffffffffffffffffffffffffffffffffffff021916908373ffffffffffffffffffffffffffffffffffffffff1602179055509050507fc7e90a8b24f51dc952add540ff08d8077bd45c54099dbed9b2bf2f83edd0c6dc816114b460d1611a75565b6040516114c2929190612633565b60405180910390a1505050505050565b60cd6020528060005260406000206000915090508060000154908060010180546114fb90612a8c565b80601f016020809104026020016040519081016040528092919081815260200182805461152790612a8c565b80156115745780601f1061154957610100808354040283529160200191611574565b820191906000526020600020905b81548152906001019060200180831161155757829003601f168201915b50505050509080600201805461158990612a8c565b80601f01602080910402602001604051908101604052809291908181526020018280546115b590612a8c565b80156116025780601f106115d757610100808354040283529160200191611602565b820191906000526020600020905b8154815290600101906020018083116115e557829003601f168201915b5050505050908060030160009054906101000a900473ffffffffffffffffffffffffffffffffffffffff16908060040160009054906101000a900473ffffffffffffffffffffffffffffffffffffffff169080600501805461166390612a8c565b80601f016020809104026020016040519081016040528092919081815260200182805461168f90612a8c565b80156116dc5780601f106116b1576101008083540402835291602001916116dc565b820191906000526020600020905b8154815290600101906020018083116116bf57829003601f168201915b5050505050905086565b600033905090565b6000603360009054906101000a900473ffffffffffffffffffffffffffffffffffffffff16905081603360006101000a81548173ffffffffffffffffffffffffffffffffffffffff021916908373ffffffffffffffffffffffffffffffffffffffff1602179055508173ffffffffffffffffffffffffffffffffffffffff168173ffffffffffffffffffffffffffffffffffffffff167f8be0079c531659141344cd1fd0a4f28419497f9722a3daafe3b4186f6b6457e060405160405180910390a35050565b600060019054906101000a900460ff16806117da575060008054906101000a900460ff16155b611819576040517f08c379a0000000000000000000000000000000000000000000000000000000008152600401611810906125d3565b60405180910390fd5b60008060019054906101000a900460ff161590508015611869576001600060016101000a81548160ff02191690831515021790555060016000806101000a81548160ff0219169083151502179055505b611871611a83565b611879611b5c565b801561189a5760008060016101000a81548160ff0219169083151502179055505b50565b600060019054906101000a900460ff16806118c3575060008054906101000a900460ff16155b611902576040517f08c379a00000000000000000000000000000000000000000000000000000000081526004016118f9906125d3565b60405180910390fd5b60008060019054906101000a900460ff161590508015611952576001600060016101000a81548160ff02191690831515021790555060016000806101000a81548160ff0219169083151502179055505b61195a611c45565b801561197b5760008060016101000a81548160ff0219169083151502179055505b50565b600060019054906101000a900460ff16806119a4575060008054906101000a900460ff16155b6119e3576040517f08c379a00000000000000000000000000000000000000000000000000000000081526004016119da906125d3565b60405180910390fd5b60008060019054906101000a900460ff161590508015611a33576001600060016101000a81548160ff02191690831515021790555060016000806101000a81548160ff0219169083151502179055505b611a3b611d26565b8015611a5c5760008060016101000a81548160ff0219169083151502179055505b50565b6001816000016000828254019250508190555050565b600081600001549050919050565b600060019054906101000a900460ff1680611aa9575060008054906101000a900460ff16155b611ae8576040517f08c379a0000000000000000000000000000000000000000000000000000000008152600401611adf906125d3565b60405180910390fd5b60008060019054906101000a900460ff161590508015611b38576001600060016101000a81548160ff02191690831515021790555060016000806101000a81548160ff0219169083151502179055505b8015611b595760008060016101000a81548160ff0219169083151502179055505b50565b600060019054906101000a900460ff1680611b82575060008054906101000a900460ff16155b611bc1576040517f08c379a0000000000000000000000000000000000000000000000000000000008152600401611bb8906125d3565b60405180910390fd5b60008060019054906101000a900460ff161590508015611c11576001600060016101000a81548160ff02191690831515021790555060016000806101000a81548160ff0219169083151502179055505b611c21611c1c6116e6565b6116ee565b8015611c425760008060016101000a81548160ff0219169083151502179055505b50565b600060019054906101000a900460ff1680611c6b575060008054906101000a900460ff16155b611caa576040517f08c379a0000000000000000000000000000000000000000000000000000000008152600401611ca1906125d3565b60405180910390fd5b60008060019054906101000a900460ff161590508015611cfa576001600060016101000a81548160ff02191690831515021790555060016000806101000a81548160ff0219169083151502179055505b60016065819055508015611d235760008060016101000a81548160ff0219169083151502179055505b50565b600060019054906101000a900460ff1680611d4c575060008054906101000a900460ff16155b611d8b576040517f08c379a0000000000000000000000000000000000000000000000000000000008152600401611d82906125d3565b60405180910390fd5b60008060019054906101000a900460ff161590508015611ddb576001600060016101000a81548160ff02191690831515021790555060016000806101000a81548160ff0219169083151502179055505b8015611dfc5760008060016101000a81548160ff0219169083151502179055505b50565b6000611e12611e0d8461283d565b612818565b90508083825260208201905082856040860282011115611e3157600080fd5b60005b85811015611e615781611e478882611f3c565b845260208401935060408301925050600181019050611e34565b5050509392505050565b6000611e7e611e7984612869565b612818565b905082815260208101848484011115611e9657600080fd5b611ea1848285612a4a565b509392505050565b600081359050611eb881612d9e565b92915050565b600081519050611ecd81612d9e565b92915050565b600081519050611ee281612db5565b92915050565b600082601f830112611ef957600080fd5b8151611f09848260208601611dff565b91505092915050565b600082601f830112611f2357600080fd5b8135611f33848260208601611e6b565b91505092915050565b600060408284031215611f4e57600080fd5b611f586040612818565b90506000611f6884828501611ed3565b6000830152506020611f7c84828501611f9d565b60208301525092915050565b600081359050611f9781612dcc565b92915050565b600081519050611fac81612de3565b92915050565b600060208284031215611fc457600080fd5b6000611fd284828501611ea9565b91505092915050565b600060208284031215611fed57600080fd5b6000611ffb84828501611ebe565b91505092915050565b6000806000806080858703121561201a57600080fd5b600061202887828801611ea9565b945050602061203987828801611ea9565b935050604061204a87828801611f88565b925050606085013567ffffffffffffffff81111561206757600080fd5b61207387828801611f12565b91505092959194509250565b6000806040838503121561209257600080fd5b60006120a085828601611ea9565b92505060206120b185828601611f88565b9150509250929050565b6000806000606084860312156120d057600080fd5b60006120de86828701611ea9565b93505060206120ef86828701611f88565b925050604061210086828701611f88565b9150509250925092565b60006020828403121561211c57600080fd5b600082015167ffffffffffffffff81111561213657600080fd5b61214284828501611ee8565b91505092915050565b60006020828403121561215d57600080fd5b600061216b84828501611f88565b91505092915050565b6000806040838503121561218757600080fd5b600061219585828601611f88565b92505060206121a685828601611f88565b9150509250929050565b6121b9816129ac565b82525050565b6121c8816129ac565b82525050565b6121d7816129ac565b82525050565b6121e6816129ac565b82525050565b6121f5816129d0565b82525050565b612204816129d0565b82525050565b612213816129d0565b82525050565b612222816129dc565b82525050565b60006122338261289a565b61223d81856128a5565b935061224d818560208601612a59565b61225681612c76565b840191505092915050565b600061226e6026836128a5565b915061227982612cae565b604082019050919050565b6000612291602e836128a5565b915061229c82612cfd565b604082019050919050565b60006122b46020836128a5565b91506122bf82612d4c565b602082019050919050565b60006122d7601f836128a5565b91506122e282612d75565b602082019050919050565b610160820160008201516123046000850182612519565b50602082015161231760208501826121b0565b50604082015161232a6040850182612519565b50606082015161233d6060850182612519565b50608082015161235060808501826121ec565b5060a082015161236360a08501826121ec565b5060c082015161237660c08501826121ec565b5060e082015161238960e0850182612519565b5061010082015161239e610100850182612519565b506101208201516123b36101208501826121b0565b506101408201516123c86101408501826121b0565b50505050565b610160820160008083015490506123e481612af2565b6123f16000860182612537565b506001830154905061240281612abe565b61240f60208601826121dd565b506002830154905061242081612af2565b61242d6040860182612537565b506003830154905061243e81612af2565b61244b6060860182612537565b506004830154905061245c81612ad8565b612469608086018261220a565b5061247381612b0c565b61248060a086018261220a565b5061248a81612b26565b61249760c086018261220a565b50600583015490506124a881612af2565b6124b560e0860182612537565b50600683015490506124c681612af2565b6124d4610100860182612537565b50600783015490506124e581612abe565b6124f36101208601826121dd565b506008830154905061250481612abe565b6125126101408601826121dd565b5050505050565b61252281612a28565b82525050565b61253181612a28565b82525050565b61254081612a28565b82525050565b600060208201905061255b60008301846121bf565b92915050565b600060608201905061257660008301866121bf565b61258360208301856121bf565b6125906040830184612528565b949350505050565b60006020820190506125ad6000830184612219565b92915050565b600060208201905081810360008301526125cc81612261565b9050919050565b600060208201905081810360008301526125ec81612284565b9050919050565b6000602082019050818103600083015261260c816122a7565b9050919050565b6000602082019050818103600083015261262c816122ca565b9050919050565b60006101808201905061264960008301856122ed565b612657610160830184612528565b9392505050565b60006101808201905061267460008301856123ce565b6126826101608301846121ce565b9392505050565b600060208201905061269e6000830184612528565b92915050565b600060a0820190506126b96000830188612528565b6126c660208301876121bf565b6126d360408301866121bf565b6126e06060830185612528565b6126ed60808301846121fb565b9695505050505050565b60006101608201905061270d600083018e612528565b61271a602083018d6121bf565b612727604083018c612528565b612734606083018b612528565b612741608083018a6121fb565b61274e60a08301896121fb565b61275b60c08301886121fb565b61276860e0830187612528565b612776610100830186612528565b6127846101208301856121bf565b6127926101408301846121bf565b9c9b505050505050505050505050565b600060c0820190506127b76000830189612528565b81810360208301526127c98188612228565b905081810360408301526127dd8187612228565b90506127ec60608301866121bf565b6127f960808301856121bf565b81810360a083015261280b8184612228565b9050979650505050505050565b6000612822612833565b905061282e8282612b40565b919050565b6000604051905090565b600067ffffffffffffffff82111561285857612857612c47565b5b602082029050602081019050919050565b600067ffffffffffffffff82111561288457612883612c47565b5b61288d82612c76565b9050602081019050919050565b600081519050919050565b600082825260208201905092915050565b60006128c182612a32565b91506128cc83612a32565b9250826128dc576128db612be9565b5b828204905092915050565b60006128f282612a28565b91506128fd83612a28565b9250817fffffffffffffffffffffffffffffffffffffffffffffffffffffffffffffffff048311821515161561293657612935612bba565b5b828202905092915050565b600061294c82612a28565b915061295783612a28565b92508282101561296a57612969612bba565b5b828203905092915050565b600073ffffffffffffffffffffffffffffffffffffffff82169050919050565b600060ff82169050919050565b6000819050919050565b60006129b782612a08565b9050919050565b60006129c982612a08565b9050919050565b60008115159050919050565b60007fffffffff0000000000000000000000000000000000000000000000000000000082169050919050565b600073ffffffffffffffffffffffffffffffffffffffff82169050919050565b6000819050919050565b60006bffffffffffffffffffffffff82169050919050565b82818337600083830152505050565b60005b83811015612a77578082015181840152602081019050612a5c565b83811115612a86576000848401525b50505050565b60006002820490506001821680612aa457607f821691505b60208210811415612ab857612ab7612c18565b5b50919050565b6000612ad1612acc83612c87565b612975565b9050919050565b6000612aeb612ae683612c87565b612995565b9050919050565b6000612b05612b0083612c87565b6129a2565b9050919050565b6000612b1f612b1a83612ca1565b612995565b9050919050565b6000612b39612b3483612c94565b612995565b9050919050565b612b4982612c76565b810181811067ffffffffffffffff82111715612b6857612b67612c47565b5b80604052505050565b6000612b7c82612a28565b91507fffffffffffffffffffffffffffffffffffffffffffffffffffffffffffffffff821415612baf57612bae612bba565b5b600182019050919050565b7f4e487b7100000000000000000000000000000000000000000000000000000000600052601160045260246000fd5b7f4e487b7100000000000000000000000000000000000000000000000000000000600052601260045260246000fd5b7f4e487b7100000000000000000000000000000000000000000000000000000000600052602260045260246000fd5b7f4e487b7100000000000000000000000000000000000000000000000000000000600052604160045260246000fd5b6000601f19601f8301169050919050565b60008160001c9050919050565b60008160101c9050919050565b60008160081c9050919050565b7f4f776e61626c653a206e6577206f776e657220697320746865207a65726f206160008201527f6464726573730000000000000000000000000000000000000000000000000000602082015250565b7f496e697469616c697a61626c653a20636f6e747261637420697320616c72656160008201527f647920696e697469616c697a6564000000000000000000000000000000000000602082015250565b7f4f776e61626c653a2063616c6c6572206973206e6f7420746865206f776e6572600082015250565b7f5265656e7472616e637947756172643a207265656e7472616e742063616c6c00600082015250565b612da7816129ac565b8114612db257600080fd5b50565b612dbe816129be565b8114612dc957600080fd5b50565b612dd581612a28565b8114612de057600080fd5b50565b612dec81612a32565b8114612df757600080fd5b5056fea26469706673582212208f384ee39bbd58f55e6680820c9a9bc44916c3fbe2244776eb8009798573e74364736f6c63430008030033",
  "immutableReferences": {},
  "source": "// SPDX-License-Identifier: MIT\r\npragma solidity ^0.8.0;\r\n\r\nimport \"./NFTStorage.sol\";\r\nimport \"./Libraries/LibShare.sol\";\r\nimport \"@openzeppelin/contracts-upgradeable/access/OwnableUpgradeable.sol\";\r\nimport \"@openzeppelin/contracts-upgradeable/security/ReentrancyGuardUpgradeable.sol\";\r\nimport \"@openzeppelin/contracts-upgradeable/token/ERC721/utils/ERC721HolderUpgradeable.sol\";\r\nimport \"@openzeppelin/contracts-upgradeable/proxy/utils/UUPSUpgradeable.sol\";\r\nimport \"./TokenERC721.sol\";\r\nimport \"./PNDC_ERC721.sol\";\r\nimport \"@openzeppelin/contracts/utils/Counters.sol\";\r\n\r\ncontract NFTFactoryContract is\r\n    OwnableUpgradeable,\r\n    ReentrancyGuardUpgradeable,\r\n    ERC721HolderUpgradeable,\r\n    NFTV1Storage\r\n{\r\n    using Counters for Counters.Counter;\r\n\r\n    function initialize() initializer public {\r\n        OwnableUpgradeable.__Ownable_init();\r\n        ReentrancyGuardUpgradeable.__ReentrancyGuard_init();\r\n        ERC721HolderUpgradeable.__ERC721Holder_init();\r\n    }\r\n\r\n    event TokenMetaReturn(LibMeta.TokenMeta data, uint256 id);\r\n\r\n    modifier onlyOwnerOfToken(address _collectionAddress, uint256 _tokenId) {\r\n        require(msg.sender == ERC721(_collectionAddress).ownerOf(_tokenId));\r\n        _;\r\n    }\r\n\r\n\r\n// Change in BuyNFT LibMeta Function\r\n\r\n    function BuyNFT(uint256 _saleId) public payable nonReentrant {\r\n        LibMeta.TokenMeta memory meta = _tokenMeta[_saleId];\r\n        \r\n        LibShare.Share[] memory royalties;\r\n\r\n        if(_tokenMeta[_saleId].collectionAddress == PNDCAddress) {\r\n            royalties = PNDC_ERC721(PNDCAddress).getRoyalties(_tokenMeta[_saleId].tokenId);\r\n        }\r\n\r\n        else {\r\n            royalties = TokenERC721(_tokenMeta[_saleId].collectionAddress).getRoyalties(_tokenMeta[_saleId].tokenId);\r\n        }\r\n\r\n        require(meta.status == true);\r\n        require(msg.sender != address(0) && msg.sender != meta.currentOwner);\r\n        require(meta.bidSale == false);\r\n        require(msg.value >= meta.price);\r\n\r\n        uint sum = msg.value;\r\n\r\n        for(uint256 i = 0; i < royalties.length; i ++) {\r\n            uint256 amount = (royalties[i].value / 10000) * msg.value;\r\n            address payable receiver = royalties[i].account;\r\n            receiver.transfer(amount);\r\n            sum = sum - amount;\r\n        }\r\n\r\n        payable(meta.currentOwner).transfer(sum);\r\n        ERC721(meta.collectionAddress).safeTransferFrom(address(this), msg.sender, meta.tokenId);\r\n        LibMeta.transfer(_tokenMeta[_saleId],msg.sender);\r\n\r\n    }\r\n\r\n    function sellNFT(address _collectionAddress, uint256 _tokenId, uint256 _price) \r\n    public \r\n    onlyOwnerOfToken(_collectionAddress, _tokenId)\r\n    {\r\n        _tokenIdTracker.increment();\r\n\r\n        //needs approval on frontend\r\n        ERC721(_collectionAddress).safeTransferFrom(msg.sender, address(this), _tokenId);\r\n\r\n        LibMeta.TokenMeta memory meta = LibMeta.TokenMeta(\r\n            _tokenIdTracker.current(),\r\n            _collectionAddress,\r\n            _tokenId,\r\n            _price,\r\n            true,\r\n            false,\r\n            true,\r\n            0,\r\n            0,\r\n            ERC721(_collectionAddress).ownerOf(_tokenId),\r\n            _msgSender()\r\n        );\r\n\r\n         _tokenMeta[_tokenIdTracker.current()] = meta;\r\n\r\n        emit TokenMetaReturn(meta, _tokenIdTracker.current());\r\n\r\n    }\r\n\r\n    function cancelSale(uint256 _saleId) public {\r\n\r\n        require(msg.sender == _tokenMeta[_saleId].currentOwner);\r\n        require(_tokenMeta[_saleId].status == true);\r\n\r\n        _tokenMeta[_saleId].status = false;\r\n\r\n    }\r\n\r\n}\r\n",
  "sourcePath": "D:\\Blockchain\\Liquidity\\new\\Modular-contract\\contracts\\NFTFactoryContract.sol",
  "compiler": {
    "name": "solc",
    "version": "0.8.3+commit.8d00100c.Emscripten.clang"
  },
  "schemaVersion": "3.4.3",
  "updatedAt": "2021-12-22T02:48:44.910Z",
  "networkType": "ethereum",
  "devdoc": {
    "kind": "dev",
    "methods": {
      "onERC721Received(address,address,uint256,bytes)": {
        "details": "See {IERC721Receiver-onERC721Received}. Always returns `IERC721Receiver.onERC721Received.selector`."
      },
      "owner()": {
        "details": "Returns the address of the current owner."
      },
      "renounceOwnership()": {
        "details": "Leaves the contract without owner. It will not be possible to call `onlyOwner` functions anymore. Can only be called by the current owner. NOTE: Renouncing ownership will leave the contract without an owner, thereby removing any functionality that is only available to the owner."
      },
      "transferOwnership(address)": {
        "details": "Transfers ownership of the contract to a new account (`newOwner`). Can only be called by the current owner."
      }
    },
    "version": 1
  },
  "userdoc": {
    "kind": "user",
    "methods": {},
    "version": 1
  }
}