{
  "contractName": "NFTV1Storage",
  "abi": [
    {
      "inputs": [
        {
          "internalType": "uint256",
          "name": "",
          "type": "uint256"
        },
        {
          "internalType": "uint256",
          "name": "",
          "type": "uint256"
        }
      ],
      "name": "Bids",
      "outputs": [
        {
          "internalType": "uint256",
          "name": "saleId",
          "type": "uint256"
        },
        {
          "internalType": "address",
          "name": "sellerAddress",
          "type": "address"
        },
        {
          "internalType": "address",
          "name": "buyerAddress",
          "type": "address"
        },
        {
          "internalType": "uint256",
          "name": "price",
          "type": "uint256"
        },
        {
          "internalType": "bool",
          "name": "withdrawn",
          "type": "bool"
        }
      ],
      "stateMutability": "view",
      "type": "function"
    },
    {
      "inputs": [],
      "name": "_tokenIds",
      "outputs": [
        {
          "internalType": "uint256",
          "name": "",
          "type": "uint256"
        }
      ],
      "stateMutability": "view",
      "type": "function"
    },
    {
      "inputs": [
        {
          "internalType": "uint256",
          "name": "",
          "type": "uint256"
        }
      ],
      "name": "_tokenMeta",
      "outputs": [
        {
          "internalType": "uint256",
          "name": "saleId",
          "type": "uint256"
        },
        {
          "internalType": "address",
          "name": "collectionAddress",
          "type": "address"
        },
        {
          "internalType": "uint256",
          "name": "tokenId",
          "type": "uint256"
        },
        {
          "internalType": "uint256",
          "name": "price",
          "type": "uint256"
        },
        {
          "internalType": "bool",
          "name": "directSale",
          "type": "bool"
        },
        {
          "internalType": "bool",
          "name": "bidSale",
          "type": "bool"
        },
        {
          "internalType": "bool",
          "name": "status",
          "type": "bool"
        },
        {
          "internalType": "uint256",
          "name": "bidStartTime",
          "type": "uint256"
        },
        {
          "internalType": "uint256",
          "name": "bidEndTime",
          "type": "uint256"
        },
        {
          "internalType": "address",
          "name": "mintedBy",
          "type": "address"
        },
        {
          "internalType": "address",
          "name": "currentOwner",
          "type": "address"
        }
      ],
      "stateMutability": "view",
      "type": "function"
    },
    {
      "inputs": [],
      "name": "collectionIdTracker",
      "outputs": [
        {
          "internalType": "uint256",
          "name": "_value",
          "type": "uint256"
        }
      ],
      "stateMutability": "view",
      "type": "function"
    },
    {
      "inputs": [
        {
          "internalType": "address",
          "name": "",
          "type": "address"
        }
      ],
      "name": "collectionToOwner",
      "outputs": [
        {
          "internalType": "address",
          "name": "",
          "type": "address"
        }
      ],
      "stateMutability": "view",
      "type": "function"
    },
    {
      "inputs": [
        {
          "internalType": "uint256",
          "name": "",
          "type": "uint256"
        }
      ],
      "name": "collections",
      "outputs": [
        {
          "internalType": "uint256",
          "name": "id",
          "type": "uint256"
        },
        {
          "internalType": "string",
          "name": "name",
          "type": "string"
        },
        {
          "internalType": "string",
          "name": "symbol",
          "type": "string"
        },
        {
          "internalType": "address",
          "name": "contractAddress",
          "type": "address"
        },
        {
          "internalType": "address",
          "name": "owner",
          "type": "address"
        },
        {
          "internalType": "string",
          "name": "description",
          "type": "string"
        }
      ],
      "stateMutability": "view",
      "type": "function"
    },
    {
      "inputs": [
        {
          "internalType": "address",
          "name": "",
          "type": "address"
        },
        {
          "internalType": "uint256",
          "name": "",
          "type": "uint256"
        }
      ],
      "name": "ownerToCollections",
      "outputs": [
        {
          "internalType": "uint256",
          "name": "",
          "type": "uint256"
        }
      ],
      "stateMutability": "view",
      "type": "function"
    }
  ],
  "bytecode": "0x608060405234801561001057600080fd5b50610a3d806100206000396000f3fe608060405234801561001057600080fd5b506004361061007d5760003560e01c80638e57ff161161005b5780638e57ff1614610100578063a7f323da1461013a578063aa46a4001461016e578063fdbda0ec1461018c5761007d565b80631e3b4ac81461008257806340045db6146100a057806348d79ed4146100d0575b600080fd5b61008a6101c1565b6040516100979190610741565b60405180910390f35b6100ba60048036038101906100b591906105f6565b6101cd565b6040516100c79190610726565b60405180910390f35b6100ea60048036038101906100e5919061061f565b610200565b6040516100f79190610741565b60405180910390f35b61011a6004803603810190610115919061065b565b610231565b6040516101319b9a999897969594939291906107af565b60405180910390f35b610154600480360381019061014f9190610684565b610312565b60405161016595949392919061075c565b60405180910390f35b6101766103b2565b6040516101839190610741565b60405180910390f35b6101a660048036038101906101a1919061065b565b6103b8565b6040516101b89695949392919061085a565b60405180910390f35b60078060000154905081565b60066020528060005260406000206000915054906101000a900473ffffffffffffffffffffffffffffffffffffffff1681565b6005602052816000526040600020818154811061021c57600080fd5b90600052602060002001600091509150505481565b60006020528060005260406000206000915090508060000154908060010160009054906101000a900473ffffffffffffffffffffffffffffffffffffffff16908060020154908060030154908060040160009054906101000a900460ff16908060040160019054906101000a900460ff16908060040160029054906101000a900460ff16908060050154908060060154908060070160009054906101000a900473ffffffffffffffffffffffffffffffffffffffff16908060080160009054906101000a900473ffffffffffffffffffffffffffffffffffffffff1690508b565b6002602052816000526040600020818154811061032e57600080fd5b9060005260206000209060050201600091509150508060000154908060010160009054906101000a900473ffffffffffffffffffffffffffffffffffffffff16908060020160009054906101000a900473ffffffffffffffffffffffffffffffffffffffff16908060030154908060040160009054906101000a900460ff16905085565b60015481565b60046020528060005260406000206000915090508060000154908060010180546103e190610967565b80601f016020809104026020016040519081016040528092919081815260200182805461040d90610967565b801561045a5780601f1061042f5761010080835404028352916020019161045a565b820191906000526020600020905b81548152906001019060200180831161043d57829003601f168201915b50505050509080600201805461046f90610967565b80601f016020809104026020016040519081016040528092919081815260200182805461049b90610967565b80156104e85780601f106104bd576101008083540402835291602001916104e8565b820191906000526020600020905b8154815290600101906020018083116104cb57829003601f168201915b5050505050908060030160009054906101000a900473ffffffffffffffffffffffffffffffffffffffff16908060040160009054906101000a900473ffffffffffffffffffffffffffffffffffffffff169080600501805461054990610967565b80601f016020809104026020016040519081016040528092919081815260200182805461057590610967565b80156105c25780601f10610597576101008083540402835291602001916105c2565b820191906000526020600020905b8154815290600101906020018083116105a557829003601f168201915b5050505050905086565b6000813590506105db816109d9565b92915050565b6000813590506105f0816109f0565b92915050565b60006020828403121561060857600080fd5b6000610616848285016105cc565b91505092915050565b6000806040838503121561063257600080fd5b6000610640858286016105cc565b9250506020610651858286016105e1565b9150509250929050565b60006020828403121561066d57600080fd5b600061067b848285016105e1565b91505092915050565b6000806040838503121561069757600080fd5b60006106a5858286016105e1565b92505060206106b6858286016105e1565b9150509250929050565b6106c9816108ec565b82525050565b6106d8816108fe565b82525050565b60006106e9826108d0565b6106f381856108db565b9350610703818560208601610934565b61070c816109c8565b840191505092915050565b6107208161092a565b82525050565b600060208201905061073b60008301846106c0565b92915050565b60006020820190506107566000830184610717565b92915050565b600060a0820190506107716000830188610717565b61077e60208301876106c0565b61078b60408301866106c0565b6107986060830185610717565b6107a560808301846106cf565b9695505050505050565b6000610160820190506107c5600083018e610717565b6107d2602083018d6106c0565b6107df604083018c610717565b6107ec606083018b610717565b6107f9608083018a6106cf565b61080660a08301896106cf565b61081360c08301886106cf565b61082060e0830187610717565b61082e610100830186610717565b61083c6101208301856106c0565b61084a6101408301846106c0565b9c9b505050505050505050505050565b600060c08201905061086f6000830189610717565b818103602083015261088181886106de565b9050818103604083015261089581876106de565b90506108a460608301866106c0565b6108b160808301856106c0565b81810360a08301526108c381846106de565b9050979650505050505050565b600081519050919050565b600082825260208201905092915050565b60006108f78261090a565b9050919050565b60008115159050919050565b600073ffffffffffffffffffffffffffffffffffffffff82169050919050565b6000819050919050565b60005b83811015610952578082015181840152602081019050610937565b83811115610961576000848401525b50505050565b6000600282049050600182168061097f57607f821691505b6020821081141561099357610992610999565b5b50919050565b7f4e487b7100000000000000000000000000000000000000000000000000000000600052602260045260246000fd5b6000601f19601f8301169050919050565b6109e2816108ec565b81146109ed57600080fd5b50565b6109f98161092a565b8114610a0457600080fd5b5056fea26469706673582212204e902ae4bd97beaba9d775a5cf2f9139d06e560197ec37efcd5323aa11e1591864736f6c63430008030033",
  "immutableReferences": {},
  "source": "// SPDX-License-Identifier: MIT\r\npragma solidity ^0.8.0;\r\n\r\nimport \"./Libraries/LibMeta.sol\";\r\nimport \"./Libraries/LibBid.sol\";\r\nimport \"./Libraries/LibCollection.sol\";\r\nimport \"@openzeppelin/contracts/utils/Counters.sol\";\r\n\r\ncontract NFTV1Storage {\r\n\r\n    mapping(uint256 => LibMeta.TokenMeta) public _tokenMeta;\r\n    uint public _tokenIds;\r\n    mapping(uint256 => LibBid.BidOrder[]) public Bids;\r\n    string baseURI;\r\n    mapping(uint256 => LibCollection.CollectionMeta) public collections;\r\n    mapping(address => uint256[]) public ownerToCollections;\r\n    mapping(address => address) public collectionToOwner;\r\n    Counters.Counter public collectionIdTracker;\r\n    Counters.Counter internal _tokenIdTracker;\r\n    address internal PNDCAddress;\r\n}\r\n\r\n",
  "sourcePath": "D:\\Blockchain\\Liquidity\\new\\Modular-contract\\contracts\\NFTStorage.sol",
  "compiler": {
    "name": "solc",
    "version": "0.8.3+commit.8d00100c.Emscripten.clang"
  },
  "schemaVersion": "3.4.3",
  "updatedAt": "2021-12-22T02:48:44.954Z",
  "networkType": "ethereum",
  "devdoc": {
    "kind": "dev",
    "methods": {},
    "version": 1
  },
  "userdoc": {
    "kind": "user",
    "methods": {},
    "version": 1
  }
}