{
  "contractName": "PNDC_ERC721",
  "abi": [
    {
      "inputs": [
        {
          "internalType": "string",
          "name": "name",
          "type": "string"
        },
        {
          "internalType": "string",
          "name": "symbol",
          "type": "string"
        }
      ],
      "stateMutability": "nonpayable",
      "type": "constructor"
    },
    {
      "anonymous": false,
      "inputs": [
        {
          "indexed": true,
          "internalType": "address",
          "name": "owner",
          "type": "address"
        },
        {
          "indexed": true,
          "internalType": "address",
          "name": "approved",
          "type": "address"
        },
        {
          "indexed": true,
          "internalType": "uint256",
          "name": "tokenId",
          "type": "uint256"
        }
      ],
      "name": "Approval",
      "type": "event"
    },
    {
      "anonymous": false,
      "inputs": [
        {
          "indexed": true,
          "internalType": "address",
          "name": "owner",
          "type": "address"
        },
        {
          "indexed": true,
          "internalType": "address",
          "name": "operator",
          "type": "address"
        },
        {
          "indexed": false,
          "internalType": "bool",
          "name": "approved",
          "type": "bool"
        }
      ],
      "name": "ApprovalForAll",
      "type": "event"
    },
    {
      "anonymous": false,
      "inputs": [
        {
          "indexed": true,
          "internalType": "address",
          "name": "previousOwner",
          "type": "address"
        },
        {
          "indexed": true,
          "internalType": "address",
          "name": "newOwner",
          "type": "address"
        }
      ],
      "name": "OwnershipTransferred",
      "type": "event"
    },
    {
      "anonymous": false,
      "inputs": [
        {
          "indexed": false,
          "internalType": "uint256",
          "name": "tokenId",
          "type": "uint256"
        },
        {
          "components": [
            {
              "internalType": "address payable",
              "name": "account",
              "type": "address"
            },
            {
              "internalType": "uint96",
              "name": "value",
              "type": "uint96"
            }
          ],
          "indexed": false,
          "internalType": "struct LibShare.Share[]",
          "name": "royalties",
          "type": "tuple[]"
        }
      ],
      "name": "RoyaltiesSetForTokenId",
      "type": "event"
    },
    {
      "anonymous": false,
      "inputs": [
        {
          "indexed": true,
          "internalType": "address",
          "name": "from",
          "type": "address"
        },
        {
          "indexed": true,
          "internalType": "address",
          "name": "to",
          "type": "address"
        },
        {
          "indexed": true,
          "internalType": "uint256",
          "name": "tokenId",
          "type": "uint256"
        }
      ],
      "name": "Transfer",
      "type": "event"
    },
    {
      "inputs": [
        {
          "internalType": "address",
          "name": "to",
          "type": "address"
        },
        {
          "internalType": "uint256",
          "name": "tokenId",
          "type": "uint256"
        }
      ],
      "name": "approve",
      "outputs": [],
      "stateMutability": "nonpayable",
      "type": "function"
    },
    {
      "inputs": [
        {
          "internalType": "address",
          "name": "owner",
          "type": "address"
        }
      ],
      "name": "balanceOf",
      "outputs": [
        {
          "internalType": "uint256",
          "name": "",
          "type": "uint256"
        }
      ],
      "stateMutability": "view",
      "type": "function",
      "constant": true
    },
    {
      "inputs": [
        {
          "internalType": "uint256",
          "name": "tokenId",
          "type": "uint256"
        }
      ],
      "name": "getApproved",
      "outputs": [
        {
          "internalType": "address",
          "name": "",
          "type": "address"
        }
      ],
      "stateMutability": "view",
      "type": "function",
      "constant": true
    },
    {
      "inputs": [
        {
          "internalType": "address",
          "name": "owner",
          "type": "address"
        },
        {
          "internalType": "address",
          "name": "operator",
          "type": "address"
        }
      ],
      "name": "isApprovedForAll",
      "outputs": [
        {
          "internalType": "bool",
          "name": "",
          "type": "bool"
        }
      ],
      "stateMutability": "view",
      "type": "function",
      "constant": true
    },
    {
      "inputs": [],
      "name": "name",
      "outputs": [
        {
          "internalType": "string",
          "name": "",
          "type": "string"
        }
      ],
      "stateMutability": "view",
      "type": "function",
      "constant": true
    },
    {
      "inputs": [],
      "name": "owner",
      "outputs": [
        {
          "internalType": "address",
          "name": "",
          "type": "address"
        }
      ],
      "stateMutability": "view",
      "type": "function",
      "constant": true
    },
    {
      "inputs": [
        {
          "internalType": "uint256",
          "name": "tokenId",
          "type": "uint256"
        }
      ],
      "name": "ownerOf",
      "outputs": [
        {
          "internalType": "address",
          "name": "",
          "type": "address"
        }
      ],
      "stateMutability": "view",
      "type": "function",
      "constant": true
    },
    {
      "inputs": [],
      "name": "renounceOwnership",
      "outputs": [],
      "stateMutability": "nonpayable",
      "type": "function"
    },
    {
      "inputs": [
        {
          "internalType": "uint256",
          "name": "",
          "type": "uint256"
        },
        {
          "internalType": "uint256",
          "name": "",
          "type": "uint256"
        }
      ],
      "name": "royaltiesByTokenId",
      "outputs": [
        {
          "internalType": "address payable",
          "name": "account",
          "type": "address"
        },
        {
          "internalType": "uint96",
          "name": "value",
          "type": "uint96"
        }
      ],
      "stateMutability": "view",
      "type": "function",
      "constant": true
    },
    {
      "inputs": [
        {
          "internalType": "address",
          "name": "from",
          "type": "address"
        },
        {
          "internalType": "address",
          "name": "to",
          "type": "address"
        },
        {
          "internalType": "uint256",
          "name": "tokenId",
          "type": "uint256"
        }
      ],
      "name": "safeTransferFrom",
      "outputs": [],
      "stateMutability": "nonpayable",
      "type": "function"
    },
    {
      "inputs": [
        {
          "internalType": "address",
          "name": "from",
          "type": "address"
        },
        {
          "internalType": "address",
          "name": "to",
          "type": "address"
        },
        {
          "internalType": "uint256",
          "name": "tokenId",
          "type": "uint256"
        },
        {
          "internalType": "bytes",
          "name": "_data",
          "type": "bytes"
        }
      ],
      "name": "safeTransferFrom",
      "outputs": [],
      "stateMutability": "nonpayable",
      "type": "function"
    },
    {
      "inputs": [
        {
          "internalType": "address",
          "name": "operator",
          "type": "address"
        },
        {
          "internalType": "bool",
          "name": "approved",
          "type": "bool"
        }
      ],
      "name": "setApprovalForAll",
      "outputs": [],
      "stateMutability": "nonpayable",
      "type": "function"
    },
    {
      "inputs": [],
      "name": "symbol",
      "outputs": [
        {
          "internalType": "string",
          "name": "",
          "type": "string"
        }
      ],
      "stateMutability": "view",
      "type": "function",
      "constant": true
    },
    {
      "inputs": [
        {
          "internalType": "uint256",
          "name": "index",
          "type": "uint256"
        }
      ],
      "name": "tokenByIndex",
      "outputs": [
        {
          "internalType": "uint256",
          "name": "",
          "type": "uint256"
        }
      ],
      "stateMutability": "view",
      "type": "function",
      "constant": true
    },
    {
      "inputs": [
        {
          "internalType": "address",
          "name": "owner",
          "type": "address"
        },
        {
          "internalType": "uint256",
          "name": "index",
          "type": "uint256"
        }
      ],
      "name": "tokenOfOwnerByIndex",
      "outputs": [
        {
          "internalType": "uint256",
          "name": "",
          "type": "uint256"
        }
      ],
      "stateMutability": "view",
      "type": "function",
      "constant": true
    },
    {
      "inputs": [],
      "name": "totalSupply",
      "outputs": [
        {
          "internalType": "uint256",
          "name": "",
          "type": "uint256"
        }
      ],
      "stateMutability": "view",
      "type": "function",
      "constant": true
    },
    {
      "inputs": [
        {
          "internalType": "address",
          "name": "from",
          "type": "address"
        },
        {
          "internalType": "address",
          "name": "to",
          "type": "address"
        },
        {
          "internalType": "uint256",
          "name": "tokenId",
          "type": "uint256"
        }
      ],
      "name": "transferFrom",
      "outputs": [],
      "stateMutability": "nonpayable",
      "type": "function"
    },
    {
      "inputs": [
        {
          "internalType": "address",
          "name": "newOwner",
          "type": "address"
        }
      ],
      "name": "transferOwnership",
      "outputs": [],
      "stateMutability": "nonpayable",
      "type": "function"
    },
    {
      "inputs": [
        {
          "internalType": "address",
          "name": "to",
          "type": "address"
        },
        {
          "internalType": "string",
          "name": "uri",
          "type": "string"
        },
        {
          "components": [
            {
              "internalType": "address payable",
              "name": "account",
              "type": "address"
            },
            {
              "internalType": "uint96",
              "name": "value",
              "type": "uint96"
            }
          ],
          "internalType": "struct LibShare.Share[]",
          "name": "royalties",
          "type": "tuple[]"
        }
      ],
      "name": "safeMint",
      "outputs": [],
      "stateMutability": "nonpayable",
      "type": "function"
    },
    {
      "inputs": [
        {
          "internalType": "uint256",
          "name": "_totalNft",
          "type": "uint256"
        },
        {
          "internalType": "string[]",
          "name": "_uri",
          "type": "string[]"
        },
        {
          "components": [
            {
              "internalType": "address payable",
              "name": "account",
              "type": "address"
            },
            {
              "internalType": "uint96",
              "name": "value",
              "type": "uint96"
            }
          ],
          "internalType": "struct LibShare.Share[][]",
          "name": "royaltiesSet",
          "type": "tuple[][]"
        }
      ],
      "name": "batchMint",
      "outputs": [],
      "stateMutability": "nonpayable",
      "type": "function"
    },
    {
      "inputs": [
        {
          "internalType": "uint256",
          "name": "_tokenId",
          "type": "uint256"
        }
      ],
      "name": "getRoyalties",
      "outputs": [
        {
          "components": [
            {
              "internalType": "address payable",
              "name": "account",
              "type": "address"
            },
            {
              "internalType": "uint96",
              "name": "value",
              "type": "uint96"
            }
          ],
          "internalType": "struct LibShare.Share[]",
          "name": "",
          "type": "tuple[]"
        }
      ],
      "stateMutability": "view",
      "type": "function",
      "constant": true
    },
    {
      "inputs": [
        {
          "internalType": "uint256",
          "name": "tokenId",
          "type": "uint256"
        }
      ],
      "name": "tokenURI",
      "outputs": [
        {
          "internalType": "string",
          "name": "",
          "type": "string"
        }
      ],
      "stateMutability": "view",
      "type": "function",
      "constant": true
    },
    {
      "inputs": [
        {
          "internalType": "bytes4",
          "name": "interfaceId",
          "type": "bytes4"
        }
      ],
      "name": "supportsInterface",
      "outputs": [
        {
          "internalType": "bool",
          "name": "",
          "type": "bool"
        }
      ],
      "stateMutability": "view",
      "type": "function",
      "constant": true
    }
  ],
  "bytecode": "0x60806040523480156200001157600080fd5b5060405162004b9538038062004b95833981810160405281019062000037919062000285565b818181600090805190602001906200005192919062000163565b5080600190805190602001906200006a92919062000163565b5050506200008d620000816200009560201b60201c565b6200009d60201b60201c565b505062000468565b600033905090565b6000600b60009054906101000a900473ffffffffffffffffffffffffffffffffffffffff16905081600b60006101000a81548173ffffffffffffffffffffffffffffffffffffffff021916908373ffffffffffffffffffffffffffffffffffffffff1602179055508173ffffffffffffffffffffffffffffffffffffffff168173ffffffffffffffffffffffffffffffffffffffff167f8be0079c531659141344cd1fd0a4f28419497f9722a3daafe3b4186f6b6457e060405160405180910390a35050565b82805462000171906200038d565b90600052602060002090601f016020900481019282620001955760008555620001e1565b82601f10620001b057805160ff1916838001178555620001e1565b82800160010185558215620001e1579182015b82811115620001e0578251825591602001919060010190620001c3565b5b509050620001f09190620001f4565b5090565b5b808211156200020f576000816000905550600101620001f5565b5090565b60006200022a620002248462000321565b620002f8565b9050828152602081018484840111156200024357600080fd5b6200025084828562000357565b509392505050565b600082601f8301126200026a57600080fd5b81516200027c84826020860162000213565b91505092915050565b600080604083850312156200029957600080fd5b600083015167ffffffffffffffff811115620002b457600080fd5b620002c28582860162000258565b925050602083015167ffffffffffffffff811115620002e057600080fd5b620002ee8582860162000258565b9150509250929050565b60006200030462000317565b9050620003128282620003c3565b919050565b6000604051905090565b600067ffffffffffffffff8211156200033f576200033e62000428565b5b6200034a8262000457565b9050602081019050919050565b60005b83811015620003775780820151818401526020810190506200035a565b8381111562000387576000848401525b50505050565b60006002820490506001821680620003a657607f821691505b60208210811415620003bd57620003bc620003f9565b5b50919050565b620003ce8262000457565b810181811067ffffffffffffffff82111715620003f057620003ef62000428565b5b80604052505050565b7f4e487b7100000000000000000000000000000000000000000000000000000000600052602260045260246000fd5b7f4e487b7100000000000000000000000000000000000000000000000000000000600052604160045260246000fd5b6000601f19601f8301169050919050565b61471d80620004786000396000f3fe608060405234801561001057600080fd5b506004361061014d5760003560e01c8063715018a6116100c3578063b88d4fde1161007c578063b88d4fde1461039c578063bb3bafd6146103b8578063c87b56dd146103e8578063e985e9c514610418578063f2fde38b14610448578063fb2ef4a3146104645761014d565b8063715018a61461030257806384f47a251461030c5780638da5cb5b1461032857806395d89b4114610346578063a17e5eef14610364578063a22cb465146103805761014d565b806323b872dd1161011557806323b872dd1461020a5780632f745c591461022657806342842e0e146102565780634f6ccce7146102725780636352211e146102a257806370a08231146102d25761014d565b806301ffc9a71461015257806306fdde0314610182578063081812fc146101a0578063095ea7b3146101d057806318160ddd146101ec575b600080fd5b61016c60048036038101906101679190612fee565b610495565b6040516101799190613716565b60405180910390f35b61018a6104a7565b6040516101979190613731565b60405180910390f35b6101ba60048036038101906101b59190613040565b610539565b6040516101c79190613664565b60405180910390f35b6101ea60048036038101906101e59190612fb2565b6105be565b005b6101f46106d6565b6040516102019190613a73565b60405180910390f35b610224600480360381019061021f9190612e2d565b6106e3565b005b610240600480360381019061023b9190612fb2565b610743565b60405161024d9190613a73565b60405180910390f35b610270600480360381019061026b9190612e2d565b6107e8565b005b61028c60048036038101906102879190613040565b610808565b6040516102999190613a73565b60405180910390f35b6102bc60048036038101906102b79190613040565b61089f565b6040516102c99190613664565b60405180910390f35b6102ec60048036038101906102e79190612dc8565b610951565b6040516102f99190613a73565b60405180910390f35b61030a610a09565b005b61032660048036038101906103219190612f33565b610a91565b005b610330610acd565b60405161033d9190613664565b60405180910390f35b61034e610af7565b60405161035b9190613731565b60405180910390f35b61037e60048036038101906103799190613069565b610b89565b005b61039a60048036038101906103959190612ef7565b610cbf565b005b6103b660048036038101906103b19190612e7c565b610cd5565b005b6103d260048036038101906103cd9190613040565b610d37565b6040516103df91906136f4565b60405180910390f35b61040260048036038101906103fd9190613040565b610e39565b60405161040f9190613731565b60405180910390f35b610432600480360381019061042d9190612df1565b610e4b565b60405161043f9190613716565b60405180910390f35b610462600480360381019061045d9190612dc8565b610edf565b005b61047e600480360381019061047991906130e8565b610fd7565b60405161048c92919061367f565b60405180910390f35b60006104a08261104c565b9050919050565b6060600080546104b690613de0565b80601f01602080910402602001604051908101604052809291908181526020018280546104e290613de0565b801561052f5780601f106105045761010080835404028352916020019161052f565b820191906000526020600020905b81548152906001019060200180831161051257829003601f168201915b5050505050905090565b6000610544826110c6565b610583576040517f08c379a000000000000000000000000000000000000000000000000000000000815260040161057a90613953565b60405180910390fd5b6004600083815260200190815260200160002060009054906101000a900473ffffffffffffffffffffffffffffffffffffffff169050919050565b60006105c98261089f565b90508073ffffffffffffffffffffffffffffffffffffffff168373ffffffffffffffffffffffffffffffffffffffff16141561063a576040517f08c379a0000000000000000000000000000000000000000000000000000000008152600401610631906139f3565b60405180910390fd5b8073ffffffffffffffffffffffffffffffffffffffff16610659611132565b73ffffffffffffffffffffffffffffffffffffffff161480610688575061068781610682611132565b610e4b565b5b6106c7576040517f08c379a00000000000000000000000000000000000000000000000000000000081526004016106be90613873565b60405180910390fd5b6106d1838361113a565b505050565b6000600880549050905090565b6106f46106ee611132565b826111f3565b610733576040517f08c379a000000000000000000000000000000000000000000000000000000000815260040161072a90613a13565b60405180910390fd5b61073e8383836112d1565b505050565b600061074e83610951565b821061078f576040517f08c379a000000000000000000000000000000000000000000000000000000000815260040161078690613753565b60405180910390fd5b600660008473ffffffffffffffffffffffffffffffffffffffff1673ffffffffffffffffffffffffffffffffffffffff168152602001908152602001600020600083815260200190815260200160002054905092915050565b61080383838360405180602001604052806000815250610cd5565b505050565b60006108126106d6565b8210610853576040517f08c379a000000000000000000000000000000000000000000000000000000000815260040161084a90613a33565b60405180910390fd5b6008828154811061088d577f4e487b7100000000000000000000000000000000000000000000000000000000600052603260045260246000fd5b90600052602060002001549050919050565b6000806002600084815260200190815260200160002060009054906101000a900473ffffffffffffffffffffffffffffffffffffffff169050600073ffffffffffffffffffffffffffffffffffffffff168173ffffffffffffffffffffffffffffffffffffffff161415610948576040517f08c379a000000000000000000000000000000000000000000000000000000000815260040161093f906138b3565b60405180910390fd5b80915050919050565b60008073ffffffffffffffffffffffffffffffffffffffff168273ffffffffffffffffffffffffffffffffffffffff1614156109c2576040517f08c379a00000000000000000000000000000000000000000000000000000000081526004016109b990613893565b60405180910390fd5b600360008373ffffffffffffffffffffffffffffffffffffffff1673ffffffffffffffffffffffffffffffffffffffff168152602001908152602001600020549050919050565b610a11611132565b73ffffffffffffffffffffffffffffffffffffffff16610a2f610acd565b73ffffffffffffffffffffffffffffffffffffffff1614610a85576040517f08c379a0000000000000000000000000000000000000000000000000000000008152600401610a7c90613993565b60405180910390fd5b610a8f600061152d565b565b6000610a9d600c6115f3565b9050610aa9600c611601565b610ab38482611617565b610abd8184611635565b610ac781836116a9565b50505050565b6000600b60009054906101000a900473ffffffffffffffffffffffffffffffffffffffff16905090565b606060018054610b0690613de0565b80601f0160208091040260200160405190810160405280929190818152602001828054610b3290613de0565b8015610b7f5780601f10610b5457610100808354040283529160200191610b7f565b820191906000526020600020905b815481529060010190602001808311610b6257829003601f168201915b5050505050905090565b600f831115610bcd576040517f08c379a0000000000000000000000000000000000000000000000000000000008152600401610bc4906138d3565b60405180910390fd5b81518314610c10576040517f08c379a0000000000000000000000000000000000000000000000000000000008152600401610c0790613813565b60405180910390fd5b60005b83811015610cb957610ca633848381518110610c58577f4e487b7100000000000000000000000000000000000000000000000000000000600052603260045260246000fd5b6020026020010151848481518110610c99577f4e487b7100000000000000000000000000000000000000000000000000000000600052603260045260246000fd5b6020026020010151610a91565b8080610cb190613e43565b915050610c13565b50505050565b610cd1610cca611132565b8383611a0e565b5050565b610ce6610ce0611132565b836111f3565b610d25576040517f08c379a0000000000000000000000000000000000000000000000000000000008152600401610d1c90613a13565b60405180910390fd5b610d3184848484611b7b565b50505050565b6060600d6000838152602001908152602001600020805480602002602001604051908101604052809291908181526020016000905b82821015610e2e578382906000526020600020016040518060400160405290816000820160009054906101000a900473ffffffffffffffffffffffffffffffffffffffff1673ffffffffffffffffffffffffffffffffffffffff1673ffffffffffffffffffffffffffffffffffffffff1681526020016000820160149054906101000a90046bffffffffffffffffffffffff166bffffffffffffffffffffffff166bffffffffffffffffffffffff168152505081526020019060010190610d6c565b505050509050919050565b6060610e4482611bd7565b9050919050565b6000600560008473ffffffffffffffffffffffffffffffffffffffff1673ffffffffffffffffffffffffffffffffffffffff16815260200190815260200160002060008373ffffffffffffffffffffffffffffffffffffffff1673ffffffffffffffffffffffffffffffffffffffff16815260200190815260200160002060009054906101000a900460ff16905092915050565b610ee7611132565b73ffffffffffffffffffffffffffffffffffffffff16610f05610acd565b73ffffffffffffffffffffffffffffffffffffffff1614610f5b576040517f08c379a0000000000000000000000000000000000000000000000000000000008152600401610f5290613993565b60405180910390fd5b600073ffffffffffffffffffffffffffffffffffffffff168173ffffffffffffffffffffffffffffffffffffffff161415610fcb576040517f08c379a0000000000000000000000000000000000000000000000000000000008152600401610fc290613793565b60405180910390fd5b610fd48161152d565b50565b600d6020528160005260406000208181548110610ff357600080fd5b90600052602060002001600091509150508060000160009054906101000a900473ffffffffffffffffffffffffffffffffffffffff16908060000160149054906101000a90046bffffffffffffffffffffffff16905082565b60007f780e9d63000000000000000000000000000000000000000000000000000000007bffffffffffffffffffffffffffffffffffffffffffffffffffffffff1916827bffffffffffffffffffffffffffffffffffffffffffffffffffffffff191614806110bf57506110be82611d29565b5b9050919050565b60008073ffffffffffffffffffffffffffffffffffffffff166002600084815260200190815260200160002060009054906101000a900473ffffffffffffffffffffffffffffffffffffffff1673ffffffffffffffffffffffffffffffffffffffff1614159050919050565b600033905090565b816004600083815260200190815260200160002060006101000a81548173ffffffffffffffffffffffffffffffffffffffff021916908373ffffffffffffffffffffffffffffffffffffffff160217905550808273ffffffffffffffffffffffffffffffffffffffff166111ad8361089f565b73ffffffffffffffffffffffffffffffffffffffff167f8c5be1e5ebec7d5bd14f71427d1e84f3dd0314c0f7b2291e5b200ac8c7c3b92560405160405180910390a45050565b60006111fe826110c6565b61123d576040517f08c379a000000000000000000000000000000000000000000000000000000000815260040161123490613853565b60405180910390fd5b60006112488361089f565b90508073ffffffffffffffffffffffffffffffffffffffff168473ffffffffffffffffffffffffffffffffffffffff1614806112b757508373ffffffffffffffffffffffffffffffffffffffff1661129f84610539565b73ffffffffffffffffffffffffffffffffffffffff16145b806112c857506112c78185610e4b565b5b91505092915050565b8273ffffffffffffffffffffffffffffffffffffffff166112f18261089f565b73ffffffffffffffffffffffffffffffffffffffff1614611347576040517f08c379a000000000000000000000000000000000000000000000000000000000815260040161133e906139b3565b60405180910390fd5b600073ffffffffffffffffffffffffffffffffffffffff168273ffffffffffffffffffffffffffffffffffffffff1614156113b7576040517f08c379a00000000000000000000000000000000000000000000000000000000081526004016113ae906137d3565b60405180910390fd5b6113c2838383611e0b565b6113cd60008261113a565b6001600360008573ffffffffffffffffffffffffffffffffffffffff1673ffffffffffffffffffffffffffffffffffffffff168152602001908152602001600020600082825461141d9190613ccc565b925050819055506001600360008473ffffffffffffffffffffffffffffffffffffffff1673ffffffffffffffffffffffffffffffffffffffff16815260200190815260200160002060008282546114749190613c45565b92505081905550816002600083815260200190815260200160002060006101000a81548173ffffffffffffffffffffffffffffffffffffffff021916908373ffffffffffffffffffffffffffffffffffffffff160217905550808273ffffffffffffffffffffffffffffffffffffffff168473ffffffffffffffffffffffffffffffffffffffff167fddf252ad1be2c89b69c2b068fc378daa952ba7f163c4a11628f55a4df523b3ef60405160405180910390a4505050565b6000600b60009054906101000a900473ffffffffffffffffffffffffffffffffffffffff16905081600b60006101000a81548173ffffffffffffffffffffffffffffffffffffffff021916908373ffffffffffffffffffffffffffffffffffffffff1602179055508173ffffffffffffffffffffffffffffffffffffffff168173ffffffffffffffffffffffffffffffffffffffff167f8be0079c531659141344cd1fd0a4f28419497f9722a3daafe3b4186f6b6457e060405160405180910390a35050565b600081600001549050919050565b6001816000016000828254019250508190555050565b611631828260405180602001604052806000815250611e1b565b5050565b61163e826110c6565b61167d576040517f08c379a0000000000000000000000000000000000000000000000000000000008152600401611674906138f3565b60405180910390fd5b80600a600084815260200190815260200160002090805190602001906116a4929190612954565b505050565b600d600083815260200190815260200160002060006116c891906129da565b6000805b825181101561198b57600073ffffffffffffffffffffffffffffffffffffffff16838281518110611726577f4e487b7100000000000000000000000000000000000000000000000000000000600052603260045260246000fd5b60200260200101516000015173ffffffffffffffffffffffffffffffffffffffff161415611789576040517f08c379a000000000000000000000000000000000000000000000000000000000815260040161178090613833565b60405180910390fd5b60008382815181106117c4577f4e487b7100000000000000000000000000000000000000000000000000000000600052603260045260246000fd5b6020026020010151602001516bffffffffffffffffffffffff16141561181f576040517f08c379a000000000000000000000000000000000000000000000000000000000815260040161181690613a53565b60405180910390fd5b600d600085815260200190815260200160002083828151811061186b577f4e487b7100000000000000000000000000000000000000000000000000000000600052603260045260246000fd5b60200260200101519080600181540180825580915050600190039060005260206000200160009091909190915060008201518160000160006101000a81548173ffffffffffffffffffffffffffffffffffffffff021916908373ffffffffffffffffffffffffffffffffffffffff16021790555060208201518160000160146101000a8154816bffffffffffffffffffffffff02191690836bffffffffffffffffffffffff1602179055505050828181518110611951577f4e487b7100000000000000000000000000000000000000000000000000000000600052603260045260246000fd5b6020026020010151602001516bffffffffffffffffffffffff16826119769190613c45565b9150808061198390613e43565b9150506116cc565b5061271081106119d0576040517f08c379a00000000000000000000000000000000000000000000000000000000081526004016119c790613973565b60405180910390fd5b7fe23425cf56a81561c420f592eb54f21107c562f26c8c78c4a20d26920d244e668383604051611a01929190613a8e565b60405180910390a1505050565b8173ffffffffffffffffffffffffffffffffffffffff168373ffffffffffffffffffffffffffffffffffffffff161415611a7d576040517f08c379a0000000000000000000000000000000000000000000000000000000008152600401611a74906137f3565b60405180910390fd5b80600560008573ffffffffffffffffffffffffffffffffffffffff1673ffffffffffffffffffffffffffffffffffffffff16815260200190815260200160002060008473ffffffffffffffffffffffffffffffffffffffff1673ffffffffffffffffffffffffffffffffffffffff16815260200190815260200160002060006101000a81548160ff0219169083151502179055508173ffffffffffffffffffffffffffffffffffffffff168373ffffffffffffffffffffffffffffffffffffffff167f17307eab39ab6107e8899845ad3d59bd9653f200f220920489ca2b5937696c3183604051611b6e9190613716565b60405180910390a3505050565b611b868484846112d1565b611b9284848484611e76565b611bd1576040517f08c379a0000000000000000000000000000000000000000000000000000000008152600401611bc890613773565b60405180910390fd5b50505050565b6060611be2826110c6565b611c21576040517f08c379a0000000000000000000000000000000000000000000000000000000008152600401611c1890613933565b60405180910390fd5b6000600a60008481526020019081526020016000208054611c4190613de0565b80601f0160208091040260200160405190810160405280929190818152602001828054611c6d90613de0565b8015611cba5780601f10611c8f57610100808354040283529160200191611cba565b820191906000526020600020905b815481529060010190602001808311611c9d57829003601f168201915b505050505090506000611ccb61200d565b9050600081511415611ce1578192505050611d24565b600082511115611d16578082604051602001611cfe929190613640565b60405160208183030381529060405292505050611d24565b611d1f84612024565b925050505b919050565b60007f80ac58cd000000000000000000000000000000000000000000000000000000007bffffffffffffffffffffffffffffffffffffffffffffffffffffffff1916827bffffffffffffffffffffffffffffffffffffffffffffffffffffffff19161480611df457507f5b5e139f000000000000000000000000000000000000000000000000000000007bffffffffffffffffffffffffffffffffffffffffffffffffffffffff1916827bffffffffffffffffffffffffffffffffffffffffffffffffffffffff1916145b80611e045750611e03826120cb565b5b9050919050565b611e16838383612135565b505050565b611e258383612249565b611e326000848484611e76565b611e71576040517f08c379a0000000000000000000000000000000000000000000000000000000008152600401611e6890613773565b60405180910390fd5b505050565b6000611e978473ffffffffffffffffffffffffffffffffffffffff16612417565b15612000578373ffffffffffffffffffffffffffffffffffffffff1663150b7a02611ec0611132565b8786866040518563ffffffff1660e01b8152600401611ee294939291906136a8565b602060405180830381600087803b158015611efc57600080fd5b505af1925050508015611f2d57506040513d601f19601f82011682018060405250810190611f2a9190613017565b60015b611fb0573d8060008114611f5d576040519150601f19603f3d011682016040523d82523d6000602084013e611f62565b606091505b50600081511415611fa8576040517f08c379a0000000000000000000000000000000000000000000000000000000008152600401611f9f90613773565b60405180910390fd5b805181602001fd5b63150b7a0260e01b7bffffffffffffffffffffffffffffffffffffffffffffffffffffffff1916817bffffffffffffffffffffffffffffffffffffffffffffffffffffffff191614915050612005565b600190505b949350505050565b606060405180602001604052806000815250905090565b606061202f826110c6565b61206e576040517f08c379a0000000000000000000000000000000000000000000000000000000008152600401612065906139d3565b60405180910390fd5b600061207861200d565b9050600081511161209857604051806020016040528060008152506120c3565b806120a28461242a565b6040516020016120b3929190613640565b6040516020818303038152906040525b915050919050565b60007f01ffc9a7000000000000000000000000000000000000000000000000000000007bffffffffffffffffffffffffffffffffffffffffffffffffffffffff1916827bffffffffffffffffffffffffffffffffffffffffffffffffffffffff1916149050919050565b6121408383836125d7565b600073ffffffffffffffffffffffffffffffffffffffff168373ffffffffffffffffffffffffffffffffffffffff1614156121835761217e816125dc565b6121c2565b8173ffffffffffffffffffffffffffffffffffffffff168373ffffffffffffffffffffffffffffffffffffffff16146121c1576121c08382612625565b5b5b600073ffffffffffffffffffffffffffffffffffffffff168273ffffffffffffffffffffffffffffffffffffffff1614156122055761220081612792565b612244565b8273ffffffffffffffffffffffffffffffffffffffff168273ffffffffffffffffffffffffffffffffffffffff16146122435761224282826128d5565b5b5b505050565b600073ffffffffffffffffffffffffffffffffffffffff168273ffffffffffffffffffffffffffffffffffffffff1614156122b9576040517f08c379a00000000000000000000000000000000000000000000000000000000081526004016122b090613913565b60405180910390fd5b6122c2816110c6565b15612302576040517f08c379a00000000000000000000000000000000000000000000000000000000081526004016122f9906137b3565b60405180910390fd5b61230e60008383611e0b565b6001600360008473ffffffffffffffffffffffffffffffffffffffff1673ffffffffffffffffffffffffffffffffffffffff168152602001908152602001600020600082825461235e9190613c45565b92505081905550816002600083815260200190815260200160002060006101000a81548173ffffffffffffffffffffffffffffffffffffffff021916908373ffffffffffffffffffffffffffffffffffffffff160217905550808273ffffffffffffffffffffffffffffffffffffffff16600073ffffffffffffffffffffffffffffffffffffffff167fddf252ad1be2c89b69c2b068fc378daa952ba7f163c4a11628f55a4df523b3ef60405160405180910390a45050565b600080823b905060008111915050919050565b60606000821415612472576040518060400160405280600181526020017f300000000000000000000000000000000000000000000000000000000000000081525090506125d2565b600082905060005b600082146124a457808061248d90613e43565b915050600a8261249d9190613c9b565b915061247a565b60008167ffffffffffffffff8111156124e6577f4e487b7100000000000000000000000000000000000000000000000000000000600052604160045260246000fd5b6040519080825280601f01601f1916602001820160405280156125185781602001600182028036833780820191505090505b5090505b600085146125cb576001826125319190613ccc565b9150600a856125409190613e8c565b603061254c9190613c45565b60f81b818381518110612588577f4e487b7100000000000000000000000000000000000000000000000000000000600052603260045260246000fd5b60200101907effffffffffffffffffffffffffffffffffffffffffffffffffffffffffffff1916908160001a905350600a856125c49190613c9b565b945061251c565b8093505050505b919050565b505050565b6008805490506009600083815260200190815260200160002081905550600881908060018154018082558091505060019003906000526020600020016000909190919091505550565b6000600161263284610951565b61263c9190613ccc565b9050600060076000848152602001908152602001600020549050818114612721576000600660008673ffffffffffffffffffffffffffffffffffffffff1673ffffffffffffffffffffffffffffffffffffffff168152602001908152602001600020600084815260200190815260200160002054905080600660008773ffffffffffffffffffffffffffffffffffffffff1673ffffffffffffffffffffffffffffffffffffffff168152602001908152602001600020600084815260200190815260200160002081905550816007600083815260200190815260200160002081905550505b6007600084815260200190815260200160002060009055600660008573ffffffffffffffffffffffffffffffffffffffff1673ffffffffffffffffffffffffffffffffffffffff16815260200190815260200160002060008381526020019081526020016000206000905550505050565b600060016008805490506127a69190613ccc565b90506000600960008481526020019081526020016000205490506000600883815481106127fc577f4e487b7100000000000000000000000000000000000000000000000000000000600052603260045260246000fd5b906000526020600020015490508060088381548110612844577f4e487b7100000000000000000000000000000000000000000000000000000000600052603260045260246000fd5b9060005260206000200181905550816009600083815260200190815260200160002081905550600960008581526020019081526020016000206000905560088054806128b9577f4e487b7100000000000000000000000000000000000000000000000000000000600052603160045260246000fd5b6001900381819060005260206000200160009055905550505050565b60006128e083610951565b905081600660008573ffffffffffffffffffffffffffffffffffffffff1673ffffffffffffffffffffffffffffffffffffffff168152602001908152602001600020600083815260200190815260200160002081905550806007600084815260200190815260200160002081905550505050565b82805461296090613de0565b90600052602060002090601f01602090048101928261298257600085556129c9565b82601f1061299b57805160ff19168380011785556129c9565b828001600101855582156129c9579182015b828111156129c85782518255916020019190600101906129ad565b5b5090506129d691906129fb565b5090565b50805460008255906000526020600020908101906129f89190612a18565b50565b5b80821115612a145760008160009055506001016129fc565b5090565b5b80821115612a7157600080820160006101000a81549073ffffffffffffffffffffffffffffffffffffffff02191690556000820160146101000a8154906bffffffffffffffffffffffff021916905550600101612a19565b5090565b6000612a88612a8384613ae3565b613abe565b9050808382526020820190508260005b85811015612ac85781358501612aae8882612c95565b845260208401935060208301925050600181019050612a98565b5050509392505050565b6000612ae5612ae084613b0f565b613abe565b9050808382526020820190508260005b85811015612b255781358501612b0b8882612d28565b845260208401935060208301925050600181019050612af5565b5050509392505050565b6000612b42612b3d84613b3b565b613abe565b90508083825260208201905082856040860282011115612b6157600080fd5b60005b85811015612b915781612b778882612d52565b845260208401935060408301925050600181019050612b64565b5050509392505050565b6000612bae612ba984613b67565b613abe565b905082815260208101848484011115612bc657600080fd5b612bd1848285613d9e565b509392505050565b6000612bec612be784613b98565b613abe565b905082815260208101848484011115612c0457600080fd5b612c0f848285613d9e565b509392505050565b600081359050612c268161465d565b92915050565b600081359050612c3b81614674565b92915050565b600082601f830112612c5257600080fd5b8135612c62848260208601612a75565b91505092915050565b600082601f830112612c7c57600080fd5b8135612c8c848260208601612ad2565b91505092915050565b600082601f830112612ca657600080fd5b8135612cb6848260208601612b2f565b91505092915050565b600081359050612cce8161468b565b92915050565b600081359050612ce3816146a2565b92915050565b600081519050612cf8816146a2565b92915050565b600082601f830112612d0f57600080fd5b8135612d1f848260208601612b9b565b91505092915050565b600082601f830112612d3957600080fd5b8135612d49848260208601612bd9565b91505092915050565b600060408284031215612d6457600080fd5b612d6e6040613abe565b90506000612d7e84828501612c2c565b6000830152506020612d9284828501612db3565b60208301525092915050565b600081359050612dad816146b9565b92915050565b600081359050612dc2816146d0565b92915050565b600060208284031215612dda57600080fd5b6000612de884828501612c17565b91505092915050565b60008060408385031215612e0457600080fd5b6000612e1285828601612c17565b9250506020612e2385828601612c17565b9150509250929050565b600080600060608486031215612e4257600080fd5b6000612e5086828701612c17565b9350506020612e6186828701612c17565b9250506040612e7286828701612d9e565b9150509250925092565b60008060008060808587031215612e9257600080fd5b6000612ea087828801612c17565b9450506020612eb187828801612c17565b9350506040612ec287828801612d9e565b925050606085013567ffffffffffffffff811115612edf57600080fd5b612eeb87828801612cfe565b91505092959194509250565b60008060408385031215612f0a57600080fd5b6000612f1885828601612c17565b9250506020612f2985828601612cbf565b9150509250929050565b600080600060608486031215612f4857600080fd5b6000612f5686828701612c17565b935050602084013567ffffffffffffffff811115612f7357600080fd5b612f7f86828701612d28565b925050604084013567ffffffffffffffff811115612f9c57600080fd5b612fa886828701612c95565b9150509250925092565b60008060408385031215612fc557600080fd5b6000612fd385828601612c17565b9250506020612fe485828601612d9e565b9150509250929050565b60006020828403121561300057600080fd5b600061300e84828501612cd4565b91505092915050565b60006020828403121561302957600080fd5b600061303784828501612ce9565b91505092915050565b60006020828403121561305257600080fd5b600061306084828501612d9e565b91505092915050565b60008060006060848603121561307e57600080fd5b600061308c86828701612d9e565b935050602084013567ffffffffffffffff8111156130a957600080fd5b6130b586828701612c6b565b925050604084013567ffffffffffffffff8111156130d257600080fd5b6130de86828701612c41565b9150509250925092565b600080604083850312156130fb57600080fd5b600061310985828601612d9e565b925050602061311a85828601612d9e565b9150509250929050565b600061313083836135e4565b60408301905092915050565b61314581613d12565b82525050565b61315481613d12565b82525050565b61316381613d00565b82525050565b600061317482613bd9565b61317e8185613c07565b935061318983613bc9565b8060005b838110156131ba5781516131a18882613124565b97506131ac83613bfa565b92505060018101905061318d565b5085935050505092915050565b6131d081613d24565b82525050565b60006131e182613be4565b6131eb8185613c18565b93506131fb818560208601613dad565b61320481613f79565b840191505092915050565b600061321a82613bef565b6132248185613c29565b9350613234818560208601613dad565b61323d81613f79565b840191505092915050565b600061325382613bef565b61325d8185613c3a565b935061326d818560208601613dad565b80840191505092915050565b6000613286602b83613c29565b915061329182613f8a565b604082019050919050565b60006132a9603283613c29565b91506132b482613fd9565b604082019050919050565b60006132cc602683613c29565b91506132d782614028565b604082019050919050565b60006132ef601c83613c29565b91506132fa82614077565b602082019050919050565b6000613312602483613c29565b915061331d826140a0565b604082019050919050565b6000613335601983613c29565b9150613340826140ef565b602082019050919050565b6000613358602d83613c29565b915061336382614118565b604082019050919050565b600061337b602383613c29565b915061338682614167565b604082019050919050565b600061339e602c83613c29565b91506133a9826141b6565b604082019050919050565b60006133c1603883613c29565b91506133cc82614205565b604082019050919050565b60006133e4602a83613c29565b91506133ef82614254565b604082019050919050565b6000613407602983613c29565b9150613412826142a3565b604082019050919050565b600061342a602883613c29565b9150613435826142f2565b604082019050919050565b600061344d602e83613c29565b915061345882614341565b604082019050919050565b6000613470602083613c29565b915061347b82614390565b602082019050919050565b6000613493603183613c29565b915061349e826143b9565b604082019050919050565b60006134b6602c83613c29565b91506134c182614408565b604082019050919050565b60006134d9601783613c29565b91506134e482614457565b602082019050919050565b60006134fc602083613c29565b915061350782614480565b602082019050919050565b600061351f602983613c29565b915061352a826144a9565b604082019050919050565b6000613542602f83613c29565b915061354d826144f8565b604082019050919050565b6000613565602183613c29565b915061357082614547565b604082019050919050565b6000613588603183613c29565b915061359382614596565b604082019050919050565b60006135ab602c83613c29565b91506135b6826145e5565b604082019050919050565b60006135ce601b83613c29565b91506135d982614634565b602082019050919050565b6040820160008201516135fa600085018261313c565b50602082015161360d6020850182613622565b50505050565b61361c81613d7c565b82525050565b61362b81613d86565b82525050565b61363a81613d86565b82525050565b600061364c8285613248565b91506136588284613248565b91508190509392505050565b6000602082019050613679600083018461315a565b92915050565b6000604082019050613694600083018561314b565b6136a16020830184613631565b9392505050565b60006080820190506136bd600083018761315a565b6136ca602083018661315a565b6136d76040830185613613565b81810360608301526136e981846131d6565b905095945050505050565b6000602082019050818103600083015261370e8184613169565b905092915050565b600060208201905061372b60008301846131c7565b92915050565b6000602082019050818103600083015261374b818461320f565b905092915050565b6000602082019050818103600083015261376c81613279565b9050919050565b6000602082019050818103600083015261378c8161329c565b9050919050565b600060208201905081810360008301526137ac816132bf565b9050919050565b600060208201905081810360008301526137cc816132e2565b9050919050565b600060208201905081810360008301526137ec81613305565b9050919050565b6000602082019050818103600083015261380c81613328565b9050919050565b6000602082019050818103600083015261382c8161334b565b9050919050565b6000602082019050818103600083015261384c8161336e565b9050919050565b6000602082019050818103600083015261386c81613391565b9050919050565b6000602082019050818103600083015261388c816133b4565b9050919050565b600060208201905081810360008301526138ac816133d7565b9050919050565b600060208201905081810360008301526138cc816133fa565b9050919050565b600060208201905081810360008301526138ec8161341d565b9050919050565b6000602082019050818103600083015261390c81613440565b9050919050565b6000602082019050818103600083015261392c81613463565b9050919050565b6000602082019050818103600083015261394c81613486565b9050919050565b6000602082019050818103600083015261396c816134a9565b9050919050565b6000602082019050818103600083015261398c816134cc565b9050919050565b600060208201905081810360008301526139ac816134ef565b9050919050565b600060208201905081810360008301526139cc81613512565b9050919050565b600060208201905081810360008301526139ec81613535565b9050919050565b60006020820190508181036000830152613a0c81613558565b9050919050565b60006020820190508181036000830152613a2c8161357b565b9050919050565b60006020820190508181036000830152613a4c8161359e565b9050919050565b60006020820190508181036000830152613a6c816135c1565b9050919050565b6000602082019050613a886000830184613613565b92915050565b6000604082019050613aa36000830185613613565b8181036020830152613ab58184613169565b90509392505050565b6000613ac8613ad9565b9050613ad48282613e12565b919050565b6000604051905090565b600067ffffffffffffffff821115613afe57613afd613f4a565b5b602082029050602081019050919050565b600067ffffffffffffffff821115613b2a57613b29613f4a565b5b602082029050602081019050919050565b600067ffffffffffffffff821115613b5657613b55613f4a565b5b602082029050602081019050919050565b600067ffffffffffffffff821115613b8257613b81613f4a565b5b613b8b82613f79565b9050602081019050919050565b600067ffffffffffffffff821115613bb357613bb2613f4a565b5b613bbc82613f79565b9050602081019050919050565b6000819050602082019050919050565b600081519050919050565b600081519050919050565b600081519050919050565b6000602082019050919050565b600082825260208201905092915050565b600082825260208201905092915050565b600082825260208201905092915050565b600081905092915050565b6000613c5082613d7c565b9150613c5b83613d7c565b9250827fffffffffffffffffffffffffffffffffffffffffffffffffffffffffffffffff03821115613c9057613c8f613ebd565b5b828201905092915050565b6000613ca682613d7c565b9150613cb183613d7c565b925082613cc157613cc0613eec565b5b828204905092915050565b6000613cd782613d7c565b9150613ce283613d7c565b925082821015613cf557613cf4613ebd565b5b828203905092915050565b6000613d0b82613d5c565b9050919050565b6000613d1d82613d5c565b9050919050565b60008115159050919050565b60007fffffffff0000000000000000000000000000000000000000000000000000000082169050919050565b600073ffffffffffffffffffffffffffffffffffffffff82169050919050565b6000819050919050565b60006bffffffffffffffffffffffff82169050919050565b82818337600083830152505050565b60005b83811015613dcb578082015181840152602081019050613db0565b83811115613dda576000848401525b50505050565b60006002820490506001821680613df857607f821691505b60208210811415613e0c57613e0b613f1b565b5b50919050565b613e1b82613f79565b810181811067ffffffffffffffff82111715613e3a57613e39613f4a565b5b80604052505050565b6000613e4e82613d7c565b91507fffffffffffffffffffffffffffffffffffffffffffffffffffffffffffffffff821415613e8157613e80613ebd565b5b600182019050919050565b6000613e9782613d7c565b9150613ea283613d7c565b925082613eb257613eb1613eec565b5b828206905092915050565b7f4e487b7100000000000000000000000000000000000000000000000000000000600052601160045260246000fd5b7f4e487b7100000000000000000000000000000000000000000000000000000000600052601260045260246000fd5b7f4e487b7100000000000000000000000000000000000000000000000000000000600052602260045260246000fd5b7f4e487b7100000000000000000000000000000000000000000000000000000000600052604160045260246000fd5b6000601f19601f8301169050919050565b7f455243373231456e756d657261626c653a206f776e657220696e646578206f7560008201527f74206f6620626f756e6473000000000000000000000000000000000000000000602082015250565b7f4552433732313a207472616e7366657220746f206e6f6e20455243373231526560008201527f63656976657220696d706c656d656e7465720000000000000000000000000000602082015250565b7f4f776e61626c653a206e6577206f776e657220697320746865207a65726f206160008201527f6464726573730000000000000000000000000000000000000000000000000000602082015250565b7f4552433732313a20746f6b656e20616c7265616479206d696e74656400000000600082015250565b7f4552433732313a207472616e7366657220746f20746865207a65726f2061646460008201527f7265737300000000000000000000000000000000000000000000000000000000602082015250565b7f4552433732313a20617070726f766520746f2063616c6c657200000000000000600082015250565b7f757269206172726179206c656e6774682073686f756c6420626520657175616c60008201527f20746f205f746f74616c4e465400000000000000000000000000000000000000602082015250565b7f526f79616c747920726563697069656e742073686f756c64206265207072657360008201527f656e740000000000000000000000000000000000000000000000000000000000602082015250565b7f4552433732313a206f70657261746f7220717565727920666f72206e6f6e657860008201527f697374656e7420746f6b656e0000000000000000000000000000000000000000602082015250565b7f4552433732313a20617070726f76652063616c6c6572206973206e6f74206f7760008201527f6e6572206e6f7220617070726f76656420666f7220616c6c0000000000000000602082015250565b7f4552433732313a2062616c616e636520717565727920666f7220746865207a6560008201527f726f206164647265737300000000000000000000000000000000000000000000602082015250565b7f4552433732313a206f776e657220717565727920666f72206e6f6e657869737460008201527f656e7420746f6b656e0000000000000000000000000000000000000000000000602082015250565b7f4d696e74696e67206d6f7265207468616e203135204e66747320617265206e6f60008201527f7420616c6c6f7765000000000000000000000000000000000000000000000000602082015250565b7f45524337323155524953746f726167653a2055524920736574206f66206e6f6e60008201527f6578697374656e7420746f6b656e000000000000000000000000000000000000602082015250565b7f4552433732313a206d696e7420746f20746865207a65726f2061646472657373600082015250565b7f45524337323155524953746f726167653a2055524920717565727920666f722060008201527f6e6f6e6578697374656e7420746f6b656e000000000000000000000000000000602082015250565b7f4552433732313a20617070726f76656420717565727920666f72206e6f6e657860008201527f697374656e7420746f6b656e0000000000000000000000000000000000000000602082015250565b7f53756d206f6620526f79616c74696573203e2031303025000000000000000000600082015250565b7f4f776e61626c653a2063616c6c6572206973206e6f7420746865206f776e6572600082015250565b7f4552433732313a207472616e73666572206f6620746f6b656e2074686174206960008201527f73206e6f74206f776e0000000000000000000000000000000000000000000000602082015250565b7f4552433732314d657461646174613a2055524920717565727920666f72206e6f60008201527f6e6578697374656e7420746f6b656e0000000000000000000000000000000000602082015250565b7f4552433732313a20617070726f76616c20746f2063757272656e74206f776e6560008201527f7200000000000000000000000000000000000000000000000000000000000000602082015250565b7f4552433732313a207472616e736665722063616c6c6572206973206e6f74206f60008201527f776e6572206e6f7220617070726f766564000000000000000000000000000000602082015250565b7f455243373231456e756d657261626c653a20676c6f62616c20696e646578206f60008201527f7574206f6620626f756e64730000000000000000000000000000000000000000602082015250565b7f526f79616c74792076616c75652073686f756c64206265203e20300000000000600082015250565b61466681613d00565b811461467157600080fd5b50565b61467d81613d12565b811461468857600080fd5b50565b61469481613d24565b811461469f57600080fd5b50565b6146ab81613d30565b81146146b657600080fd5b50565b6146c281613d7c565b81146146cd57600080fd5b50565b6146d981613d86565b81146146e457600080fd5b5056fea2646970667358221220de1b559588df66fbcd64ca533f7ef10c7bf3525e3eb49a4edda49ee9b6a16a6964736f6c63430008030033",
  "immutableReferences": {},
  "source": "// SPDX-License-Identifier: MIT\r\npragma solidity ^0.8.2;\r\n\r\nimport \"@openzeppelin/contracts/token/ERC721/ERC721.sol\";\r\nimport \"@openzeppelin/contracts/token/ERC721/extensions/ERC721Enumerable.sol\";\r\nimport \"@openzeppelin/contracts/token/ERC721/extensions/ERC721URIStorage.sol\";\r\nimport \"@openzeppelin/contracts/access/Ownable.sol\";\r\nimport \"@openzeppelin/contracts/utils/Counters.sol\";\r\nimport \"./Libraries/LibShare.sol\";\r\n\r\ncontract PNDC_ERC721 is ERC721, ERC721Enumerable, ERC721URIStorage, Ownable {\r\n    event RoyaltiesSetForTokenId(\r\n        uint256 tokenId,\r\n        LibShare.Share[] royalties\r\n    );\r\n\r\n    using Counters for Counters.Counter;\r\n    Counters.Counter private _tokenIdCounter;\r\n\r\n    mapping(uint256 => LibShare.Share[]) public royaltiesByTokenId;\r\n\r\n    constructor(string memory name, string memory symbol)\r\n        ERC721(name, symbol)\r\n    {}\r\n\r\n    function safeMint(\r\n        address to,\r\n        string memory uri,\r\n        LibShare.Share[] memory royalties\r\n    ) public {\r\n        uint256 tokenId = _tokenIdCounter.current();\r\n        _tokenIdCounter.increment();\r\n        _safeMint(to, tokenId);\r\n        _setTokenURI(tokenId, uri);\r\n        _setRoyaltiesByTokenId(tokenId, royalties);\r\n    }\r\n\r\n    function batchMint(\r\n        uint256 _totalNft,\r\n        string[] memory _uri,\r\n        LibShare.Share[][] memory royaltiesSet\r\n    ) external {\r\n        require(_totalNft <= 15, \"Minting more than 15 Nfts are not allowe\");\r\n        require(\r\n            _totalNft == _uri.length,\r\n            \"uri array length should be equal to _totalNFT\"\r\n        );\r\n        for (uint256 i = 0; i < _totalNft; i++) {\r\n            safeMint(msg.sender, _uri[i], royaltiesSet[i]);\r\n        }\r\n    }\r\n\r\n    function _setRoyaltiesByTokenId(\r\n        uint256 _tokenId,\r\n        LibShare.Share[] memory royalties\r\n    ) internal {\r\n        delete royaltiesByTokenId[_tokenId];\r\n        uint256 sumRoyalties = 0;\r\n        for (uint256 i = 0; i < royalties.length; i++) {\r\n            require(\r\n                royalties[i].account != address(0x0),\r\n                \"Royalty recipient should be present\"\r\n            );\r\n            require(royalties[i].value != 0, \"Royalty value should be > 0\");\r\n            royaltiesByTokenId[_tokenId].push(royalties[i]);\r\n            sumRoyalties += royalties[i].value;\r\n        }\r\n        require(sumRoyalties < 10000, \"Sum of Royalties > 100%\");\r\n\r\n        emit RoyaltiesSetForTokenId(_tokenId, royalties);\r\n    }\r\n\r\n    function getRoyalties(uint256 _tokenId)\r\n        external\r\n        view\r\n        returns (LibShare.Share[] memory)\r\n    {\r\n        return royaltiesByTokenId[_tokenId];\r\n    }\r\n\r\n    // The following functions are overrides required by Solidity.\r\n\r\n    function _beforeTokenTransfer(\r\n        address from,\r\n        address to,\r\n        uint256 tokenId\r\n    ) internal override(ERC721, ERC721Enumerable) {\r\n        super._beforeTokenTransfer(from, to, tokenId);\r\n    }\r\n\r\n    function _burn(uint256 tokenId)\r\n        internal\r\n        override(ERC721, ERC721URIStorage)\r\n    {\r\n        super._burn(tokenId);\r\n    }\r\n\r\n    function tokenURI(uint256 tokenId)\r\n        public\r\n        view\r\n        override(ERC721, ERC721URIStorage)\r\n        returns (string memory)\r\n    {\r\n        return super.tokenURI(tokenId);\r\n    }\r\n\r\n    function supportsInterface(bytes4 interfaceId)\r\n        public\r\n        view\r\n        override(ERC721, ERC721Enumerable)\r\n        returns (bool)\r\n    {\r\n        return super.supportsInterface(interfaceId);\r\n    }\r\n}",
  "sourcePath": "D:\\Blockchain\\Liquidity\\new\\Modular-contract\\contracts\\PNDC_ERC721.sol",
  "compiler": {
    "name": "solc",
    "version": "0.8.3+commit.8d00100c.Emscripten.clang"
  },
  "schemaVersion": "3.4.3",
  "updatedAt": "2021-12-22T02:48:44.976Z",
  "networkType": "ethereum",
  "devdoc": {
    "kind": "dev",
    "methods": {
      "approve(address,uint256)": {
        "details": "See {IERC721-approve}."
      },
      "balanceOf(address)": {
        "details": "See {IERC721-balanceOf}."
      },
      "getApproved(uint256)": {
        "details": "See {IERC721-getApproved}."
      },
      "isApprovedForAll(address,address)": {
        "details": "See {IERC721-isApprovedForAll}."
      },
      "name()": {
        "details": "See {IERC721Metadata-name}."
      },
      "owner()": {
        "details": "Returns the address of the current owner."
      },
      "ownerOf(uint256)": {
        "details": "See {IERC721-ownerOf}."
      },
      "renounceOwnership()": {
        "details": "Leaves the contract without owner. It will not be possible to call `onlyOwner` functions anymore. Can only be called by the current owner. NOTE: Renouncing ownership will leave the contract without an owner, thereby removing any functionality that is only available to the owner."
      },
      "safeTransferFrom(address,address,uint256)": {
        "details": "See {IERC721-safeTransferFrom}."
      },
      "safeTransferFrom(address,address,uint256,bytes)": {
        "details": "See {IERC721-safeTransferFrom}."
      },
      "setApprovalForAll(address,bool)": {
        "details": "See {IERC721-setApprovalForAll}."
      },
      "symbol()": {
        "details": "See {IERC721Metadata-symbol}."
      },
      "tokenByIndex(uint256)": {
        "details": "See {IERC721Enumerable-tokenByIndex}."
      },
      "tokenOfOwnerByIndex(address,uint256)": {
        "details": "See {IERC721Enumerable-tokenOfOwnerByIndex}."
      },
      "totalSupply()": {
        "details": "See {IERC721Enumerable-totalSupply}."
      },
      "transferFrom(address,address,uint256)": {
        "details": "See {IERC721-transferFrom}."
      },
      "transferOwnership(address)": {
        "details": "Transfers ownership of the contract to a new account (`newOwner`). Can only be called by the current owner."
      }
    },
    "version": 1
  },
  "userdoc": {
    "kind": "user",
    "methods": {},
    "version": 1
  }
}