{
  "contractName": "TokenERC721",
  "abi": [
    {
      "inputs": [
        {
          "internalType": "string",
          "name": "name",
          "type": "string"
        },
        {
          "internalType": "string",
          "name": "symbol",
          "type": "string"
        }
      ],
      "stateMutability": "nonpayable",
      "type": "constructor"
    },
    {
      "anonymous": false,
      "inputs": [
        {
          "indexed": true,
          "internalType": "address",
          "name": "owner",
          "type": "address"
        },
        {
          "indexed": true,
          "internalType": "address",
          "name": "approved",
          "type": "address"
        },
        {
          "indexed": true,
          "internalType": "uint256",
          "name": "tokenId",
          "type": "uint256"
        }
      ],
      "name": "Approval",
      "type": "event"
    },
    {
      "anonymous": false,
      "inputs": [
        {
          "indexed": true,
          "internalType": "address",
          "name": "owner",
          "type": "address"
        },
        {
          "indexed": true,
          "internalType": "address",
          "name": "operator",
          "type": "address"
        },
        {
          "indexed": false,
          "internalType": "bool",
          "name": "approved",
          "type": "bool"
        }
      ],
      "name": "ApprovalForAll",
      "type": "event"
    },
    {
      "anonymous": false,
      "inputs": [
        {
          "indexed": true,
          "internalType": "address",
          "name": "previousOwner",
          "type": "address"
        },
        {
          "indexed": true,
          "internalType": "address",
          "name": "newOwner",
          "type": "address"
        }
      ],
      "name": "OwnershipTransferred",
      "type": "event"
    },
    {
      "anonymous": false,
      "inputs": [
        {
          "components": [
            {
              "internalType": "address payable",
              "name": "account",
              "type": "address"
            },
            {
              "internalType": "uint96",
              "name": "value",
              "type": "uint96"
            }
          ],
          "indexed": false,
          "internalType": "struct LibShare.Share[]",
          "name": "royalties",
          "type": "tuple[]"
        }
      ],
      "name": "RoyaltiesSetForCollection",
      "type": "event"
    },
    {
      "anonymous": false,
      "inputs": [
        {
          "indexed": false,
          "internalType": "uint256",
          "name": "tokenId",
          "type": "uint256"
        },
        {
          "components": [
            {
              "internalType": "address payable",
              "name": "account",
              "type": "address"
            },
            {
              "internalType": "uint96",
              "name": "value",
              "type": "uint96"
            }
          ],
          "indexed": false,
          "internalType": "struct LibShare.Share[]",
          "name": "royalties",
          "type": "tuple[]"
        }
      ],
      "name": "RoyaltiesSetForTokenId",
      "type": "event"
    },
    {
      "anonymous": false,
      "inputs": [
        {
          "indexed": true,
          "internalType": "address",
          "name": "from",
          "type": "address"
        },
        {
          "indexed": true,
          "internalType": "address",
          "name": "to",
          "type": "address"
        },
        {
          "indexed": true,
          "internalType": "uint256",
          "name": "tokenId",
          "type": "uint256"
        }
      ],
      "name": "Transfer",
      "type": "event"
    },
    {
      "inputs": [
        {
          "internalType": "address",
          "name": "to",
          "type": "address"
        },
        {
          "internalType": "uint256",
          "name": "tokenId",
          "type": "uint256"
        }
      ],
      "name": "approve",
      "outputs": [],
      "stateMutability": "nonpayable",
      "type": "function"
    },
    {
      "inputs": [
        {
          "internalType": "address",
          "name": "owner",
          "type": "address"
        }
      ],
      "name": "balanceOf",
      "outputs": [
        {
          "internalType": "uint256",
          "name": "",
          "type": "uint256"
        }
      ],
      "stateMutability": "view",
      "type": "function"
    },
    {
      "inputs": [
        {
          "internalType": "uint256",
          "name": "",
          "type": "uint256"
        }
      ],
      "name": "collectionRoyalties",
      "outputs": [
        {
          "internalType": "address payable",
          "name": "account",
          "type": "address"
        },
        {
          "internalType": "uint96",
          "name": "value",
          "type": "uint96"
        }
      ],
      "stateMutability": "view",
      "type": "function"
    },
    {
      "inputs": [
        {
          "internalType": "uint256",
          "name": "tokenId",
          "type": "uint256"
        }
      ],
      "name": "getApproved",
      "outputs": [
        {
          "internalType": "address",
          "name": "",
          "type": "address"
        }
      ],
      "stateMutability": "view",
      "type": "function"
    },
    {
      "inputs": [
        {
          "internalType": "address",
          "name": "owner",
          "type": "address"
        },
        {
          "internalType": "address",
          "name": "operator",
          "type": "address"
        }
      ],
      "name": "isApprovedForAll",
      "outputs": [
        {
          "internalType": "bool",
          "name": "",
          "type": "bool"
        }
      ],
      "stateMutability": "view",
      "type": "function"
    },
    {
      "inputs": [],
      "name": "name",
      "outputs": [
        {
          "internalType": "string",
          "name": "",
          "type": "string"
        }
      ],
      "stateMutability": "view",
      "type": "function"
    },
    {
      "inputs": [],
      "name": "owner",
      "outputs": [
        {
          "internalType": "address",
          "name": "",
          "type": "address"
        }
      ],
      "stateMutability": "view",
      "type": "function"
    },
    {
      "inputs": [
        {
          "internalType": "uint256",
          "name": "tokenId",
          "type": "uint256"
        }
      ],
      "name": "ownerOf",
      "outputs": [
        {
          "internalType": "address",
          "name": "",
          "type": "address"
        }
      ],
      "stateMutability": "view",
      "type": "function"
    },
    {
      "inputs": [],
      "name": "renounceOwnership",
      "outputs": [],
      "stateMutability": "nonpayable",
      "type": "function"
    },
    {
      "inputs": [
        {
          "internalType": "uint256",
          "name": "",
          "type": "uint256"
        }
      ],
      "name": "royaltiesByTokenId",
      "outputs": [
        {
          "internalType": "bool",
          "name": "set",
          "type": "bool"
        }
      ],
      "stateMutability": "view",
      "type": "function"
    },
    {
      "inputs": [
        {
          "internalType": "address",
          "name": "from",
          "type": "address"
        },
        {
          "internalType": "address",
          "name": "to",
          "type": "address"
        },
        {
          "internalType": "uint256",
          "name": "tokenId",
          "type": "uint256"
        }
      ],
      "name": "safeTransferFrom",
      "outputs": [],
      "stateMutability": "nonpayable",
      "type": "function"
    },
    {
      "inputs": [
        {
          "internalType": "address",
          "name": "from",
          "type": "address"
        },
        {
          "internalType": "address",
          "name": "to",
          "type": "address"
        },
        {
          "internalType": "uint256",
          "name": "tokenId",
          "type": "uint256"
        },
        {
          "internalType": "bytes",
          "name": "_data",
          "type": "bytes"
        }
      ],
      "name": "safeTransferFrom",
      "outputs": [],
      "stateMutability": "nonpayable",
      "type": "function"
    },
    {
      "inputs": [
        {
          "internalType": "address",
          "name": "operator",
          "type": "address"
        },
        {
          "internalType": "bool",
          "name": "approved",
          "type": "bool"
        }
      ],
      "name": "setApprovalForAll",
      "outputs": [],
      "stateMutability": "nonpayable",
      "type": "function"
    },
    {
      "inputs": [],
      "name": "symbol",
      "outputs": [
        {
          "internalType": "string",
          "name": "",
          "type": "string"
        }
      ],
      "stateMutability": "view",
      "type": "function"
    },
    {
      "inputs": [
        {
          "internalType": "uint256",
          "name": "index",
          "type": "uint256"
        }
      ],
      "name": "tokenByIndex",
      "outputs": [
        {
          "internalType": "uint256",
          "name": "",
          "type": "uint256"
        }
      ],
      "stateMutability": "view",
      "type": "function"
    },
    {
      "inputs": [
        {
          "internalType": "address",
          "name": "owner",
          "type": "address"
        },
        {
          "internalType": "uint256",
          "name": "index",
          "type": "uint256"
        }
      ],
      "name": "tokenOfOwnerByIndex",
      "outputs": [
        {
          "internalType": "uint256",
          "name": "",
          "type": "uint256"
        }
      ],
      "stateMutability": "view",
      "type": "function"
    },
    {
      "inputs": [],
      "name": "totalSupply",
      "outputs": [
        {
          "internalType": "uint256",
          "name": "",
          "type": "uint256"
        }
      ],
      "stateMutability": "view",
      "type": "function"
    },
    {
      "inputs": [
        {
          "internalType": "address",
          "name": "from",
          "type": "address"
        },
        {
          "internalType": "address",
          "name": "to",
          "type": "address"
        },
        {
          "internalType": "uint256",
          "name": "tokenId",
          "type": "uint256"
        }
      ],
      "name": "transferFrom",
      "outputs": [],
      "stateMutability": "nonpayable",
      "type": "function"
    },
    {
      "inputs": [
        {
          "internalType": "address",
          "name": "newOwner",
          "type": "address"
        }
      ],
      "name": "transferOwnership",
      "outputs": [],
      "stateMutability": "nonpayable",
      "type": "function"
    },
    {
      "inputs": [
        {
          "internalType": "address",
          "name": "to",
          "type": "address"
        },
        {
          "internalType": "string",
          "name": "uri",
          "type": "string"
        },
        {
          "components": [
            {
              "internalType": "bool",
              "name": "set",
              "type": "bool"
            },
            {
              "components": [
                {
                  "internalType": "address payable",
                  "name": "account",
                  "type": "address"
                },
                {
                  "internalType": "uint96",
                  "name": "value",
                  "type": "uint96"
                }
              ],
              "internalType": "struct LibShare.Share[]",
              "name": "royalties",
              "type": "tuple[]"
            }
          ],
          "internalType": "struct TokenERC721.RoyaltiesSet",
          "name": "royaltiesSet",
          "type": "tuple"
        }
      ],
      "name": "safeMint",
      "outputs": [],
      "stateMutability": "nonpayable",
      "type": "function"
    },
    {
      "inputs": [
        {
          "internalType": "uint256",
          "name": "_totalNft",
          "type": "uint256"
        },
        {
          "internalType": "string[]",
          "name": "_uri",
          "type": "string[]"
        },
        {
          "components": [
            {
              "internalType": "bool",
              "name": "set",
              "type": "bool"
            },
            {
              "components": [
                {
                  "internalType": "address payable",
                  "name": "account",
                  "type": "address"
                },
                {
                  "internalType": "uint96",
                  "name": "value",
                  "type": "uint96"
                }
              ],
              "internalType": "struct LibShare.Share[]",
              "name": "royalties",
              "type": "tuple[]"
            }
          ],
          "internalType": "struct TokenERC721.RoyaltiesSet",
          "name": "royaltiesSet",
          "type": "tuple"
        }
      ],
      "name": "batchMint",
      "outputs": [],
      "stateMutability": "nonpayable",
      "type": "function"
    },
    {
      "inputs": [
        {
          "internalType": "uint256",
          "name": "_tokenId",
          "type": "uint256"
        },
        {
          "components": [
            {
              "internalType": "bool",
              "name": "set",
              "type": "bool"
            },
            {
              "components": [
                {
                  "internalType": "address payable",
                  "name": "account",
                  "type": "address"
                },
                {
                  "internalType": "uint96",
                  "name": "value",
                  "type": "uint96"
                }
              ],
              "internalType": "struct LibShare.Share[]",
              "name": "royalties",
              "type": "tuple[]"
            }
          ],
          "internalType": "struct TokenERC721.RoyaltiesSet",
          "name": "royaltiesSet",
          "type": "tuple"
        }
      ],
      "name": "setRoyaltiesByTokenId",
      "outputs": [],
      "stateMutability": "nonpayable",
      "type": "function"
    },
    {
      "inputs": [
        {
          "components": [
            {
              "internalType": "address payable",
              "name": "account",
              "type": "address"
            },
            {
              "internalType": "uint96",
              "name": "value",
              "type": "uint96"
            }
          ],
          "internalType": "struct LibShare.Share[]",
          "name": "royalties",
          "type": "tuple[]"
        }
      ],
      "name": "setRoyaltiesForCollection",
      "outputs": [],
      "stateMutability": "nonpayable",
      "type": "function"
    },
    {
      "inputs": [
        {
          "internalType": "uint256",
          "name": "_tokenId",
          "type": "uint256"
        }
      ],
      "name": "getRoyalties",
      "outputs": [
        {
          "components": [
            {
              "internalType": "address payable",
              "name": "account",
              "type": "address"
            },
            {
              "internalType": "uint96",
              "name": "value",
              "type": "uint96"
            }
          ],
          "internalType": "struct LibShare.Share[]",
          "name": "",
          "type": "tuple[]"
        }
      ],
      "stateMutability": "view",
      "type": "function"
    },
    {
      "inputs": [
        {
          "internalType": "uint256",
          "name": "tokenId",
          "type": "uint256"
        }
      ],
      "name": "tokenURI",
      "outputs": [
        {
          "internalType": "string",
          "name": "",
          "type": "string"
        }
      ],
      "stateMutability": "view",
      "type": "function"
    },
    {
      "inputs": [
        {
          "internalType": "bytes4",
          "name": "interfaceId",
          "type": "bytes4"
        }
      ],
      "name": "supportsInterface",
      "outputs": [
        {
          "internalType": "bool",
          "name": "",
          "type": "bool"
        }
      ],
      "stateMutability": "view",
      "type": "function"
    }
  ],
  "bytecode": "0x60806040523480156200001157600080fd5b5060405162004f6f38038062004f6f833981810160405281019062000037919062000285565b818181600090805190602001906200005192919062000163565b5080600190805190602001906200006a92919062000163565b5050506200008d620000816200009560201b60201c565b6200009d60201b60201c565b505062000468565b600033905090565b6000600b60009054906101000a900473ffffffffffffffffffffffffffffffffffffffff16905081600b60006101000a81548173ffffffffffffffffffffffffffffffffffffffff021916908373ffffffffffffffffffffffffffffffffffffffff1602179055508173ffffffffffffffffffffffffffffffffffffffff168173ffffffffffffffffffffffffffffffffffffffff167f8be0079c531659141344cd1fd0a4f28419497f9722a3daafe3b4186f6b6457e060405160405180910390a35050565b82805462000171906200038d565b90600052602060002090601f016020900481019282620001955760008555620001e1565b82601f10620001b057805160ff1916838001178555620001e1565b82800160010185558215620001e1579182015b82811115620001e0578251825591602001919060010190620001c3565b5b509050620001f09190620001f4565b5090565b5b808211156200020f576000816000905550600101620001f5565b5090565b60006200022a620002248462000321565b620002f8565b9050828152602081018484840111156200024357600080fd5b6200025084828562000357565b509392505050565b600082601f8301126200026a57600080fd5b81516200027c84826020860162000213565b91505092915050565b600080604083850312156200029957600080fd5b600083015167ffffffffffffffff811115620002b457600080fd5b620002c28582860162000258565b925050602083015167ffffffffffffffff811115620002e057600080fd5b620002ee8582860162000258565b9150509250929050565b60006200030462000317565b9050620003128282620003c3565b919050565b6000604051905090565b600067ffffffffffffffff8211156200033f576200033e62000428565b5b6200034a8262000457565b9050602081019050919050565b60005b83811015620003775780820151818401526020810190506200035a565b8381111562000387576000848401525b50505050565b60006002820490506001821680620003a657607f821691505b60208210811415620003bd57620003bc620003f9565b5b50919050565b620003ce8262000457565b810181811067ffffffffffffffff82111715620003f057620003ef62000428565b5b80604052505050565b7f4e487b7100000000000000000000000000000000000000000000000000000000600052602260045260246000fd5b7f4e487b7100000000000000000000000000000000000000000000000000000000600052604160045260246000fd5b6000601f19601f8301169050919050565b614af780620004786000396000f3fe608060405234801561001057600080fd5b506004361061018e5760003560e01c806375e34a14116100de578063abf8350f11610097578063c7829ab811610071578063c7829ab8146104a6578063c87b56dd146104c2578063e985e9c5146104f2578063f2fde38b146105225761018e565b8063abf8350f1461043e578063b88d4fde1461045a578063bb3bafd6146104765761018e565b806375e34a141461037e5780637ef0fc3b1461039a5780638998c1b0146103ca5780638da5cb5b146103e657806395d89b4114610404578063a22cb465146104225761018e565b80632f745c591161014b5780636352211e116101255780636352211e146102e35780636e047e801461031357806370a0823114610344578063715018a6146103745761018e565b80632f745c591461026757806342842e0e146102975780634f6ccce7146102b35761018e565b806301ffc9a71461019357806306fdde03146101c3578063081812fc146101e1578063095ea7b31461021157806318160ddd1461022d57806323b872dd1461024b575b600080fd5b6101ad60048036038101906101a891906133dc565b61053e565b6040516101ba9190613b1c565b60405180910390f35b6101cb610550565b6040516101d89190613b37565b60405180910390f35b6101fb60048036038101906101f6919061342e565b6105e2565b6040516102089190613a6a565b60405180910390f35b61022b6004803603810190610226919061335f565b610667565b005b61023561077f565b6040516102429190613e79565b60405180910390f35b610265600480360381019061026091906131da565b61078c565b005b610281600480360381019061027c919061335f565b6107ec565b60405161028e9190613e79565b60405180910390f35b6102b160048036038101906102ac91906131da565b610891565b005b6102cd60048036038101906102c8919061342e565b6108b1565b6040516102da9190613e79565b60405180910390f35b6102fd60048036038101906102f8919061342e565b610948565b60405161030a9190613a6a565b60405180910390f35b61032d6004803603810190610328919061342e565b6109fa565b60405161033b929190613a85565b60405180910390f35b61035e60048036038101906103599190613175565b610a62565b60405161036b9190613e79565b60405180910390f35b61037c610b1a565b005b610398600480360381019061039391906132e0565b610ba2565b005b6103b460048036038101906103af919061342e565b610c5a565b6040516103c19190613b1c565b60405180910390f35b6103e460048036038101906103df91906134d6565b610c85565b005b6103ee610dd1565b6040516103fb9190613a6a565b60405180910390f35b61040c610dfb565b6040516104199190613b37565b60405180910390f35b61043c600480360381019061043791906132a4565b610e8d565b005b6104586004803603810190610453919061339b565b610ea3565b005b610474600480360381019061046f9190613229565b610f72565b005b610490600480360381019061048b919061342e565b610fd4565b60405161049d9190613afa565b60405180910390f35b6104c060048036038101906104bb9190613457565b6111f2565b005b6104dc60048036038101906104d7919061342e565b6112e8565b6040516104e99190613b37565b60405180910390f35b61050c6004803603810190610507919061319e565b6112fa565b6040516105199190613b1c565b60405180910390f35b61053c60048036038101906105379190613175565b61138e565b005b600061054982611486565b9050919050565b60606000805461055f906141ba565b80601f016020809104026020016040519081016040528092919081815260200182805461058b906141ba565b80156105d85780601f106105ad576101008083540402835291602001916105d8565b820191906000526020600020905b8154815290600101906020018083116105bb57829003601f168201915b5050505050905090565b60006105ed82611500565b61062c576040517f08c379a000000000000000000000000000000000000000000000000000000000815260040161062390613d59565b60405180910390fd5b6004600083815260200190815260200160002060009054906101000a900473ffffffffffffffffffffffffffffffffffffffff169050919050565b600061067282610948565b90508073ffffffffffffffffffffffffffffffffffffffff168373ffffffffffffffffffffffffffffffffffffffff1614156106e3576040517f08c379a00000000000000000000000000000000000000000000000000000000081526004016106da90613df9565b60405180910390fd5b8073ffffffffffffffffffffffffffffffffffffffff1661070261156c565b73ffffffffffffffffffffffffffffffffffffffff16148061073157506107308161072b61156c565b6112fa565b5b610770576040517f08c379a000000000000000000000000000000000000000000000000000000000815260040161076790613c79565b60405180910390fd5b61077a8383611574565b505050565b6000600880549050905090565b61079d61079761156c565b8261162d565b6107dc576040517f08c379a00000000000000000000000000000000000000000000000000000000081526004016107d390613e19565b60405180910390fd5b6107e783838361170b565b505050565b60006107f783610a62565b8210610838576040517f08c379a000000000000000000000000000000000000000000000000000000000815260040161082f90613b59565b60405180910390fd5b600660008473ffffffffffffffffffffffffffffffffffffffff1673ffffffffffffffffffffffffffffffffffffffff168152602001908152602001600020600083815260200190815260200160002054905092915050565b6108ac83838360405180602001604052806000815250610f72565b505050565b60006108bb61077f565b82106108fc576040517f08c379a00000000000000000000000000000000000000000000000000000000081526004016108f390613e39565b60405180910390fd5b60088281548110610936577f4e487b7100000000000000000000000000000000000000000000000000000000600052603260045260246000fd5b90600052602060002001549050919050565b6000806002600084815260200190815260200160002060009054906101000a900473ffffffffffffffffffffffffffffffffffffffff169050600073ffffffffffffffffffffffffffffffffffffffff168173ffffffffffffffffffffffffffffffffffffffff1614156109f1576040517f08c379a00000000000000000000000000000000000000000000000000000000081526004016109e890613cb9565b60405180910390fd5b80915050919050565b600d8181548110610a0a57600080fd5b906000526020600020016000915090508060000160009054906101000a900473ffffffffffffffffffffffffffffffffffffffff16908060000160149054906101000a90046bffffffffffffffffffffffff16905082565b60008073ffffffffffffffffffffffffffffffffffffffff168273ffffffffffffffffffffffffffffffffffffffff161415610ad3576040517f08c379a0000000000000000000000000000000000000000000000000000000008152600401610aca90613c99565b60405180910390fd5b600360008373ffffffffffffffffffffffffffffffffffffffff1673ffffffffffffffffffffffffffffffffffffffff168152602001908152602001600020549050919050565b610b2261156c565b73ffffffffffffffffffffffffffffffffffffffff16610b40610dd1565b73ffffffffffffffffffffffffffffffffffffffff1614610b96576040517f08c379a0000000000000000000000000000000000000000000000000000000008152600401610b8d90613d99565b60405180910390fd5b610ba06000611967565b565b610baa61156c565b73ffffffffffffffffffffffffffffffffffffffff16610bc8610dd1565b73ffffffffffffffffffffffffffffffffffffffff1614610c1e576040517f08c379a0000000000000000000000000000000000000000000000000000000008152600401610c1590613d99565b60405180910390fd5b6000610c2a600c611a2d565b9050610c36600c611a3b565b610c408482611a51565b610c4a8184611a6f565b610c548183610c85565b50505050565b600e6020528060005260406000206000915090508060000160009054906101000a900460ff16905081565b610c8d61156c565b73ffffffffffffffffffffffffffffffffffffffff16610cab610dd1565b73ffffffffffffffffffffffffffffffffffffffff1614610d01576040517f08c379a0000000000000000000000000000000000000000000000000000000008152600401610cf890613d99565b60405180910390fd5b600e6000838152602001908152602001600020600080820160006101000a81549060ff0219169055600182016000610d399190612d24565b50508060000151600e600084815260200190815260200160002060000160006101000a81548160ff021916908315150217905550610d90600e60008481526020019081526020016000206001018260200151611ae3565b7fe23425cf56a81561c420f592eb54f21107c562f26c8c78c4a20d26920d244e66828260200151604051610dc5929190613e94565b60405180910390a15050565b6000600b60009054906101000a900473ffffffffffffffffffffffffffffffffffffffff16905090565b606060018054610e0a906141ba565b80601f0160208091040260200160405190810160405280929190818152602001828054610e36906141ba565b8015610e835780601f10610e5857610100808354040283529160200191610e83565b820191906000526020600020905b815481529060010190602001808311610e6657829003601f168201915b5050505050905090565b610e9f610e9861156c565b8383611dde565b5050565b610eab61156c565b73ffffffffffffffffffffffffffffffffffffffff16610ec9610dd1565b73ffffffffffffffffffffffffffffffffffffffff1614610f1f576040517f08c379a0000000000000000000000000000000000000000000000000000000008152600401610f1690613d99565b60405180910390fd5b600d6000610f2d9190612d24565b610f38600d82611ae3565b7fae4b2c10bc3ab7517f2b27ccd08736b4e63a89655740c3da759bc35135e9d37781604051610f679190613afa565b60405180910390a150565b610f83610f7d61156c565b8361162d565b610fc2576040517f08c379a0000000000000000000000000000000000000000000000000000000008152600401610fb990613e19565b60405180910390fd5b610fce84848484611f4b565b50505050565b6060600e600083815260200190815260200160002060000160009054906101000a900460ff161561110257600e6000838152602001908152602001600020600101805480602002602001604051908101604052809291908181526020016000905b828210156110f7578382906000526020600020016040518060400160405290816000820160009054906101000a900473ffffffffffffffffffffffffffffffffffffffff1673ffffffffffffffffffffffffffffffffffffffff1673ffffffffffffffffffffffffffffffffffffffff1681526020016000820160149054906101000a90046bffffffffffffffffffffffff166bffffffffffffffffffffffff166bffffffffffffffffffffffff168152505081526020019060010190611035565b5050505090506111ed565b600d805480602002602001604051908101604052809291908181526020016000905b828210156111e6578382906000526020600020016040518060400160405290816000820160009054906101000a900473ffffffffffffffffffffffffffffffffffffffff1673ffffffffffffffffffffffffffffffffffffffff1673ffffffffffffffffffffffffffffffffffffffff1681526020016000820160149054906101000a90046bffffffffffffffffffffffff166bffffffffffffffffffffffff166bffffffffffffffffffffffff168152505081526020019060010190611124565b5050505090505b919050565b600f831115611236576040517f08c379a000000000000000000000000000000000000000000000000000000000815260040161122d90613cd9565b60405180910390fd5b81518314611279576040517f08c379a000000000000000000000000000000000000000000000000000000000815260040161127090613c19565b60405180910390fd5b60005b838110156112e2576112cf338483815181106112c1577f4e487b7100000000000000000000000000000000000000000000000000000000600052603260045260246000fd5b602002602001015184610ba2565b80806112da9061421d565b91505061127c565b50505050565b60606112f382611fa7565b9050919050565b6000600560008473ffffffffffffffffffffffffffffffffffffffff1673ffffffffffffffffffffffffffffffffffffffff16815260200190815260200160002060008373ffffffffffffffffffffffffffffffffffffffff1673ffffffffffffffffffffffffffffffffffffffff16815260200190815260200160002060009054906101000a900460ff16905092915050565b61139661156c565b73ffffffffffffffffffffffffffffffffffffffff166113b4610dd1565b73ffffffffffffffffffffffffffffffffffffffff161461140a576040517f08c379a000000000000000000000000000000000000000000000000000000000815260040161140190613d99565b60405180910390fd5b600073ffffffffffffffffffffffffffffffffffffffff168173ffffffffffffffffffffffffffffffffffffffff16141561147a576040517f08c379a000000000000000000000000000000000000000000000000000000000815260040161147190613b99565b60405180910390fd5b61148381611967565b50565b60007f780e9d63000000000000000000000000000000000000000000000000000000007bffffffffffffffffffffffffffffffffffffffffffffffffffffffff1916827bffffffffffffffffffffffffffffffffffffffffffffffffffffffff191614806114f957506114f8826120f9565b5b9050919050565b60008073ffffffffffffffffffffffffffffffffffffffff166002600084815260200190815260200160002060009054906101000a900473ffffffffffffffffffffffffffffffffffffffff1673ffffffffffffffffffffffffffffffffffffffff1614159050919050565b600033905090565b816004600083815260200190815260200160002060006101000a81548173ffffffffffffffffffffffffffffffffffffffff021916908373ffffffffffffffffffffffffffffffffffffffff160217905550808273ffffffffffffffffffffffffffffffffffffffff166115e783610948565b73ffffffffffffffffffffffffffffffffffffffff167f8c5be1e5ebec7d5bd14f71427d1e84f3dd0314c0f7b2291e5b200ac8c7c3b92560405160405180910390a45050565b600061163882611500565b611677576040517f08c379a000000000000000000000000000000000000000000000000000000000815260040161166e90613c59565b60405180910390fd5b600061168283610948565b90508073ffffffffffffffffffffffffffffffffffffffff168473ffffffffffffffffffffffffffffffffffffffff1614806116f157508373ffffffffffffffffffffffffffffffffffffffff166116d9846105e2565b73ffffffffffffffffffffffffffffffffffffffff16145b80611702575061170181856112fa565b5b91505092915050565b8273ffffffffffffffffffffffffffffffffffffffff1661172b82610948565b73ffffffffffffffffffffffffffffffffffffffff1614611781576040517f08c379a000000000000000000000000000000000000000000000000000000000815260040161177890613db9565b60405180910390fd5b600073ffffffffffffffffffffffffffffffffffffffff168273ffffffffffffffffffffffffffffffffffffffff1614156117f1576040517f08c379a00000000000000000000000000000000000000000000000000000000081526004016117e890613bd9565b60405180910390fd5b6117fc8383836121db565b611807600082611574565b6001600360008573ffffffffffffffffffffffffffffffffffffffff1673ffffffffffffffffffffffffffffffffffffffff168152602001908152602001600020600082825461185791906140a6565b925050819055506001600360008473ffffffffffffffffffffffffffffffffffffffff1673ffffffffffffffffffffffffffffffffffffffff16815260200190815260200160002060008282546118ae919061401f565b92505081905550816002600083815260200190815260200160002060006101000a81548173ffffffffffffffffffffffffffffffffffffffff021916908373ffffffffffffffffffffffffffffffffffffffff160217905550808273ffffffffffffffffffffffffffffffffffffffff168473ffffffffffffffffffffffffffffffffffffffff167fddf252ad1be2c89b69c2b068fc378daa952ba7f163c4a11628f55a4df523b3ef60405160405180910390a4505050565b6000600b60009054906101000a900473ffffffffffffffffffffffffffffffffffffffff16905081600b60006101000a81548173ffffffffffffffffffffffffffffffffffffffff021916908373ffffffffffffffffffffffffffffffffffffffff1602179055508173ffffffffffffffffffffffffffffffffffffffff168173ffffffffffffffffffffffffffffffffffffffff167f8be0079c531659141344cd1fd0a4f28419497f9722a3daafe3b4186f6b6457e060405160405180910390a35050565b600081600001549050919050565b6001816000016000828254019250508190555050565b611a6b8282604051806020016040528060008152506121eb565b5050565b611a7882611500565b611ab7576040517f08c379a0000000000000000000000000000000000000000000000000000000008152600401611aae90613cf9565b60405180910390fd5b80600a60008481526020019081526020016000209080519060200190611ade929190612d45565b505050565b6000805b8251811015611d9457600073ffffffffffffffffffffffffffffffffffffffff16838281518110611b41577f4e487b7100000000000000000000000000000000000000000000000000000000600052603260045260246000fd5b60200260200101516000015173ffffffffffffffffffffffffffffffffffffffff161415611ba4576040517f08c379a0000000000000000000000000000000000000000000000000000000008152600401611b9b90613c39565b60405180910390fd5b6000838281518110611bdf577f4e487b7100000000000000000000000000000000000000000000000000000000600052603260045260246000fd5b6020026020010151602001516bffffffffffffffffffffffff161415611c3a576040517f08c379a0000000000000000000000000000000000000000000000000000000008152600401611c3190613e59565b60405180910390fd5b83838281518110611c74577f4e487b7100000000000000000000000000000000000000000000000000000000600052603260045260246000fd5b60200260200101519080600181540180825580915050600190039060005260206000200160009091909190915060008201518160000160006101000a81548173ffffffffffffffffffffffffffffffffffffffff021916908373ffffffffffffffffffffffffffffffffffffffff16021790555060208201518160000160146101000a8154816bffffffffffffffffffffffff02191690836bffffffffffffffffffffffff1602179055505050828181518110611d5a577f4e487b7100000000000000000000000000000000000000000000000000000000600052603260045260246000fd5b6020026020010151602001516bffffffffffffffffffffffff1682611d7f919061401f565b91508080611d8c9061421d565b915050611ae7565b506127108110611dd9576040517f08c379a0000000000000000000000000000000000000000000000000000000008152600401611dd090613d79565b60405180910390fd5b505050565b8173ffffffffffffffffffffffffffffffffffffffff168373ffffffffffffffffffffffffffffffffffffffff161415611e4d576040517f08c379a0000000000000000000000000000000000000000000000000000000008152600401611e4490613bf9565b60405180910390fd5b80600560008573ffffffffffffffffffffffffffffffffffffffff1673ffffffffffffffffffffffffffffffffffffffff16815260200190815260200160002060008473ffffffffffffffffffffffffffffffffffffffff1673ffffffffffffffffffffffffffffffffffffffff16815260200190815260200160002060006101000a81548160ff0219169083151502179055508173ffffffffffffffffffffffffffffffffffffffff168373ffffffffffffffffffffffffffffffffffffffff167f17307eab39ab6107e8899845ad3d59bd9653f200f220920489ca2b5937696c3183604051611f3e9190613b1c565b60405180910390a3505050565b611f5684848461170b565b611f6284848484612246565b611fa1576040517f08c379a0000000000000000000000000000000000000000000000000000000008152600401611f9890613b79565b60405180910390fd5b50505050565b6060611fb282611500565b611ff1576040517f08c379a0000000000000000000000000000000000000000000000000000000008152600401611fe890613d39565b60405180910390fd5b6000600a60008481526020019081526020016000208054612011906141ba565b80601f016020809104026020016040519081016040528092919081815260200182805461203d906141ba565b801561208a5780601f1061205f5761010080835404028352916020019161208a565b820191906000526020600020905b81548152906001019060200180831161206d57829003601f168201915b50505050509050600061209b6123dd565b90506000815114156120b15781925050506120f4565b6000825111156120e65780826040516020016120ce929190613a46565b604051602081830303815290604052925050506120f4565b6120ef846123f4565b925050505b919050565b60007f80ac58cd000000000000000000000000000000000000000000000000000000007bffffffffffffffffffffffffffffffffffffffffffffffffffffffff1916827bffffffffffffffffffffffffffffffffffffffffffffffffffffffff191614806121c457507f5b5e139f000000000000000000000000000000000000000000000000000000007bffffffffffffffffffffffffffffffffffffffffffffffffffffffff1916827bffffffffffffffffffffffffffffffffffffffffffffffffffffffff1916145b806121d457506121d38261249b565b5b9050919050565b6121e6838383612505565b505050565b6121f58383612619565b6122026000848484612246565b612241576040517f08c379a000000000000000000000000000000000000000000000000000000000815260040161223890613b79565b60405180910390fd5b505050565b60006122678473ffffffffffffffffffffffffffffffffffffffff166127e7565b156123d0578373ffffffffffffffffffffffffffffffffffffffff1663150b7a0261229061156c565b8786866040518563ffffffff1660e01b81526004016122b29493929190613aae565b602060405180830381600087803b1580156122cc57600080fd5b505af19250505080156122fd57506040513d601f19601f820116820180604052508101906122fa9190613405565b60015b612380573d806000811461232d576040519150601f19603f3d011682016040523d82523d6000602084013e612332565b606091505b50600081511415612378576040517f08c379a000000000000000000000000000000000000000000000000000000000815260040161236f90613b79565b60405180910390fd5b805181602001fd5b63150b7a0260e01b7bffffffffffffffffffffffffffffffffffffffffffffffffffffffff1916817bffffffffffffffffffffffffffffffffffffffffffffffffffffffff1916149150506123d5565b600190505b949350505050565b606060405180602001604052806000815250905090565b60606123ff82611500565b61243e576040517f08c379a000000000000000000000000000000000000000000000000000000000815260040161243590613dd9565b60405180910390fd5b60006124486123dd565b905060008151116124685760405180602001604052806000815250612493565b80612472846127fa565b604051602001612483929190613a46565b6040516020818303038152906040525b915050919050565b60007f01ffc9a7000000000000000000000000000000000000000000000000000000007bffffffffffffffffffffffffffffffffffffffffffffffffffffffff1916827bffffffffffffffffffffffffffffffffffffffffffffffffffffffff1916149050919050565b6125108383836129a7565b600073ffffffffffffffffffffffffffffffffffffffff168373ffffffffffffffffffffffffffffffffffffffff1614156125535761254e816129ac565b612592565b8173ffffffffffffffffffffffffffffffffffffffff168373ffffffffffffffffffffffffffffffffffffffff16146125915761259083826129f5565b5b5b600073ffffffffffffffffffffffffffffffffffffffff168273ffffffffffffffffffffffffffffffffffffffff1614156125d5576125d081612b62565b612614565b8273ffffffffffffffffffffffffffffffffffffffff168273ffffffffffffffffffffffffffffffffffffffff1614612613576126128282612ca5565b5b5b505050565b600073ffffffffffffffffffffffffffffffffffffffff168273ffffffffffffffffffffffffffffffffffffffff161415612689576040517f08c379a000000000000000000000000000000000000000000000000000000000815260040161268090613d19565b60405180910390fd5b61269281611500565b156126d2576040517f08c379a00000000000000000000000000000000000000000000000000000000081526004016126c990613bb9565b60405180910390fd5b6126de600083836121db565b6001600360008473ffffffffffffffffffffffffffffffffffffffff1673ffffffffffffffffffffffffffffffffffffffff168152602001908152602001600020600082825461272e919061401f565b92505081905550816002600083815260200190815260200160002060006101000a81548173ffffffffffffffffffffffffffffffffffffffff021916908373ffffffffffffffffffffffffffffffffffffffff160217905550808273ffffffffffffffffffffffffffffffffffffffff16600073ffffffffffffffffffffffffffffffffffffffff167fddf252ad1be2c89b69c2b068fc378daa952ba7f163c4a11628f55a4df523b3ef60405160405180910390a45050565b600080823b905060008111915050919050565b60606000821415612842576040518060400160405280600181526020017f300000000000000000000000000000000000000000000000000000000000000081525090506129a2565b600082905060005b6000821461287457808061285d9061421d565b915050600a8261286d9190614075565b915061284a565b60008167ffffffffffffffff8111156128b6577f4e487b7100000000000000000000000000000000000000000000000000000000600052604160045260246000fd5b6040519080825280601f01601f1916602001820160405280156128e85781602001600182028036833780820191505090505b5090505b6000851461299b5760018261290191906140a6565b9150600a856129109190614266565b603061291c919061401f565b60f81b818381518110612958577f4e487b7100000000000000000000000000000000000000000000000000000000600052603260045260246000fd5b60200101907effffffffffffffffffffffffffffffffffffffffffffffffffffffffffffff1916908160001a905350600a856129949190614075565b94506128ec565b8093505050505b919050565b505050565b6008805490506009600083815260200190815260200160002081905550600881908060018154018082558091505060019003906000526020600020016000909190919091505550565b60006001612a0284610a62565b612a0c91906140a6565b9050600060076000848152602001908152602001600020549050818114612af1576000600660008673ffffffffffffffffffffffffffffffffffffffff1673ffffffffffffffffffffffffffffffffffffffff168152602001908152602001600020600084815260200190815260200160002054905080600660008773ffffffffffffffffffffffffffffffffffffffff1673ffffffffffffffffffffffffffffffffffffffff168152602001908152602001600020600084815260200190815260200160002081905550816007600083815260200190815260200160002081905550505b6007600084815260200190815260200160002060009055600660008573ffffffffffffffffffffffffffffffffffffffff1673ffffffffffffffffffffffffffffffffffffffff16815260200190815260200160002060008381526020019081526020016000206000905550505050565b60006001600880549050612b7691906140a6565b9050600060096000848152602001908152602001600020549050600060088381548110612bcc577f4e487b7100000000000000000000000000000000000000000000000000000000600052603260045260246000fd5b906000526020600020015490508060088381548110612c14577f4e487b7100000000000000000000000000000000000000000000000000000000600052603260045260246000fd5b906000526020600020018190555081600960008381526020019081526020016000208190555060096000858152602001908152602001600020600090556008805480612c89577f4e487b7100000000000000000000000000000000000000000000000000000000600052603160045260246000fd5b6001900381819060005260206000200160009055905550505050565b6000612cb083610a62565b905081600660008573ffffffffffffffffffffffffffffffffffffffff1673ffffffffffffffffffffffffffffffffffffffff168152602001908152602001600020600083815260200190815260200160002081905550806007600084815260200190815260200160002081905550505050565b5080546000825590600052602060002090810190612d429190612dcb565b50565b828054612d51906141ba565b90600052602060002090601f016020900481019282612d735760008555612dba565b82601f10612d8c57805160ff1916838001178555612dba565b82800160010185558215612dba579182015b82811115612db9578251825591602001919060010190612d9e565b5b509050612dc79190612e28565b5090565b5b80821115612e2457600080820160006101000a81549073ffffffffffffffffffffffffffffffffffffffff02191690556000820160146101000a8154906bffffffffffffffffffffffff021916905550600101612dcc565b5090565b5b80821115612e41576000816000905550600101612e29565b5090565b6000612e58612e5384613ee9565b613ec4565b9050808382526020820190508260005b85811015612e985781358501612e7e8882613071565b845260208401935060208301925050600181019050612e68565b5050509392505050565b6000612eb5612eb084613f15565b613ec4565b90508083825260208201905082856040860282011115612ed457600080fd5b60005b85811015612f045781612eea88826130ff565b845260208401935060408301925050600181019050612ed7565b5050509392505050565b6000612f21612f1c84613f41565b613ec4565b905082815260208101848484011115612f3957600080fd5b612f44848285614178565b509392505050565b6000612f5f612f5a84613f72565b613ec4565b905082815260208101848484011115612f7757600080fd5b612f82848285614178565b509392505050565b600081359050612f9981614a37565b92915050565b600081359050612fae81614a4e565b92915050565b600082601f830112612fc557600080fd5b8135612fd5848260208601612e45565b91505092915050565b600082601f830112612fef57600080fd5b8135612fff848260208601612ea2565b91505092915050565b60008135905061301781614a65565b92915050565b60008135905061302c81614a7c565b92915050565b60008151905061304181614a7c565b92915050565b600082601f83011261305857600080fd5b8135613068848260208601612f0e565b91505092915050565b600082601f83011261308257600080fd5b8135613092848260208601612f4c565b91505092915050565b6000604082840312156130ad57600080fd5b6130b76040613ec4565b905060006130c784828501613008565b600083015250602082013567ffffffffffffffff8111156130e757600080fd5b6130f384828501612fde565b60208301525092915050565b60006040828403121561311157600080fd5b61311b6040613ec4565b9050600061312b84828501612f9f565b600083015250602061313f84828501613160565b60208301525092915050565b60008135905061315a81614a93565b92915050565b60008135905061316f81614aaa565b92915050565b60006020828403121561318757600080fd5b600061319584828501612f8a565b91505092915050565b600080604083850312156131b157600080fd5b60006131bf85828601612f8a565b92505060206131d085828601612f8a565b9150509250929050565b6000806000606084860312156131ef57600080fd5b60006131fd86828701612f8a565b935050602061320e86828701612f8a565b925050604061321f8682870161314b565b9150509250925092565b6000806000806080858703121561323f57600080fd5b600061324d87828801612f8a565b945050602061325e87828801612f8a565b935050604061326f8782880161314b565b925050606085013567ffffffffffffffff81111561328c57600080fd5b61329887828801613047565b91505092959194509250565b600080604083850312156132b757600080fd5b60006132c585828601612f8a565b92505060206132d685828601613008565b9150509250929050565b6000806000606084860312156132f557600080fd5b600061330386828701612f8a565b935050602084013567ffffffffffffffff81111561332057600080fd5b61332c86828701613071565b925050604084013567ffffffffffffffff81111561334957600080fd5b6133558682870161309b565b9150509250925092565b6000806040838503121561337257600080fd5b600061338085828601612f8a565b92505060206133918582860161314b565b9150509250929050565b6000602082840312156133ad57600080fd5b600082013567ffffffffffffffff8111156133c757600080fd5b6133d384828501612fde565b91505092915050565b6000602082840312156133ee57600080fd5b60006133fc8482850161301d565b91505092915050565b60006020828403121561341757600080fd5b600061342584828501613032565b91505092915050565b60006020828403121561344057600080fd5b600061344e8482850161314b565b91505092915050565b60008060006060848603121561346c57600080fd5b600061347a8682870161314b565b935050602084013567ffffffffffffffff81111561349757600080fd5b6134a386828701612fb4565b925050604084013567ffffffffffffffff8111156134c057600080fd5b6134cc8682870161309b565b9150509250925092565b600080604083850312156134e957600080fd5b60006134f78582860161314b565b925050602083013567ffffffffffffffff81111561351457600080fd5b6135208582860161309b565b9150509250929050565b600061353683836139ea565b60408301905092915050565b61354b816140ec565b82525050565b61355a816140ec565b82525050565b613569816140da565b82525050565b600061357a82613fb3565b6135848185613fe1565b935061358f83613fa3565b8060005b838110156135c05781516135a7888261352a565b97506135b283613fd4565b925050600181019050613593565b5085935050505092915050565b6135d6816140fe565b82525050565b60006135e782613fbe565b6135f18185613ff2565b9350613601818560208601614187565b61360a81614353565b840191505092915050565b600061362082613fc9565b61362a8185614003565b935061363a818560208601614187565b61364381614353565b840191505092915050565b600061365982613fc9565b6136638185614014565b9350613673818560208601614187565b80840191505092915050565b600061368c602b83614003565b915061369782614364565b604082019050919050565b60006136af603283614003565b91506136ba826143b3565b604082019050919050565b60006136d2602683614003565b91506136dd82614402565b604082019050919050565b60006136f5601c83614003565b915061370082614451565b602082019050919050565b6000613718602483614003565b91506137238261447a565b604082019050919050565b600061373b601983614003565b9150613746826144c9565b602082019050919050565b600061375e602d83614003565b9150613769826144f2565b604082019050919050565b6000613781602383614003565b915061378c82614541565b604082019050919050565b60006137a4602c83614003565b91506137af82614590565b604082019050919050565b60006137c7603883614003565b91506137d2826145df565b604082019050919050565b60006137ea602a83614003565b91506137f58261462e565b604082019050919050565b600061380d602983614003565b91506138188261467d565b604082019050919050565b6000613830602883614003565b915061383b826146cc565b604082019050919050565b6000613853602e83614003565b915061385e8261471b565b604082019050919050565b6000613876602083614003565b91506138818261476a565b602082019050919050565b6000613899603183614003565b91506138a482614793565b604082019050919050565b60006138bc602c83614003565b91506138c7826147e2565b604082019050919050565b60006138df601783614003565b91506138ea82614831565b602082019050919050565b6000613902602083614003565b915061390d8261485a565b602082019050919050565b6000613925602983614003565b915061393082614883565b604082019050919050565b6000613948602f83614003565b9150613953826148d2565b604082019050919050565b600061396b602183614003565b915061397682614921565b604082019050919050565b600061398e603183614003565b915061399982614970565b604082019050919050565b60006139b1602c83614003565b91506139bc826149bf565b604082019050919050565b60006139d4601b83614003565b91506139df82614a0e565b602082019050919050565b604082016000820151613a006000850182613542565b506020820151613a136020850182613a28565b50505050565b613a2281614156565b82525050565b613a3181614160565b82525050565b613a4081614160565b82525050565b6000613a52828561364e565b9150613a5e828461364e565b91508190509392505050565b6000602082019050613a7f6000830184613560565b92915050565b6000604082019050613a9a6000830185613551565b613aa76020830184613a37565b9392505050565b6000608082019050613ac36000830187613560565b613ad06020830186613560565b613add6040830185613a19565b8181036060830152613aef81846135dc565b905095945050505050565b60006020820190508181036000830152613b14818461356f565b905092915050565b6000602082019050613b3160008301846135cd565b92915050565b60006020820190508181036000830152613b518184613615565b905092915050565b60006020820190508181036000830152613b728161367f565b9050919050565b60006020820190508181036000830152613b92816136a2565b9050919050565b60006020820190508181036000830152613bb2816136c5565b9050919050565b60006020820190508181036000830152613bd2816136e8565b9050919050565b60006020820190508181036000830152613bf28161370b565b9050919050565b60006020820190508181036000830152613c128161372e565b9050919050565b60006020820190508181036000830152613c3281613751565b9050919050565b60006020820190508181036000830152613c5281613774565b9050919050565b60006020820190508181036000830152613c7281613797565b9050919050565b60006020820190508181036000830152613c92816137ba565b9050919050565b60006020820190508181036000830152613cb2816137dd565b9050919050565b60006020820190508181036000830152613cd281613800565b9050919050565b60006020820190508181036000830152613cf281613823565b9050919050565b60006020820190508181036000830152613d1281613846565b9050919050565b60006020820190508181036000830152613d3281613869565b9050919050565b60006020820190508181036000830152613d528161388c565b9050919050565b60006020820190508181036000830152613d72816138af565b9050919050565b60006020820190508181036000830152613d92816138d2565b9050919050565b60006020820190508181036000830152613db2816138f5565b9050919050565b60006020820190508181036000830152613dd281613918565b9050919050565b60006020820190508181036000830152613df28161393b565b9050919050565b60006020820190508181036000830152613e128161395e565b9050919050565b60006020820190508181036000830152613e3281613981565b9050919050565b60006020820190508181036000830152613e52816139a4565b9050919050565b60006020820190508181036000830152613e72816139c7565b9050919050565b6000602082019050613e8e6000830184613a19565b92915050565b6000604082019050613ea96000830185613a19565b8181036020830152613ebb818461356f565b90509392505050565b6000613ece613edf565b9050613eda82826141ec565b919050565b6000604051905090565b600067ffffffffffffffff821115613f0457613f03614324565b5b602082029050602081019050919050565b600067ffffffffffffffff821115613f3057613f2f614324565b5b602082029050602081019050919050565b600067ffffffffffffffff821115613f5c57613f5b614324565b5b613f6582614353565b9050602081019050919050565b600067ffffffffffffffff821115613f8d57613f8c614324565b5b613f9682614353565b9050602081019050919050565b6000819050602082019050919050565b600081519050919050565b600081519050919050565b600081519050919050565b6000602082019050919050565b600082825260208201905092915050565b600082825260208201905092915050565b600082825260208201905092915050565b600081905092915050565b600061402a82614156565b915061403583614156565b9250827fffffffffffffffffffffffffffffffffffffffffffffffffffffffffffffffff0382111561406a57614069614297565b5b828201905092915050565b600061408082614156565b915061408b83614156565b92508261409b5761409a6142c6565b5b828204905092915050565b60006140b182614156565b91506140bc83614156565b9250828210156140cf576140ce614297565b5b828203905092915050565b60006140e582614136565b9050919050565b60006140f782614136565b9050919050565b60008115159050919050565b60007fffffffff0000000000000000000000000000000000000000000000000000000082169050919050565b600073ffffffffffffffffffffffffffffffffffffffff82169050919050565b6000819050919050565b60006bffffffffffffffffffffffff82169050919050565b82818337600083830152505050565b60005b838110156141a557808201518184015260208101905061418a565b838111156141b4576000848401525b50505050565b600060028204905060018216806141d257607f821691505b602082108114156141e6576141e56142f5565b5b50919050565b6141f582614353565b810181811067ffffffffffffffff8211171561421457614213614324565b5b80604052505050565b600061422882614156565b91507fffffffffffffffffffffffffffffffffffffffffffffffffffffffffffffffff82141561425b5761425a614297565b5b600182019050919050565b600061427182614156565b915061427c83614156565b92508261428c5761428b6142c6565b5b828206905092915050565b7f4e487b7100000000000000000000000000000000000000000000000000000000600052601160045260246000fd5b7f4e487b7100000000000000000000000000000000000000000000000000000000600052601260045260246000fd5b7f4e487b7100000000000000000000000000000000000000000000000000000000600052602260045260246000fd5b7f4e487b7100000000000000000000000000000000000000000000000000000000600052604160045260246000fd5b6000601f19601f8301169050919050565b7f455243373231456e756d657261626c653a206f776e657220696e646578206f7560008201527f74206f6620626f756e6473000000000000000000000000000000000000000000602082015250565b7f4552433732313a207472616e7366657220746f206e6f6e20455243373231526560008201527f63656976657220696d706c656d656e7465720000000000000000000000000000602082015250565b7f4f776e61626c653a206e6577206f776e657220697320746865207a65726f206160008201527f6464726573730000000000000000000000000000000000000000000000000000602082015250565b7f4552433732313a20746f6b656e20616c7265616479206d696e74656400000000600082015250565b7f4552433732313a207472616e7366657220746f20746865207a65726f2061646460008201527f7265737300000000000000000000000000000000000000000000000000000000602082015250565b7f4552433732313a20617070726f766520746f2063616c6c657200000000000000600082015250565b7f757269206172726179206c656e6774682073686f756c6420626520657175616c60008201527f20746f205f746f74616c4e465400000000000000000000000000000000000000602082015250565b7f526f79616c747920726563697069656e742073686f756c64206265207072657360008201527f656e740000000000000000000000000000000000000000000000000000000000602082015250565b7f4552433732313a206f70657261746f7220717565727920666f72206e6f6e657860008201527f697374656e7420746f6b656e0000000000000000000000000000000000000000602082015250565b7f4552433732313a20617070726f76652063616c6c6572206973206e6f74206f7760008201527f6e6572206e6f7220617070726f76656420666f7220616c6c0000000000000000602082015250565b7f4552433732313a2062616c616e636520717565727920666f7220746865207a6560008201527f726f206164647265737300000000000000000000000000000000000000000000602082015250565b7f4552433732313a206f776e657220717565727920666f72206e6f6e657869737460008201527f656e7420746f6b656e0000000000000000000000000000000000000000000000602082015250565b7f4d696e74696e67206d6f7265207468616e203135204e66747320617265206e6f60008201527f7420616c6c6f7765000000000000000000000000000000000000000000000000602082015250565b7f45524337323155524953746f726167653a2055524920736574206f66206e6f6e60008201527f6578697374656e7420746f6b656e000000000000000000000000000000000000602082015250565b7f4552433732313a206d696e7420746f20746865207a65726f2061646472657373600082015250565b7f45524337323155524953746f726167653a2055524920717565727920666f722060008201527f6e6f6e6578697374656e7420746f6b656e000000000000000000000000000000602082015250565b7f4552433732313a20617070726f76656420717565727920666f72206e6f6e657860008201527f697374656e7420746f6b656e0000000000000000000000000000000000000000602082015250565b7f53756d206f6620526f79616c74696573203e2031303025000000000000000000600082015250565b7f4f776e61626c653a2063616c6c6572206973206e6f7420746865206f776e6572600082015250565b7f4552433732313a207472616e73666572206f6620746f6b656e2074686174206960008201527f73206e6f74206f776e0000000000000000000000000000000000000000000000602082015250565b7f4552433732314d657461646174613a2055524920717565727920666f72206e6f60008201527f6e6578697374656e7420746f6b656e0000000000000000000000000000000000602082015250565b7f4552433732313a20617070726f76616c20746f2063757272656e74206f776e6560008201527f7200000000000000000000000000000000000000000000000000000000000000602082015250565b7f4552433732313a207472616e736665722063616c6c6572206973206e6f74206f60008201527f776e6572206e6f7220617070726f766564000000000000000000000000000000602082015250565b7f455243373231456e756d657261626c653a20676c6f62616c20696e646578206f60008201527f7574206f6620626f756e64730000000000000000000000000000000000000000602082015250565b7f526f79616c74792076616c75652073686f756c64206265203e20300000000000600082015250565b614a40816140da565b8114614a4b57600080fd5b50565b614a57816140ec565b8114614a6257600080fd5b50565b614a6e816140fe565b8114614a7957600080fd5b50565b614a858161410a565b8114614a9057600080fd5b50565b614a9c81614156565b8114614aa757600080fd5b50565b614ab381614160565b8114614abe57600080fd5b5056fea2646970667358221220e7bc7a968c47538b84a81f57b619eb58c43f98dcf45621db02afae863d5fd2dc64736f6c63430008030033",
  "immutableReferences": {},
  "source": "// SPDX-License-Identifier: MIT\r\npragma solidity ^0.8.2;\r\n\r\nimport \"@openzeppelin/contracts/token/ERC721/ERC721.sol\";\r\nimport \"@openzeppelin/contracts/token/ERC721/extensions/ERC721Enumerable.sol\";\r\nimport \"@openzeppelin/contracts/token/ERC721/extensions/ERC721URIStorage.sol\";\r\nimport \"@openzeppelin/contracts/access/Ownable.sol\";\r\nimport \"@openzeppelin/contracts/utils/Counters.sol\";\r\nimport \"./Libraries/LibShare.sol\";\r\n\r\ncontract TokenERC721 is ERC721, ERC721Enumerable, ERC721URIStorage, Ownable {\r\n    using Counters for Counters.Counter;\r\n\r\n    struct RoyaltiesSet {\r\n        bool set;\r\n        LibShare.Share[] royalties;\r\n    }\r\n\r\n    event RoyaltiesSetForCollection(LibShare.Share[] royalties);\r\n    event RoyaltiesSetForTokenId(uint256 tokenId, LibShare.Share[] royalties);\r\n\r\n    Counters.Counter private _tokenIdCounter;\r\n\r\n    LibShare.Share[] public collectionRoyalties;\r\n    mapping(uint256 => RoyaltiesSet) public royaltiesByTokenId;\r\n\r\n    constructor(string memory name, string memory symbol)\r\n        ERC721(name, symbol)\r\n    {}\r\n\r\n    function safeMint(\r\n        address to,\r\n        string memory uri,\r\n        RoyaltiesSet memory royaltiesSet\r\n    ) public onlyOwner {\r\n        uint256 tokenId = _tokenIdCounter.current();\r\n        _tokenIdCounter.increment();\r\n        _safeMint(to, tokenId);\r\n        _setTokenURI(tokenId, uri);\r\n        setRoyaltiesByTokenId(tokenId, royaltiesSet);\r\n    }\r\n\r\n    function batchMint(\r\n        uint256 _totalNft,\r\n        string[] memory _uri,\r\n        RoyaltiesSet memory royaltiesSet\r\n    ) external {\r\n        require(_totalNft <= 15, \"Minting more than 15 Nfts are not allowe\");\r\n        require(\r\n            _totalNft == _uri.length,\r\n            \"uri array length should be equal to _totalNFT\"\r\n        );\r\n        for (uint256 i = 0; i < _totalNft; i++) {\r\n            safeMint(msg.sender, _uri[i], royaltiesSet);\r\n        }\r\n    }\r\n\r\n    function setRoyaltiesByTokenId(\r\n        uint256 _tokenId,\r\n        RoyaltiesSet memory royaltiesSet\r\n    ) public onlyOwner {\r\n        delete royaltiesByTokenId[_tokenId];\r\n        royaltiesByTokenId[_tokenId].set = royaltiesSet.set;\r\n        _setRoyaltiesArray(royaltiesByTokenId[_tokenId].royalties, royaltiesSet.royalties);\r\n        emit RoyaltiesSetForTokenId(_tokenId, royaltiesSet.royalties);\r\n    }\r\n\r\n    function setRoyaltiesForCollection(LibShare.Share[] memory royalties)\r\n        public\r\n        onlyOwner\r\n    {\r\n        delete collectionRoyalties;\r\n        _setRoyaltiesArray(collectionRoyalties, royalties);\r\n        emit RoyaltiesSetForCollection(royalties);\r\n    }\r\n\r\n    function getRoyalties(uint256 _tokenId)\r\n        external\r\n        view\r\n        returns (LibShare.Share[] memory)\r\n    {\r\n        if (royaltiesByTokenId[_tokenId].set) {\r\n            return royaltiesByTokenId[_tokenId].royalties;\r\n        }\r\n        return collectionRoyalties;\r\n    }\r\n\r\n    function _setRoyaltiesArray(\r\n        LibShare.Share[] storage royaltiesArr,\r\n        LibShare.Share[] memory royalties\r\n    ) internal {\r\n        uint256 sumRoyalties = 0;\r\n        for (uint256 i = 0; i < royalties.length; i++) {\r\n            require(\r\n                royalties[i].account != address(0x0),\r\n                \"Royalty recipient should be present\"\r\n            );\r\n            require(royalties[i].value != 0, \"Royalty value should be > 0\");\r\n            royaltiesArr.push(royalties[i]);\r\n            sumRoyalties += royalties[i].value;\r\n        }\r\n        require(sumRoyalties < 10000, \"Sum of Royalties > 100%\");\r\n    }\r\n\r\n    // The following functions are overrides required by Solidity.\r\n\r\n    function _beforeTokenTransfer(\r\n        address from,\r\n        address to,\r\n        uint256 tokenId\r\n    ) internal override(ERC721, ERC721Enumerable) {\r\n        super._beforeTokenTransfer(from, to, tokenId);\r\n    }\r\n\r\n    function _burn(uint256 tokenId)\r\n        internal\r\n        override(ERC721, ERC721URIStorage)\r\n    {\r\n        super._burn(tokenId);\r\n    }\r\n\r\n    function tokenURI(uint256 tokenId)\r\n        public\r\n        view\r\n        override(ERC721, ERC721URIStorage)\r\n        returns (string memory)\r\n    {\r\n        return super.tokenURI(tokenId);\r\n    }\r\n\r\n    function supportsInterface(bytes4 interfaceId)\r\n        public\r\n        view\r\n        override(ERC721, ERC721Enumerable)\r\n        returns (bool)\r\n    {\r\n        return super.supportsInterface(interfaceId);\r\n    }\r\n}\r\n",
  "sourcePath": "D:\\Blockchain\\Liquidity\\new\\Modular-contract\\contracts\\TokenERC721.sol",
  "compiler": {
    "name": "solc",
    "version": "0.8.3+commit.8d00100c.Emscripten.clang"
  },
  "schemaVersion": "3.4.3",
  "updatedAt": "2021-12-22T02:48:06.287Z",
  "devdoc": {
    "kind": "dev",
    "methods": {
      "approve(address,uint256)": {
        "details": "See {IERC721-approve}."
      },
      "balanceOf(address)": {
        "details": "See {IERC721-balanceOf}."
      },
      "getApproved(uint256)": {
        "details": "See {IERC721-getApproved}."
      },
      "isApprovedForAll(address,address)": {
        "details": "See {IERC721-isApprovedForAll}."
      },
      "name()": {
        "details": "See {IERC721Metadata-name}."
      },
      "owner()": {
        "details": "Returns the address of the current owner."
      },
      "ownerOf(uint256)": {
        "details": "See {IERC721-ownerOf}."
      },
      "renounceOwnership()": {
        "details": "Leaves the contract without owner. It will not be possible to call `onlyOwner` functions anymore. Can only be called by the current owner. NOTE: Renouncing ownership will leave the contract without an owner, thereby removing any functionality that is only available to the owner."
      },
      "safeTransferFrom(address,address,uint256)": {
        "details": "See {IERC721-safeTransferFrom}."
      },
      "safeTransferFrom(address,address,uint256,bytes)": {
        "details": "See {IERC721-safeTransferFrom}."
      },
      "setApprovalForAll(address,bool)": {
        "details": "See {IERC721-setApprovalForAll}."
      },
      "symbol()": {
        "details": "See {IERC721Metadata-symbol}."
      },
      "tokenByIndex(uint256)": {
        "details": "See {IERC721Enumerable-tokenByIndex}."
      },
      "tokenOfOwnerByIndex(address,uint256)": {
        "details": "See {IERC721Enumerable-tokenOfOwnerByIndex}."
      },
      "totalSupply()": {
        "details": "See {IERC721Enumerable-totalSupply}."
      },
      "transferFrom(address,address,uint256)": {
        "details": "See {IERC721-transferFrom}."
      },
      "transferOwnership(address)": {
        "details": "Transfers ownership of the contract to a new account (`newOwner`). Can only be called by the current owner."
      }
    },
    "version": 1
  },
  "userdoc": {
    "kind": "user",
    "methods": {},
    "version": 1
  }
}