{
  "contractName": "TokenFactory",
  "abi": [
    {
      "anonymous": false,
      "inputs": [
        {
          "indexed": false,
          "internalType": "address",
          "name": "previousAdmin",
          "type": "address"
        },
        {
          "indexed": false,
          "internalType": "address",
          "name": "newAdmin",
          "type": "address"
        }
      ],
      "name": "AdminChanged",
      "type": "event"
    },
    {
      "anonymous": false,
      "inputs": [
        {
          "indexed": false,
          "internalType": "uint256",
          "name": "time",
          "type": "uint256"
        }
      ],
      "name": "AuctionStarted",
      "type": "event"
    },
    {
      "anonymous": false,
      "inputs": [
        {
          "indexed": true,
          "internalType": "address",
          "name": "beacon",
          "type": "address"
        }
      ],
      "name": "BeaconUpgraded",
      "type": "event"
    },
    {
      "anonymous": false,
      "inputs": [
        {
          "indexed": false,
          "internalType": "uint256",
          "name": "price",
          "type": "uint256"
        }
      ],
      "name": "BidExecuted",
      "type": "event"
    },
    {
      "anonymous": false,
      "inputs": [
        {
          "components": [
            {
              "internalType": "uint256",
              "name": "saleId",
              "type": "uint256"
            },
            {
              "internalType": "address",
              "name": "sellerAddress",
              "type": "address"
            },
            {
              "internalType": "address",
              "name": "buyerAddress",
              "type": "address"
            },
            {
              "internalType": "uint256",
              "name": "price",
              "type": "uint256"
            },
            {
              "internalType": "bool",
              "name": "withdrawn",
              "type": "bool"
            }
          ],
          "indexed": false,
          "internalType": "struct LibBid.BidOrder",
          "name": "bid",
          "type": "tuple"
        }
      ],
      "name": "BidOrderReturn",
      "type": "event"
    },
    {
      "anonymous": false,
      "inputs": [
        {
          "indexed": true,
          "internalType": "address",
          "name": "_from",
          "type": "address"
        },
        {
          "indexed": false,
          "internalType": "address",
          "name": "_tokenAddress",
          "type": "address"
        }
      ],
      "name": "ERC721Deployed",
      "type": "event"
    },
    {
      "anonymous": false,
      "inputs": [
        {
          "indexed": true,
          "internalType": "address",
          "name": "previousOwner",
          "type": "address"
        },
        {
          "indexed": true,
          "internalType": "address",
          "name": "newOwner",
          "type": "address"
        }
      ],
      "name": "OwnershipTransferred",
      "type": "event"
    },
    {
      "anonymous": false,
      "inputs": [
        {
          "components": [
            {
              "internalType": "uint256",
              "name": "saleId",
              "type": "uint256"
            },
            {
              "internalType": "address",
              "name": "collectionAddress",
              "type": "address"
            },
            {
              "internalType": "uint256",
              "name": "tokenId",
              "type": "uint256"
            },
            {
              "internalType": "uint256",
              "name": "price",
              "type": "uint256"
            },
            {
              "internalType": "bool",
              "name": "directSale",
              "type": "bool"
            },
            {
              "internalType": "bool",
              "name": "bidSale",
              "type": "bool"
            },
            {
              "internalType": "bool",
              "name": "status",
              "type": "bool"
            },
            {
              "internalType": "uint256",
              "name": "bidStartTime",
              "type": "uint256"
            },
            {
              "internalType": "uint256",
              "name": "bidEndTime",
              "type": "uint256"
            },
            {
              "internalType": "address",
              "name": "mintedBy",
              "type": "address"
            },
            {
              "internalType": "address",
              "name": "currentOwner",
              "type": "address"
            }
          ],
          "indexed": false,
          "internalType": "struct LibMeta.TokenMeta",
          "name": "data",
          "type": "tuple"
        },
        {
          "indexed": false,
          "internalType": "uint256",
          "name": "id",
          "type": "uint256"
        }
      ],
      "name": "TokenMetaReturn",
      "type": "event"
    },
    {
      "anonymous": false,
      "inputs": [
        {
          "indexed": true,
          "internalType": "address",
          "name": "implementation",
          "type": "address"
        }
      ],
      "name": "Upgraded",
      "type": "event"
    },
    {
      "inputs": [
        {
          "internalType": "uint256",
          "name": "_saleId",
          "type": "uint256"
        }
      ],
      "name": "Bid",
      "outputs": [],
      "stateMutability": "payable",
      "type": "function",
      "payable": true
    },
    {
      "inputs": [
        {
          "internalType": "uint256",
          "name": "",
          "type": "uint256"
        },
        {
          "internalType": "uint256",
          "name": "",
          "type": "uint256"
        }
      ],
      "name": "Bids",
      "outputs": [
        {
          "internalType": "uint256",
          "name": "saleId",
          "type": "uint256"
        },
        {
          "internalType": "address",
          "name": "sellerAddress",
          "type": "address"
        },
        {
          "internalType": "address",
          "name": "buyerAddress",
          "type": "address"
        },
        {
          "internalType": "uint256",
          "name": "price",
          "type": "uint256"
        },
        {
          "internalType": "bool",
          "name": "withdrawn",
          "type": "bool"
        }
      ],
      "stateMutability": "view",
      "type": "function",
      "constant": true
    },
    {
      "inputs": [
        {
          "internalType": "uint256",
          "name": "_saleId",
          "type": "uint256"
        }
      ],
      "name": "BuyNFT",
      "outputs": [],
      "stateMutability": "payable",
      "type": "function",
      "payable": true
    },
    {
      "inputs": [
        {
          "internalType": "address",
          "name": "_collectionAddress",
          "type": "address"
        },
        {
          "internalType": "uint256",
          "name": "_tokenId",
          "type": "uint256"
        },
        {
          "internalType": "uint256",
          "name": "_price",
          "type": "uint256"
        },
        {
          "internalType": "uint256",
          "name": "_bidTime",
          "type": "uint256"
        }
      ],
      "name": "SellNFT_byBid",
      "outputs": [],
      "stateMutability": "nonpayable",
      "type": "function"
    },
    {
      "inputs": [],
      "name": "_tokenIds",
      "outputs": [
        {
          "internalType": "uint256",
          "name": "",
          "type": "uint256"
        }
      ],
      "stateMutability": "view",
      "type": "function",
      "constant": true
    },
    {
      "inputs": [
        {
          "internalType": "uint256",
          "name": "",
          "type": "uint256"
        }
      ],
      "name": "_tokenMeta",
      "outputs": [
        {
          "internalType": "uint256",
          "name": "saleId",
          "type": "uint256"
        },
        {
          "internalType": "address",
          "name": "collectionAddress",
          "type": "address"
        },
        {
          "internalType": "uint256",
          "name": "tokenId",
          "type": "uint256"
        },
        {
          "internalType": "uint256",
          "name": "price",
          "type": "uint256"
        },
        {
          "internalType": "bool",
          "name": "directSale",
          "type": "bool"
        },
        {
          "internalType": "bool",
          "name": "bidSale",
          "type": "bool"
        },
        {
          "internalType": "bool",
          "name": "status",
          "type": "bool"
        },
        {
          "internalType": "uint256",
          "name": "bidStartTime",
          "type": "uint256"
        },
        {
          "internalType": "uint256",
          "name": "bidEndTime",
          "type": "uint256"
        },
        {
          "internalType": "address",
          "name": "mintedBy",
          "type": "address"
        },
        {
          "internalType": "address",
          "name": "currentOwner",
          "type": "address"
        }
      ],
      "stateMutability": "view",
      "type": "function",
      "constant": true
    },
    {
      "inputs": [
        {
          "internalType": "uint256",
          "name": "_saleId",
          "type": "uint256"
        }
      ],
      "name": "cancelSale",
      "outputs": [],
      "stateMutability": "nonpayable",
      "type": "function"
    },
    {
      "inputs": [],
      "name": "collectionIdTracker",
      "outputs": [
        {
          "internalType": "uint256",
          "name": "_value",
          "type": "uint256"
        }
      ],
      "stateMutability": "view",
      "type": "function",
      "constant": true
    },
    {
      "inputs": [
        {
          "internalType": "address",
          "name": "",
          "type": "address"
        }
      ],
      "name": "collectionToOwner",
      "outputs": [
        {
          "internalType": "address",
          "name": "",
          "type": "address"
        }
      ],
      "stateMutability": "view",
      "type": "function",
      "constant": true
    },
    {
      "inputs": [
        {
          "internalType": "uint256",
          "name": "",
          "type": "uint256"
        }
      ],
      "name": "collections",
      "outputs": [
        {
          "internalType": "uint256",
          "name": "id",
          "type": "uint256"
        },
        {
          "internalType": "string",
          "name": "name",
          "type": "string"
        },
        {
          "internalType": "string",
          "name": "symbol",
          "type": "string"
        },
        {
          "internalType": "address",
          "name": "contractAddress",
          "type": "address"
        },
        {
          "internalType": "address",
          "name": "owner",
          "type": "address"
        },
        {
          "internalType": "string",
          "name": "description",
          "type": "string"
        }
      ],
      "stateMutability": "view",
      "type": "function",
      "constant": true
    },
    {
      "inputs": [
        {
          "internalType": "uint256",
          "name": "_saleId",
          "type": "uint256"
        },
        {
          "internalType": "uint256",
          "name": "_bidOrderID",
          "type": "uint256"
        }
      ],
      "name": "executeBidOrder",
      "outputs": [],
      "stateMutability": "nonpayable",
      "type": "function"
    },
    {
      "inputs": [
        {
          "internalType": "address",
          "name": "",
          "type": "address"
        },
        {
          "internalType": "address",
          "name": "",
          "type": "address"
        },
        {
          "internalType": "uint256",
          "name": "",
          "type": "uint256"
        },
        {
          "internalType": "bytes",
          "name": "",
          "type": "bytes"
        }
      ],
      "name": "onERC721Received",
      "outputs": [
        {
          "internalType": "bytes4",
          "name": "",
          "type": "bytes4"
        }
      ],
      "stateMutability": "nonpayable",
      "type": "function"
    },
    {
      "inputs": [],
      "name": "owner",
      "outputs": [
        {
          "internalType": "address",
          "name": "",
          "type": "address"
        }
      ],
      "stateMutability": "view",
      "type": "function",
      "constant": true
    },
    {
      "inputs": [
        {
          "internalType": "address",
          "name": "",
          "type": "address"
        },
        {
          "internalType": "uint256",
          "name": "",
          "type": "uint256"
        }
      ],
      "name": "ownerToCollections",
      "outputs": [
        {
          "internalType": "uint256",
          "name": "",
          "type": "uint256"
        }
      ],
      "stateMutability": "view",
      "type": "function",
      "constant": true
    },
    {
      "inputs": [],
      "name": "renounceOwnership",
      "outputs": [],
      "stateMutability": "nonpayable",
      "type": "function"
    },
    {
      "inputs": [
        {
          "internalType": "address",
          "name": "_collectionAddress",
          "type": "address"
        },
        {
          "internalType": "uint256",
          "name": "_tokenId",
          "type": "uint256"
        },
        {
          "internalType": "uint256",
          "name": "_price",
          "type": "uint256"
        }
      ],
      "name": "sellNFT",
      "outputs": [],
      "stateMutability": "nonpayable",
      "type": "function"
    },
    {
      "inputs": [
        {
          "internalType": "address",
          "name": "newOwner",
          "type": "address"
        }
      ],
      "name": "transferOwnership",
      "outputs": [],
      "stateMutability": "nonpayable",
      "type": "function"
    },
    {
      "inputs": [
        {
          "internalType": "address",
          "name": "newImplementation",
          "type": "address"
        }
      ],
      "name": "upgradeTo",
      "outputs": [],
      "stateMutability": "nonpayable",
      "type": "function"
    },
    {
      "inputs": [
        {
          "internalType": "address",
          "name": "newImplementation",
          "type": "address"
        },
        {
          "internalType": "bytes",
          "name": "data",
          "type": "bytes"
        }
      ],
      "name": "upgradeToAndCall",
      "outputs": [],
      "stateMutability": "payable",
      "type": "function",
      "payable": true
    },
    {
      "inputs": [
        {
          "internalType": "uint256",
          "name": "_saleId",
          "type": "uint256"
        },
        {
          "internalType": "uint256",
          "name": "_bidId",
          "type": "uint256"
        }
      ],
      "name": "withdrawBidMoney",
      "outputs": [],
      "stateMutability": "nonpayable",
      "type": "function"
    },
    {
      "inputs": [],
      "name": "initialize",
      "outputs": [],
      "stateMutability": "nonpayable",
      "type": "function"
    },
    {
      "inputs": [
        {
          "internalType": "address",
          "name": "_address",
          "type": "address"
        }
      ],
      "name": "initialize",
      "outputs": [],
      "stateMutability": "nonpayable",
      "type": "function"
    },
    {
      "inputs": [
        {
          "internalType": "string",
          "name": "name",
          "type": "string"
        },
        {
          "internalType": "string",
          "name": "symbol",
          "type": "string"
        },
        {
          "internalType": "string",
          "name": "description",
          "type": "string"
        },
        {
          "components": [
            {
              "internalType": "address payable",
              "name": "account",
              "type": "address"
            },
            {
              "internalType": "uint96",
              "name": "value",
              "type": "uint96"
            }
          ],
          "internalType": "struct LibShare.Share[]",
          "name": "royalties",
          "type": "tuple[]"
        }
      ],
      "name": "deployERC721",
      "outputs": [],
      "stateMutability": "nonpayable",
      "type": "function"
    }
  ],
  "bytecode": "0x60a06040523073ffffffffffffffffffffffffffffffffffffffff1660809073ffffffffffffffffffffffffffffffffffffffff1660601b81525034801561004657600080fd5b5060805160601c615c976200007b6000396000818161084e015281816108dd01528181610a630152610af20152615c976000f3fe6080604052600436106101405760003560e01c80638da5cb5b116100b6578063c4d66de81161006f578063c4d66de81461042b578063c5b0d00614610454578063f2fde38b1461047d578063f436682a146104a6578063f779a193146104cf578063fdbda0ec146104f857610140565b80638da5cb5b146103085780638e57ff1614610333578063a37365e01461037a578063a7f323da14610396578063aa46a400146103d7578063bd94b0051461040257610140565b806348d79ed41161010857806348d79ed41461023c5780634f1ef28614610279578063715018a61461029557806376cb6647146102ac5780637a183e84146102d55780638129fc1c146102f157610140565b8063150b7a02146101455780631e3b4ac8146101825780632bd87c4f146101ad5780633659cfe6146101d657806340045db6146101ff575b600080fd5b34801561015157600080fd5b5061016c60048036038101906101679190614668565b61053a565b6040516101799190614ff4565b60405180910390f35b34801561018e57600080fd5b5061019761054e565b6040516101a4919061522e565b60405180910390f35b3480156101b957600080fd5b506101d460048036038101906101cf9190614952565b61055b565b005b3480156101e257600080fd5b506101fd60048036038101906101f89190614616565b61084c565b005b34801561020b57600080fd5b5061022660048036038101906102219190614616565b6109fb565b6040516102339190614fa2565b60405180910390f35b34801561024857600080fd5b50610263600480360381019061025e9190614737565b610a2f565b604051610270919061522e565b60405180910390f35b610293600480360381019061028e91906146e3565b610a61565b005b3480156102a157600080fd5b506102aa610b9e565b005b3480156102b857600080fd5b506102d360048036038101906102ce9190614952565b610c26565b005b6102ef60048036038101906102ea9190614929565b61158e565b005b3480156102fd57600080fd5b50610306611866565b005b34801561031457600080fd5b5061031d611957565b60405161032a9190614fa2565b60405180910390f35b34801561033f57600080fd5b5061035a60048036038101906103559190614929565b611981565b6040516103719b9a9998979695949392919061529c565b60405180910390f35b610394600480360381019061038f9190614929565b611a63565b005b3480156103a257600080fd5b506103bd60048036038101906103b89190614952565b6121cb565b6040516103ce959493929190615249565b60405180910390f35b3480156103e357600080fd5b506103ec61226c565b6040516103f9919061522e565b60405180910390f35b34801561040e57600080fd5b5061042960048036038101906104249190614929565b612273565b005b34801561043757600080fd5b50610452600480360381019061044d9190614616565b61234a565b005b34801561046057600080fd5b5061047b60048036038101906104769190614866565b612476565b005b34801561048957600080fd5b506104a4600480360381019061049f9190614616565b6127ce565b005b3480156104b257600080fd5b506104cd60048036038101906104c891906147c2565b6128c6565b005b3480156104db57600080fd5b506104f660048036038101906104f19190614773565b612d19565b005b34801561050457600080fd5b5061051f600480360381019061051a9190614929565b613162565b60405161053196959493929190615347565b60405180910390f35b600063150b7a0260e01b9050949350505050565b6101348060000154905081565b61012d600083815260200190815260200160002060080160009054906101000a900473ffffffffffffffffffffffffffffffffffffffff1673ffffffffffffffffffffffffffffffffffffffff163373ffffffffffffffffffffffffffffffffffffffff1614156105cb57600080fd5b3373ffffffffffffffffffffffffffffffffffffffff1661012f6000848152602001908152602001600020828154811061062e577f4e487b7100000000000000000000000000000000000000000000000000000000600052603260045260246000fd5b906000526020600020906005020160020160009054906101000a900473ffffffffffffffffffffffffffffffffffffffff1673ffffffffffffffffffffffffffffffffffffffff161461068057600080fd5b6000151561012f600084815260200190815260200160002082815481106106d0577f4e487b7100000000000000000000000000000000000000000000000000000000600052603260045260246000fd5b906000526020600020906005020160040160009054906101000a900460ff161515146106fb57600080fd5b3373ffffffffffffffffffffffffffffffffffffffff166108fc61012f60008581526020019081526020016000208381548110610761577f4e487b7100000000000000000000000000000000000000000000000000000000600052603260045260246000fd5b9060005260206000209060050201600301549081150290604051600060405180830381858888f193505050501561080d57600161012f600084815260200190815260200160002082815481106107e0577f4e487b7100000000000000000000000000000000000000000000000000000000600052603260045260246000fd5b906000526020600020906005020160040160006101000a81548160ff021916908315150217905550610848565b6040517f08c379a000000000000000000000000000000000000000000000000000000000815260040161083f906150dd565b60405180910390fd5b5050565b7f000000000000000000000000000000000000000000000000000000000000000073ffffffffffffffffffffffffffffffffffffffff163073ffffffffffffffffffffffffffffffffffffffff1614156108db576040517f08c379a00000000000000000000000000000000000000000000000000000000081526004016108d2906150bd565b60405180910390fd5b7f000000000000000000000000000000000000000000000000000000000000000073ffffffffffffffffffffffffffffffffffffffff1661091a613377565b73ffffffffffffffffffffffffffffffffffffffff1614610970576040517f08c379a0000000000000000000000000000000000000000000000000000000008152600401610967906150fd565b60405180910390fd5b610979816133ce565b6109f881600067ffffffffffffffff8111156109be577f4e487b7100000000000000000000000000000000000000000000000000000000600052604160045260246000fd5b6040519080825280601f01601f1916602001820160405280156109f05781602001600182028036833780820191505090505b50600061344d565b50565b6101336020528060005260406000206000915054906101000a900473ffffffffffffffffffffffffffffffffffffffff1681565b6101326020528160005260406000208181548110610a4c57600080fd5b90600052602060002001600091509150505481565b7f000000000000000000000000000000000000000000000000000000000000000073ffffffffffffffffffffffffffffffffffffffff163073ffffffffffffffffffffffffffffffffffffffff161415610af0576040517f08c379a0000000000000000000000000000000000000000000000000000000008152600401610ae7906150bd565b60405180910390fd5b7f000000000000000000000000000000000000000000000000000000000000000073ffffffffffffffffffffffffffffffffffffffff16610b2f613377565b73ffffffffffffffffffffffffffffffffffffffff1614610b85576040517f08c379a0000000000000000000000000000000000000000000000000000000008152600401610b7c906150fd565b60405180910390fd5b610b8e826133ce565b610b9a8282600161344d565b5050565b610ba661361e565b73ffffffffffffffffffffffffffffffffffffffff16610bc4611957565b73ffffffffffffffffffffffffffffffffffffffff1614610c1a576040517f08c379a0000000000000000000000000000000000000000000000000000000008152600401610c119061515d565b60405180910390fd5b610c246000613626565b565b600260c9541415610c6c576040517f08c379a0000000000000000000000000000000000000000000000000000000008152600401610c639061519d565b60405180910390fd5b600260c98190555061012d600083815260200190815260200160002060080160009054906101000a900473ffffffffffffffffffffffffffffffffffffffff1673ffffffffffffffffffffffffffffffffffffffff163373ffffffffffffffffffffffffffffffffffffffff1614610ce357600080fd5b6000151561012f60008481526020019081526020016000208281548110610d33577f4e487b7100000000000000000000000000000000000000000000000000000000600052603260045260246000fd5b906000526020600020906005020160040160009054906101000a900460ff16151514610d5e57600080fd5b6001151561012d600084815260200190815260200160002060040160029054906101000a900460ff16151514610d9357600080fd5b606061013660009054906101000a900473ffffffffffffffffffffffffffffffffffffffff1673ffffffffffffffffffffffffffffffffffffffff1661012d600085815260200190815260200160002060010160009054906101000a900473ffffffffffffffffffffffffffffffffffffffff1673ffffffffffffffffffffffffffffffffffffffff161415610ef25761013660009054906101000a900473ffffffffffffffffffffffffffffffffffffffff1673ffffffffffffffffffffffffffffffffffffffff1663bb3bafd661012d6000868152602001908152602001600020600201546040518263ffffffff1660e01b8152600401610e96919061522e565b60006040518083038186803b158015610eae57600080fd5b505afa158015610ec2573d6000803e3d6000fd5b505050506040513d6000823e3d601f19601f82011682018060405250810190610eeb9190614825565b9050610fd1565b61012d600084815260200190815260200160002060010160009054906101000a900473ffffffffffffffffffffffffffffffffffffffff1673ffffffffffffffffffffffffffffffffffffffff1663bb3bafd661012d6000868152602001908152602001600020600201546040518263ffffffff1660e01b8152600401610f79919061522e565b60006040518083038186803b158015610f9157600080fd5b505afa158015610fa5573d6000803e3d6000fd5b505050506040513d6000823e3d601f19601f82011682018060405250810190610fce9190614825565b90505b61012d600084815260200190815260200160002060010160009054906101000a900473ffffffffffffffffffffffffffffffffffffffff1673ffffffffffffffffffffffffffffffffffffffff166342842e0e3061012f60008781526020019081526020016000208581548110611071577f4e487b7100000000000000000000000000000000000000000000000000000000600052603260045260246000fd5b906000526020600020906005020160020160009054906101000a900473ffffffffffffffffffffffffffffffffffffffff1661012d6000888152602001908152602001600020600201546040518463ffffffff1660e01b81526004016110d993929190614fbd565b600060405180830381600087803b1580156110f357600080fd5b505af1158015611107573d6000803e3d6000fd5b50505050600061012f60008581526020019081526020016000208381548110611159577f4e487b7100000000000000000000000000000000000000000000000000000000600052603260045260246000fd5b906000526020600020906005020160030154905060005b82518110156112f857600061012f600087815260200190815260200160002085815481106111c7577f4e487b7100000000000000000000000000000000000000000000000000000000600052603260045260246000fd5b906000526020600020906005020160030154612710858481518110611215577f4e487b7100000000000000000000000000000000000000000000000000000000600052603260045260246000fd5b60200260200101516020015161122b9190615542565b6bffffffffffffffffffffffff166112439190615573565b90506000848381518110611280577f4e487b7100000000000000000000000000000000000000000000000000000000600052603260045260246000fd5b60200260200101516000015190508073ffffffffffffffffffffffffffffffffffffffff166108fc839081150290604051600060405180830381858888f193505050501580156112d4573d6000803e3d6000fd5b5081846112e191906155cd565b9350505080806112f0906157fd565b915050611170565b503373ffffffffffffffffffffffffffffffffffffffff166108fc829081150290604051600060405180830381858888f1935050505015801561133f573d6000803e3d6000fd5b5061012f6000858152602001908152602001600020838154811061138c577f4e487b7100000000000000000000000000000000000000000000000000000000600052603260045260246000fd5b906000526020600020906005020160020160009054906101000a900473ffffffffffffffffffffffffffffffffffffffff1661012d600086815260200190815260200160002060080160006101000a81548173ffffffffffffffffffffffffffffffffffffffff021916908373ffffffffffffffffffffffffffffffffffffffff16021790555061012f6000858152602001908152602001600020838154811061145f577f4e487b7100000000000000000000000000000000000000000000000000000000600052603260045260246000fd5b90600052602060002090600502016003015461012d600086815260200190815260200160002060030181905550600061012d600086815260200190815260200160002060040160016101000a81548160ff021916908315150217905550600061012d600086815260200190815260200160002060040160026101000a81548160ff0219169083151502179055507fc1a33fc6bb7dd982480f7d209db0c9ee0afb428b5f804be0268c066863032e4c61012f60008681526020019081526020016000208481548110611559577f4e487b7100000000000000000000000000000000000000000000000000000000600052603260045260246000fd5b906000526020600020906005020160030154604051611578919061522e565b60405180910390a15050600160c9819055505050565b61159661361e565b73ffffffffffffffffffffffffffffffffffffffff1661012d600083815260200190815260200160002060080160009054906101000a900473ffffffffffffffffffffffffffffffffffffffff1673ffffffffffffffffffffffffffffffffffffffff16141561160557600080fd5b6001151561012d600083815260200190815260200160002060040160029054906101000a900460ff1615151461163a57600080fd5b61012d60008281526020019081526020016000206006015442111561165e57600080fd5b3461012d6000838152602001908152602001600020600301541061168157600080fd5b60006040518060a0016040528083815260200161012d600085815260200190815260200160002060080160009054906101000a900473ffffffffffffffffffffffffffffffffffffffff1673ffffffffffffffffffffffffffffffffffffffff1681526020013373ffffffffffffffffffffffffffffffffffffffff16815260200134815260200160001515815250905061012f60008381526020019081526020016000208190806001815401808255809150506001900390600052602060002090600502016000909190919091506000820151816000015560208201518160010160006101000a81548173ffffffffffffffffffffffffffffffffffffffff021916908373ffffffffffffffffffffffffffffffffffffffff16021790555060408201518160020160006101000a81548173ffffffffffffffffffffffffffffffffffffffff021916908373ffffffffffffffffffffffffffffffffffffffff1602179055506060820151816003015560808201518160040160006101000a81548160ff02191690831515021790555050503461012d600084815260200190815260200160002050507f3b3ffb780943e7b296c790f2c023897e46e6f296757b898adbf83e4c392b16fa8160405161185a91906151bd565b60405180910390a15050565b600060019054906101000a900460ff168061188c575060008054906101000a900460ff16155b6118cb576040517f08c379a00000000000000000000000000000000000000000000000000000000081526004016118c29061511d565b60405180910390fd5b60008060019054906101000a900460ff16159050801561191b576001600060016101000a81548160ff02191690831515021790555060016000806101000a81548160ff0219169083151502179055505b6119236136ec565b61192b6137d5565b6119336138b6565b80156119545760008060016101000a81548160ff0219169083151502179055505b50565b6000609760009054906101000a900473ffffffffffffffffffffffffffffffffffffffff16905090565b61012d6020528060005260406000206000915090508060000154908060010160009054906101000a900473ffffffffffffffffffffffffffffffffffffffff16908060020154908060030154908060040160009054906101000a900460ff16908060040160019054906101000a900460ff16908060040160029054906101000a900460ff16908060050154908060060154908060070160009054906101000a900473ffffffffffffffffffffffffffffffffffffffff16908060080160009054906101000a900473ffffffffffffffffffffffffffffffffffffffff1690508b565b600260c9541415611aa9576040517f08c379a0000000000000000000000000000000000000000000000000000000008152600401611aa09061519d565b60405180910390fd5b600260c981905550600061012d600083815260200190815260200160002060405180610160016040529081600082015481526020016001820160009054906101000a900473ffffffffffffffffffffffffffffffffffffffff1673ffffffffffffffffffffffffffffffffffffffff1673ffffffffffffffffffffffffffffffffffffffff16815260200160028201548152602001600382015481526020016004820160009054906101000a900460ff161515151581526020016004820160019054906101000a900460ff161515151581526020016004820160029054906101000a900460ff1615151515815260200160058201548152602001600682015481526020016007820160009054906101000a900473ffffffffffffffffffffffffffffffffffffffff1673ffffffffffffffffffffffffffffffffffffffff1673ffffffffffffffffffffffffffffffffffffffff1681526020016008820160009054906101000a900473ffffffffffffffffffffffffffffffffffffffff1673ffffffffffffffffffffffffffffffffffffffff1673ffffffffffffffffffffffffffffffffffffffff16815250509050606061013660009054906101000a900473ffffffffffffffffffffffffffffffffffffffff1673ffffffffffffffffffffffffffffffffffffffff1661012d600085815260200190815260200160002060010160009054906101000a900473ffffffffffffffffffffffffffffffffffffffff1673ffffffffffffffffffffffffffffffffffffffff161415611db95761013660009054906101000a900473ffffffffffffffffffffffffffffffffffffffff1673ffffffffffffffffffffffffffffffffffffffff1663bb3bafd661012d6000868152602001908152602001600020600201546040518263ffffffff1660e01b8152600401611d5d919061522e565b60006040518083038186803b158015611d7557600080fd5b505afa158015611d89573d6000803e3d6000fd5b505050506040513d6000823e3d601f19601f82011682018060405250810190611db29190614825565b9050611e98565b61012d600084815260200190815260200160002060010160009054906101000a900473ffffffffffffffffffffffffffffffffffffffff1673ffffffffffffffffffffffffffffffffffffffff1663bb3bafd661012d6000868152602001908152602001600020600201546040518263ffffffff1660e01b8152600401611e40919061522e565b60006040518083038186803b158015611e5857600080fd5b505afa158015611e6c573d6000803e3d6000fd5b505050506040513d6000823e3d601f19601f82011682018060405250810190611e959190614825565b90505b600115158260c00151151514611ead57600080fd5b600073ffffffffffffffffffffffffffffffffffffffff163373ffffffffffffffffffffffffffffffffffffffff1614158015611f1b575081610140015173ffffffffffffffffffffffffffffffffffffffff163373ffffffffffffffffffffffffffffffffffffffff1614155b611f2457600080fd5b600015158260a00151151514611f3957600080fd5b8160600151341015611f4a57600080fd5b600034905060005b825181101561207d57600034612710858481518110611f9a577f4e487b7100000000000000000000000000000000000000000000000000000000600052603260045260246000fd5b602002602001015160200151611fb09190615542565b6bffffffffffffffffffffffff16611fc89190615573565b90506000848381518110612005577f4e487b7100000000000000000000000000000000000000000000000000000000600052603260045260246000fd5b60200260200101516000015190508073ffffffffffffffffffffffffffffffffffffffff166108fc839081150290604051600060405180830381858888f19350505050158015612059573d6000803e3d6000fd5b50818461206691906155cd565b935050508080612075906157fd565b915050611f52565b5082610140015173ffffffffffffffffffffffffffffffffffffffff166108fc829081150290604051600060405180830381858888f193505050501580156120c9573d6000803e3d6000fd5b50826020015173ffffffffffffffffffffffffffffffffffffffff166342842e0e303386604001516040518463ffffffff1660e01b815260040161210f93929190614fbd565b600060405180830381600087803b15801561212957600080fd5b505af115801561213d573d6000803e3d6000fd5b5050505073__LibMeta_______________________________63eecee90561012d6000878152602001908152602001600020336040518363ffffffff1660e01b815260040161218d929190615203565b60006040518083038186803b1580156121a557600080fd5b505af41580156121b9573d6000803e3d6000fd5b50505050505050600160c98190555050565b61012f60205281600052604060002081815481106121e857600080fd5b9060005260206000209060050201600091509150508060000154908060010160009054906101000a900473ffffffffffffffffffffffffffffffffffffffff16908060020160009054906101000a900473ffffffffffffffffffffffffffffffffffffffff16908060030154908060040160009054906101000a900460ff16905085565b61012e5481565b61012d600082815260200190815260200160002060080160009054906101000a900473ffffffffffffffffffffffffffffffffffffffff1673ffffffffffffffffffffffffffffffffffffffff163373ffffffffffffffffffffffffffffffffffffffff16146122e257600080fd5b6001151561012d600083815260200190815260200160002060040160029054906101000a900460ff1615151461231757600080fd5b600061012d600083815260200190815260200160002060040160026101000a81548160ff02191690831515021790555050565b600060019054906101000a900460ff1680612370575060008054906101000a900460ff16155b6123af576040517f08c379a00000000000000000000000000000000000000000000000000000000081526004016123a69061511d565b60405180910390fd5b60008060019054906101000a900460ff1615905080156123ff576001600060016101000a81548160ff02191690831515021790555060016000806101000a81548160ff0219169083151502179055505b8161013660006101000a81548173ffffffffffffffffffffffffffffffffffffffff021916908373ffffffffffffffffffffffffffffffffffffffff160217905550612449611866565b612451613997565b80156124725760008060016101000a81548160ff0219169083151502179055505b5050565b612481610134613a80565b600073__LibERC721_____________________________6317c0d22a8686856040518463ffffffff1660e01b81526004016124be93929190615031565b60206040518083038186803b1580156124d657600080fd5b505af41580156124ea573d6000803e3d6000fd5b505050506040513d601f19601f8201168201806040525081019061250e919061463f565b905060006040518060c00160405280612528610134613a96565b81526020018781526020018681526020018373ffffffffffffffffffffffffffffffffffffffff1681526020013373ffffffffffffffffffffffffffffffffffffffff168152602001858152509050806101316000612588610134613a96565b81526020019081526020016000206000820151816000015560208201518160010190805190602001906125bc92919061424c565b5060408201518160020190805190602001906125d992919061424c565b5060608201518160030160006101000a81548173ffffffffffffffffffffffffffffffffffffffff021916908373ffffffffffffffffffffffffffffffffffffffff16021790555060808201518160040160006101000a81548173ffffffffffffffffffffffffffffffffffffffff021916908373ffffffffffffffffffffffffffffffffffffffff16021790555060a082015181600501908051906020019061268492919061424c565b5090505061013260003373ffffffffffffffffffffffffffffffffffffffff1673ffffffffffffffffffffffffffffffffffffffff1681526020019081526020016000206126d3610134613a96565b90806001815401808255809150506001900390600052602060002001600090919091909150553361013360008473ffffffffffffffffffffffffffffffffffffffff1673ffffffffffffffffffffffffffffffffffffffff16815260200190815260200160002060006101000a81548173ffffffffffffffffffffffffffffffffffffffff021916908373ffffffffffffffffffffffffffffffffffffffff1602179055503373ffffffffffffffffffffffffffffffffffffffff167ff143a9f73a7cc638a8576d1a4eb964c9c8b131e21a8a43c963c4cfc1b5695db3836040516127be9190614fa2565b60405180910390a2505050505050565b6127d661361e565b73ffffffffffffffffffffffffffffffffffffffff166127f4611957565b73ffffffffffffffffffffffffffffffffffffffff161461284a576040517f08c379a00000000000000000000000000000000000000000000000000000000081526004016128419061515d565b60405180910390fd5b600073ffffffffffffffffffffffffffffffffffffffff168173ffffffffffffffffffffffffffffffffffffffff1614156128ba576040517f08c379a00000000000000000000000000000000000000000000000000000000081526004016128b19061509d565b60405180910390fd5b6128c381613626565b50565b83838173ffffffffffffffffffffffffffffffffffffffff16636352211e826040518263ffffffff1660e01b8152600401612901919061522e565b60206040518083038186803b15801561291957600080fd5b505afa15801561292d573d6000803e3d6000fd5b505050506040513d601f19601f82011682018060405250810190612951919061463f565b73ffffffffffffffffffffffffffffffffffffffff163373ffffffffffffffffffffffffffffffffffffffff161461298857600080fd5b612993610135613a80565b8573ffffffffffffffffffffffffffffffffffffffff166342842e0e3330886040518463ffffffff1660e01b81526004016129d093929190614fbd565b600060405180830381600087803b1580156129ea57600080fd5b505af11580156129fe573d6000803e3d6000fd5b505050506000604051806101600160405280612a1b610135613a96565b81526020018873ffffffffffffffffffffffffffffffffffffffff1681526020018781526020018681526020016000151581526020016001151581526020016001151581526020014281526020018542612a7591906154ec565b81526020018873ffffffffffffffffffffffffffffffffffffffff16636352211e896040518263ffffffff1660e01b8152600401612ab3919061522e565b60206040518083038186803b158015612acb57600080fd5b505afa158015612adf573d6000803e3d6000fd5b505050506040513d601f19601f82011682018060405250810190612b03919061463f565b73ffffffffffffffffffffffffffffffffffffffff168152602001612b2661361e565b73ffffffffffffffffffffffffffffffffffffffff1681525090508061012d6000612b52610135613a96565b81526020019081526020016000206000820151816000015560208201518160010160006101000a81548173ffffffffffffffffffffffffffffffffffffffff021916908373ffffffffffffffffffffffffffffffffffffffff160217905550604082015181600201556060820151816003015560808201518160040160006101000a81548160ff02191690831515021790555060a08201518160040160016101000a81548160ff02191690831515021790555060c08201518160040160026101000a81548160ff02191690831515021790555060e0820151816005015561010082015181600601556101208201518160070160006101000a81548173ffffffffffffffffffffffffffffffffffffffff021916908373ffffffffffffffffffffffffffffffffffffffff1602179055506101408201518160080160006101000a81548173ffffffffffffffffffffffffffffffffffffffff021916908373ffffffffffffffffffffffffffffffffffffffff1602179055509050507fc7e90a8b24f51dc952add540ff08d8077bd45c54099dbed9b2bf2f83edd0c6dc81612cfa610135613a96565b604051612d089291906151d8565b60405180910390a150505050505050565b82828173ffffffffffffffffffffffffffffffffffffffff16636352211e826040518263ffffffff1660e01b8152600401612d54919061522e565b60206040518083038186803b158015612d6c57600080fd5b505afa158015612d80573d6000803e3d6000fd5b505050506040513d601f19601f82011682018060405250810190612da4919061463f565b73ffffffffffffffffffffffffffffffffffffffff163373ffffffffffffffffffffffffffffffffffffffff1614612ddb57600080fd5b612de6610135613a80565b8473ffffffffffffffffffffffffffffffffffffffff166342842e0e3330876040518463ffffffff1660e01b8152600401612e2393929190614fbd565b600060405180830381600087803b158015612e3d57600080fd5b505af1158015612e51573d6000803e3d6000fd5b505050506000604051806101600160405280612e6e610135613a96565b81526020018773ffffffffffffffffffffffffffffffffffffffff16815260200186815260200185815260200160011515815260200160001515815260200160011515815260200160008152602001600081526020018773ffffffffffffffffffffffffffffffffffffffff16636352211e886040518263ffffffff1660e01b8152600401612efd919061522e565b60206040518083038186803b158015612f1557600080fd5b505afa158015612f29573d6000803e3d6000fd5b505050506040513d601f19601f82011682018060405250810190612f4d919061463f565b73ffffffffffffffffffffffffffffffffffffffff168152602001612f7061361e565b73ffffffffffffffffffffffffffffffffffffffff1681525090508061012d6000612f9c610135613a96565b81526020019081526020016000206000820151816000015560208201518160010160006101000a81548173ffffffffffffffffffffffffffffffffffffffff021916908373ffffffffffffffffffffffffffffffffffffffff160217905550604082015181600201556060820151816003015560808201518160040160006101000a81548160ff02191690831515021790555060a08201518160040160016101000a81548160ff02191690831515021790555060c08201518160040160026101000a81548160ff02191690831515021790555060e0820151816005015561010082015181600601556101208201518160070160006101000a81548173ffffffffffffffffffffffffffffffffffffffff021916908373ffffffffffffffffffffffffffffffffffffffff1602179055506101408201518160080160006101000a81548173ffffffffffffffffffffffffffffffffffffffff021916908373ffffffffffffffffffffffffffffffffffffffff1602179055509050507fc7e90a8b24f51dc952add540ff08d8077bd45c54099dbed9b2bf2f83edd0c6dc81613144610135613a96565b6040516131529291906151d8565b60405180910390a1505050505050565b61013160205280600052604060002060009150905080600001549080600101805461318c90615718565b80601f01602080910402602001604051908101604052809291908181526020018280546131b890615718565b80156132055780601f106131da57610100808354040283529160200191613205565b820191906000526020600020905b8154815290600101906020018083116131e857829003601f168201915b50505050509080600201805461321a90615718565b80601f016020809104026020016040519081016040528092919081815260200182805461324690615718565b80156132935780601f1061326857610100808354040283529160200191613293565b820191906000526020600020905b81548152906001019060200180831161327657829003601f168201915b5050505050908060030160009054906101000a900473ffffffffffffffffffffffffffffffffffffffff16908060040160009054906101000a900473ffffffffffffffffffffffffffffffffffffffff16908060050180546132f490615718565b80601f016020809104026020016040519081016040528092919081815260200182805461332090615718565b801561336d5780601f106133425761010080835404028352916020019161336d565b820191906000526020600020905b81548152906001019060200180831161335057829003601f168201915b5050505050905086565b60006133a57f360894a13ba1a3210667c828492db98dca3e2076cc3735a920a3ca505d382bbc60001b613aa4565b60000160009054906101000a900473ffffffffffffffffffffffffffffffffffffffff16905090565b6133d661361e565b73ffffffffffffffffffffffffffffffffffffffff166133f4611957565b73ffffffffffffffffffffffffffffffffffffffff161461344a576040517f08c379a00000000000000000000000000000000000000000000000000000000081526004016134419061515d565b60405180910390fd5b50565b6000613457613377565b905061346284613aae565b60008351118061346f5750815b156134805761347e8484613b67565b505b60006134ae7f4910fdfa16fed3260ed0e7147f7cc6da11a60208b5b9406d12a635614ffd914360001b613c4b565b90508060000160009054906101000a900460ff166136175760018160000160006101000a81548160ff02191690831515021790555061357a85836040516024016134f89190614fa2565b6040516020818303038152906040527f3659cfe6000000000000000000000000000000000000000000000000000000007bffffffffffffffffffffffffffffffffffffffffffffffffffffffff19166020820180517bffffffffffffffffffffffffffffffffffffffffffffffffffffffff8381831617835250505050613b67565b5060008160000160006101000a81548160ff0219169083151502179055506135a0613377565b73ffffffffffffffffffffffffffffffffffffffff168273ffffffffffffffffffffffffffffffffffffffff161461360d576040517f08c379a00000000000000000000000000000000000000000000000000000000081526004016136049061507d565b60405180910390fd5b61361685613c55565b5b5050505050565b600033905090565b6000609760009054906101000a900473ffffffffffffffffffffffffffffffffffffffff16905081609760006101000a81548173ffffffffffffffffffffffffffffffffffffffff021916908373ffffffffffffffffffffffffffffffffffffffff1602179055508173ffffffffffffffffffffffffffffffffffffffff168173ffffffffffffffffffffffffffffffffffffffff167f8be0079c531659141344cd1fd0a4f28419497f9722a3daafe3b4186f6b6457e060405160405180910390a35050565b600060019054906101000a900460ff1680613712575060008054906101000a900460ff16155b613751576040517f08c379a00000000000000000000000000000000000000000000000000000000081526004016137489061511d565b60405180910390fd5b60008060019054906101000a900460ff1615905080156137a1576001600060016101000a81548160ff02191690831515021790555060016000806101000a81548160ff0219169083151502179055505b6137a9613ca4565b6137b1613d7d565b80156137d25760008060016101000a81548160ff0219169083151502179055505b50565b600060019054906101000a900460ff16806137fb575060008054906101000a900460ff16155b61383a576040517f08c379a00000000000000000000000000000000000000000000000000000000081526004016138319061511d565b60405180910390fd5b60008060019054906101000a900460ff16159050801561388a576001600060016101000a81548160ff02191690831515021790555060016000806101000a81548160ff0219169083151502179055505b613892613e66565b80156138b35760008060016101000a81548160ff0219169083151502179055505b50565b600060019054906101000a900460ff16806138dc575060008054906101000a900460ff16155b61391b576040517f08c379a00000000000000000000000000000000000000000000000000000000081526004016139129061511d565b60405180910390fd5b60008060019054906101000a900460ff16159050801561396b576001600060016101000a81548160ff02191690831515021790555060016000806101000a81548160ff0219169083151502179055505b613973613f47565b80156139945760008060016101000a81548160ff0219169083151502179055505b50565b600060019054906101000a900460ff16806139bd575060008054906101000a900460ff16155b6139fc576040517f08c379a00000000000000000000000000000000000000000000000000000000081526004016139f39061511d565b60405180910390fd5b60008060019054906101000a900460ff161590508015613a4c576001600060016101000a81548160ff02191690831515021790555060016000806101000a81548160ff0219169083151502179055505b613a54614020565b613a5c6140f9565b8015613a7d5760008060016101000a81548160ff0219169083151502179055505b50565b6001816000016000828254019250508190555050565b600081600001549050919050565b6000819050919050565b613ab7816141d2565b613af6576040517f08c379a0000000000000000000000000000000000000000000000000000000008152600401613aed9061513d565b60405180910390fd5b80613b237f360894a13ba1a3210667c828492db98dca3e2076cc3735a920a3ca505d382bbc60001b613aa4565b60000160006101000a81548173ffffffffffffffffffffffffffffffffffffffff021916908373ffffffffffffffffffffffffffffffffffffffff16021790555050565b6060613b72836141d2565b613bb1576040517f08c379a0000000000000000000000000000000000000000000000000000000008152600401613ba89061517d565b60405180910390fd5b6000808473ffffffffffffffffffffffffffffffffffffffff1684604051613bd99190614f8b565b600060405180830381855af49150503d8060008114613c14576040519150601f19603f3d011682016040523d82523d6000602084013e613c19565b606091505b5091509150613c418282604051806060016040528060278152602001615c3b602791396141e5565b9250505092915050565b6000819050919050565b613c5e81613aae565b8073ffffffffffffffffffffffffffffffffffffffff167fbc7cd75a20ee27fd9adebab32041f755214dbc6bffa90cc0225b39da2e5c2d3b60405160405180910390a250565b600060019054906101000a900460ff1680613cca575060008054906101000a900460ff16155b613d09576040517f08c379a0000000000000000000000000000000000000000000000000000000008152600401613d009061511d565b60405180910390fd5b60008060019054906101000a900460ff161590508015613d59576001600060016101000a81548160ff02191690831515021790555060016000806101000a81548160ff0219169083151502179055505b8015613d7a5760008060016101000a81548160ff0219169083151502179055505b50565b600060019054906101000a900460ff1680613da3575060008054906101000a900460ff16155b613de2576040517f08c379a0000000000000000000000000000000000000000000000000000000008152600401613dd99061511d565b60405180910390fd5b60008060019054906101000a900460ff161590508015613e32576001600060016101000a81548160ff02191690831515021790555060016000806101000a81548160ff0219169083151502179055505b613e42613e3d61361e565b613626565b8015613e635760008060016101000a81548160ff0219169083151502179055505b50565b600060019054906101000a900460ff1680613e8c575060008054906101000a900460ff16155b613ecb576040517f08c379a0000000000000000000000000000000000000000000000000000000008152600401613ec29061511d565b60405180910390fd5b60008060019054906101000a900460ff161590508015613f1b576001600060016101000a81548160ff02191690831515021790555060016000806101000a81548160ff0219169083151502179055505b600160c9819055508015613f445760008060016101000a81548160ff0219169083151502179055505b50565b600060019054906101000a900460ff1680613f6d575060008054906101000a900460ff16155b613fac576040517f08c379a0000000000000000000000000000000000000000000000000000000008152600401613fa39061511d565b60405180910390fd5b60008060019054906101000a900460ff161590508015613ffc576001600060016101000a81548160ff02191690831515021790555060016000806101000a81548160ff0219169083151502179055505b801561401d5760008060016101000a81548160ff0219169083151502179055505b50565b600060019054906101000a900460ff1680614046575060008054906101000a900460ff16155b614085576040517f08c379a000000000000000000000000000000000000000000000000000000000815260040161407c9061511d565b60405180910390fd5b60008060019054906101000a900460ff1615905080156140d5576001600060016101000a81548160ff02191690831515021790555060016000806101000a81548160ff0219169083151502179055505b80156140f65760008060016101000a81548160ff0219169083151502179055505b50565b600060019054906101000a900460ff168061411f575060008054906101000a900460ff16155b61415e576040517f08c379a00000000000000000000000000000000000000000000000000000000081526004016141559061511d565b60405180910390fd5b60008060019054906101000a900460ff1615905080156141ae576001600060016101000a81548160ff02191690831515021790555060016000806101000a81548160ff0219169083151502179055505b80156141cf5760008060016101000a81548160ff0219169083151502179055505b50565b600080823b905060008111915050919050565b606083156141f557829050614245565b6000835111156142085782518084602001fd5b816040517f08c379a000000000000000000000000000000000000000000000000000000000815260040161423c919061500f565b60405180910390fd5b9392505050565b82805461425890615718565b90600052602060002090601f01602090048101928261427a57600085556142c1565b82601f1061429357805160ff19168380011785556142c1565b828001600101855582156142c1579182015b828111156142c05782518255916020019190600101906142a5565b5b5090506142ce91906142d2565b5090565b5b808211156142eb5760008160009055506001016142d3565b5090565b60006143026142fd846153e2565b6153bd565b9050808382526020820190508285604086028201111561432157600080fd5b60005b858110156143515781614337888261453f565b845260208401935060408301925050600181019050614324565b5050509392505050565b600061436e614369846153e2565b6153bd565b9050808382526020820190508285604086028201111561438d57600080fd5b60005b858110156143bd57816143a3888261458b565b845260208401935060408301925050600181019050614390565b5050509392505050565b60006143da6143d58461540e565b6153bd565b9050828152602081018484840111156143f257600080fd5b6143fd8482856156d6565b509392505050565b60006144186144138461543f565b6153bd565b90508281526020810184848401111561443057600080fd5b61443b8482856156d6565b509392505050565b60008135905061445281615bde565b92915050565b60008151905061446781615bde565b92915050565b60008135905061447c81615bf5565b92915050565b60008151905061449181615bf5565b92915050565b600082601f8301126144a857600080fd5b81356144b88482602086016142ef565b91505092915050565b600082601f8301126144d257600080fd5b81516144e284826020860161435b565b91505092915050565b600082601f8301126144fc57600080fd5b813561450c8482602086016143c7565b91505092915050565b600082601f83011261452657600080fd5b8135614536848260208601614405565b91505092915050565b60006040828403121561455157600080fd5b61455b60406153bd565b9050600061456b8482850161446d565b600083015250602061457f848285016145ec565b60208301525092915050565b60006040828403121561459d57600080fd5b6145a760406153bd565b905060006145b784828501614482565b60008301525060206145cb84828501614601565b60208301525092915050565b6000813590506145e681615c0c565b92915050565b6000813590506145fb81615c23565b92915050565b60008151905061461081615c23565b92915050565b60006020828403121561462857600080fd5b600061463684828501614443565b91505092915050565b60006020828403121561465157600080fd5b600061465f84828501614458565b91505092915050565b6000806000806080858703121561467e57600080fd5b600061468c87828801614443565b945050602061469d87828801614443565b93505060406146ae878288016145d7565b925050606085013567ffffffffffffffff8111156146cb57600080fd5b6146d7878288016144eb565b91505092959194509250565b600080604083850312156146f657600080fd5b600061470485828601614443565b925050602083013567ffffffffffffffff81111561472157600080fd5b61472d858286016144eb565b9150509250929050565b6000806040838503121561474a57600080fd5b600061475885828601614443565b9250506020614769858286016145d7565b9150509250929050565b60008060006060848603121561478857600080fd5b600061479686828701614443565b93505060206147a7868287016145d7565b92505060406147b8868287016145d7565b9150509250925092565b600080600080608085870312156147d857600080fd5b60006147e687828801614443565b94505060206147f7878288016145d7565b9350506040614808878288016145d7565b9250506060614819878288016145d7565b91505092959194509250565b60006020828403121561483757600080fd5b600082015167ffffffffffffffff81111561485157600080fd5b61485d848285016144c1565b91505092915050565b6000806000806080858703121561487c57600080fd5b600085013567ffffffffffffffff81111561489657600080fd5b6148a287828801614515565b945050602085013567ffffffffffffffff8111156148bf57600080fd5b6148cb87828801614515565b935050604085013567ffffffffffffffff8111156148e857600080fd5b6148f487828801614515565b925050606085013567ffffffffffffffff81111561491157600080fd5b61491d87828801614497565b91505092959194509250565b60006020828403121561493b57600080fd5b6000614949848285016145d7565b91505092915050565b6000806040838503121561496557600080fd5b6000614973858286016145d7565b9250506020614984858286016145d7565b9150509250929050565b600061499a8383614cf4565b60408301905092915050565b6149af8161564a565b82525050565b6149be81615638565b82525050565b6149cd81615638565b82525050565b6149dc81615638565b82525050565b6149eb81615638565b82525050565b60006149fc82615480565b614a0681856154ae565b9350614a1183615470565b8060005b83811015614a42578151614a29888261498e565b9750614a34836154a1565b925050600181019050614a15565b5085935050505092915050565b614a588161565c565b82525050565b614a678161565c565b82525050565b614a768161565c565b82525050565b614a8581615668565b82525050565b6000614a968261548b565b614aa081856154bf565b9350614ab08185602086016156e5565b80840191505092915050565b6000614ac782615496565b614ad181856154ca565b9350614ae18185602086016156e5565b614aea81615902565b840191505092915050565b6000614b0082615496565b614b0a81856154db565b9350614b1a8185602086016156e5565b614b2381615902565b840191505092915050565b6000614b3b602f836154ca565b9150614b468261593a565b604082019050919050565b6000614b5e6026836154ca565b9150614b6982615989565b604082019050919050565b6000614b81602c836154ca565b9150614b8c826159d8565b604082019050919050565b6000614ba4600e836154ca565b9150614baf82615a27565b602082019050919050565b6000614bc7602c836154ca565b9150614bd282615a50565b604082019050919050565b6000614bea602e836154ca565b9150614bf582615a9f565b604082019050919050565b6000614c0d602d836154ca565b9150614c1882615aee565b604082019050919050565b6000614c306020836154ca565b9150614c3b82615b3d565b602082019050919050565b6000614c536026836154ca565b9150614c5e82615b66565b604082019050919050565b6000614c76601f836154ca565b9150614c8182615bb5565b602082019050919050565b60a082016000820151614ca26000850182614f4f565b506020820151614cb560208501826149b5565b506040820151614cc860408501826149b5565b506060820151614cdb6060850182614f4f565b506080820151614cee6080850182614a4f565b50505050565b604082016000820151614d0a60008501826149a6565b506020820151614d1d6020850182614f7c565b50505050565b61016082016000820151614d3a6000850182614f4f565b506020820151614d4d60208501826149b5565b506040820151614d606040850182614f4f565b506060820151614d736060850182614f4f565b506080820151614d866080850182614a4f565b5060a0820151614d9960a0850182614a4f565b5060c0820151614dac60c0850182614a4f565b5060e0820151614dbf60e0850182614f4f565b50610100820151614dd4610100850182614f4f565b50610120820151614de96101208501826149b5565b50610140820151614dfe6101408501826149b5565b50505050565b61016082016000808301549050614e1a8161577e565b614e276000860182614f6d565b5060018301549050614e388161574a565b614e4560208601826149e2565b5060028301549050614e568161577e565b614e636040860182614f6d565b5060038301549050614e748161577e565b614e816060860182614f6d565b5060048301549050614e9281615764565b614e9f6080860182614a6d565b50614ea981615798565b614eb660a0860182614a6d565b50614ec0816157b2565b614ecd60c0860182614a6d565b5060058301549050614ede8161577e565b614eeb60e0860182614f6d565b5060068301549050614efc8161577e565b614f0a610100860182614f6d565b5060078301549050614f1b8161574a565b614f296101208601826149e2565b5060088301549050614f3a8161574a565b614f486101408601826149e2565b5050505050565b614f58816156b4565b82525050565b614f67816156b4565b82525050565b614f76816156b4565b82525050565b614f85816156be565b82525050565b6000614f978284614a8b565b915081905092915050565b6000602082019050614fb760008301846149c4565b92915050565b6000606082019050614fd260008301866149c4565b614fdf60208301856149c4565b614fec6040830184614f5e565b949350505050565b60006020820190506150096000830184614a7c565b92915050565b600060208201905081810360008301526150298184614abc565b905092915050565b6000606082019050818103600083015261504b8186614af5565b9050818103602083015261505f8185614af5565b9050818103604083015261507381846149f1565b9050949350505050565b6000602082019050818103600083015261509681614b2e565b9050919050565b600060208201905081810360008301526150b681614b51565b9050919050565b600060208201905081810360008301526150d681614b74565b9050919050565b600060208201905081810360008301526150f681614b97565b9050919050565b6000602082019050818103600083015261511681614bba565b9050919050565b6000602082019050818103600083015261513681614bdd565b9050919050565b6000602082019050818103600083015261515681614c00565b9050919050565b6000602082019050818103600083015261517681614c23565b9050919050565b6000602082019050818103600083015261519681614c46565b9050919050565b600060208201905081810360008301526151b681614c69565b9050919050565b600060a0820190506151d26000830184614c8c565b92915050565b6000610180820190506151ee6000830185614d23565b6151fc610160830184614f5e565b9392505050565b6000610180820190506152196000830185614e04565b6152276101608301846149d3565b9392505050565b60006020820190506152436000830184614f5e565b92915050565b600060a08201905061525e6000830188614f5e565b61526b60208301876149c4565b61527860408301866149c4565b6152856060830185614f5e565b6152926080830184614a5e565b9695505050505050565b6000610160820190506152b2600083018e614f5e565b6152bf602083018d6149c4565b6152cc604083018c614f5e565b6152d9606083018b614f5e565b6152e6608083018a614a5e565b6152f360a0830189614a5e565b61530060c0830188614a5e565b61530d60e0830187614f5e565b61531b610100830186614f5e565b6153296101208301856149c4565b6153376101408301846149c4565b9c9b505050505050505050505050565b600060c08201905061535c6000830189614f5e565b818103602083015261536e8188614abc565b905081810360408301526153828187614abc565b905061539160608301866149c4565b61539e60808301856149c4565b81810360a08301526153b08184614abc565b9050979650505050505050565b60006153c76153d8565b90506153d382826157cc565b919050565b6000604051905090565b600067ffffffffffffffff8211156153fd576153fc6158d3565b5b602082029050602081019050919050565b600067ffffffffffffffff821115615429576154286158d3565b5b61543282615902565b9050602081019050919050565b600067ffffffffffffffff82111561545a576154596158d3565b5b61546382615902565b9050602081019050919050565b6000819050602082019050919050565b600081519050919050565b600081519050919050565b600081519050919050565b6000602082019050919050565b600082825260208201905092915050565b600081905092915050565b600082825260208201905092915050565b600082825260208201905092915050565b60006154f7826156b4565b9150615502836156b4565b9250827fffffffffffffffffffffffffffffffffffffffffffffffffffffffffffffffff0382111561553757615536615846565b5b828201905092915050565b600061554d826156be565b9150615558836156be565b92508261556857615567615875565b5b828204905092915050565b600061557e826156b4565b9150615589836156b4565b9250817fffffffffffffffffffffffffffffffffffffffffffffffffffffffffffffffff04831182151516156155c2576155c1615846565b5b828202905092915050565b60006155d8826156b4565b91506155e3836156b4565b9250828210156155f6576155f5615846565b5b828203905092915050565b600073ffffffffffffffffffffffffffffffffffffffff82169050919050565b600060ff82169050919050565b6000819050919050565b600061564382615694565b9050919050565b600061565582615694565b9050919050565b60008115159050919050565b60007fffffffff0000000000000000000000000000000000000000000000000000000082169050919050565b600073ffffffffffffffffffffffffffffffffffffffff82169050919050565b6000819050919050565b60006bffffffffffffffffffffffff82169050919050565b82818337600083830152505050565b60005b838110156157035780820151818401526020810190506156e8565b83811115615712576000848401525b50505050565b6000600282049050600182168061573057607f821691505b60208210811415615744576157436158a4565b5b50919050565b600061575d61575883615913565b615601565b9050919050565b600061577761577283615913565b615621565b9050919050565b600061579161578c83615913565b61562e565b9050919050565b60006157ab6157a68361592d565b615621565b9050919050565b60006157c56157c083615920565b615621565b9050919050565b6157d582615902565b810181811067ffffffffffffffff821117156157f4576157f36158d3565b5b80604052505050565b6000615808826156b4565b91507fffffffffffffffffffffffffffffffffffffffffffffffffffffffffffffffff82141561583b5761583a615846565b5b600182019050919050565b7f4e487b7100000000000000000000000000000000000000000000000000000000600052601160045260246000fd5b7f4e487b7100000000000000000000000000000000000000000000000000000000600052601260045260246000fd5b7f4e487b7100000000000000000000000000000000000000000000000000000000600052602260045260246000fd5b7f4e487b7100000000000000000000000000000000000000000000000000000000600052604160045260246000fd5b6000601f19601f8301169050919050565b60008160001c9050919050565b60008160101c9050919050565b60008160081c9050919050565b7f45524331393637557067726164653a207570677261646520627265616b73206660008201527f7572746865722075706772616465730000000000000000000000000000000000602082015250565b7f4f776e61626c653a206e6577206f776e657220697320746865207a65726f206160008201527f6464726573730000000000000000000000000000000000000000000000000000602082015250565b7f46756e6374696f6e206d7573742062652063616c6c6564207468726f7567682060008201527f64656c656761746563616c6c0000000000000000000000000000000000000000602082015250565b7f4e6f204d6f6e6579206c65667421000000000000000000000000000000000000600082015250565b7f46756e6374696f6e206d7573742062652063616c6c6564207468726f7567682060008201527f6163746976652070726f78790000000000000000000000000000000000000000602082015250565b7f496e697469616c697a61626c653a20636f6e747261637420697320616c72656160008201527f647920696e697469616c697a6564000000000000000000000000000000000000602082015250565b7f455243313936373a206e657720696d706c656d656e746174696f6e206973206e60008201527f6f74206120636f6e747261637400000000000000000000000000000000000000602082015250565b7f4f776e61626c653a2063616c6c6572206973206e6f7420746865206f776e6572600082015250565b7f416464726573733a2064656c65676174652063616c6c20746f206e6f6e2d636f60008201527f6e74726163740000000000000000000000000000000000000000000000000000602082015250565b7f5265656e7472616e637947756172643a207265656e7472616e742063616c6c00600082015250565b615be781615638565b8114615bf257600080fd5b50565b615bfe8161564a565b8114615c0957600080fd5b50565b615c15816156b4565b8114615c2057600080fd5b50565b615c2c816156be565b8114615c3757600080fd5b5056fe416464726573733a206c6f772d6c6576656c2064656c65676174652063616c6c206661696c6564a2646970667358221220bc8cd83cf5eb64ccc50aa46855de079ef406eec5fa204ecb90a9bf3efbad495664736f6c63430008030033",
  "immutableReferences": {
    "613": [
      {
        "length": 32,
        "start": 2126
      },
      {
        "length": 32,
        "start": 2269
      },
      {
        "length": 32,
        "start": 2659
      },
      {
        "length": 32,
        "start": 2802
      }
    ]
  },
  "source": "// SPDX-License-Identifier: MIT\r\npragma solidity ^0.8.2;\r\n\r\nimport \"./Auction/Bid.sol\";\r\nimport \"./Libraries/LibERC721.sol\";\r\nimport \"./Libraries/LibCollection.sol\";\r\nimport \"@openzeppelin/contracts-upgradeable/proxy/utils/UUPSUpgradeable.sol\";\r\n\r\ncontract TokenFactory is UUPSUpgradeable, NFTBid {\r\n\r\n    using Counters for Counters.Counter;\r\n\r\n    event ERC721Deployed(address indexed _from, address _tokenAddress);\r\n\r\n    function initialize(address _address) initializer public {\r\n        PNDCAddress = _address;\r\n        NFTFactoryContract.initialize();\r\n        __UUPSUpgradeable_init();\r\n    }\r\n\r\n    function deployERC721(string memory name, string memory symbol, string memory description, LibShare.Share[] memory royalties) external {\r\n\r\n        collectionIdTracker.increment();\r\n\r\n        address collectionAddress = LibERC721.deployERC721(name, symbol, royalties);\r\n\r\n        LibCollection.CollectionMeta memory meta = LibCollection.CollectionMeta(\r\n            collectionIdTracker.current(),\r\n            name,\r\n            symbol,\r\n            collectionAddress,\r\n            msg.sender,\r\n            description\r\n        );\r\n\r\n        collections[collectionIdTracker.current()] = meta;\r\n        \r\n\r\n        ownerToCollections[msg.sender].push(collectionIdTracker.current());\r\n        collectionToOwner[collectionAddress] = msg.sender;\r\n\r\n        emit ERC721Deployed(msg.sender, collectionAddress);\r\n    }\r\n\r\n    function _authorizeUpgrade(address newImplementation)\r\n        internal\r\n        override\r\n        onlyOwner\r\n    {}\r\n\r\n}\r\n",
  "sourcePath": "D:\\Blockchain\\Liquidity\\new\\Modular-contract\\contracts\\TokenFactory.sol",
  "compiler": {
    "name": "solc",
    "version": "0.8.3+commit.8d00100c.Emscripten.clang"
  },
  "schemaVersion": "3.4.3",
  "updatedAt": "2021-12-22T02:48:44.838Z",
  "networkType": "ethereum",
  "devdoc": {
    "kind": "dev",
    "methods": {
      "onERC721Received(address,address,uint256,bytes)": {
        "details": "See {IERC721Receiver-onERC721Received}. Always returns `IERC721Receiver.onERC721Received.selector`."
      },
      "owner()": {
        "details": "Returns the address of the current owner."
      },
      "renounceOwnership()": {
        "details": "Leaves the contract without owner. It will not be possible to call `onlyOwner` functions anymore. Can only be called by the current owner. NOTE: Renouncing ownership will leave the contract without an owner, thereby removing any functionality that is only available to the owner."
      },
      "transferOwnership(address)": {
        "details": "Transfers ownership of the contract to a new account (`newOwner`). Can only be called by the current owner."
      },
      "upgradeTo(address)": {
        "details": "Upgrade the implementation of the proxy to `newImplementation`. Calls {_authorizeUpgrade}. Emits an {Upgraded} event."
      },
      "upgradeToAndCall(address,bytes)": {
        "details": "Upgrade the implementation of the proxy to `newImplementation`, and subsequently execute the function call encoded in `data`. Calls {_authorizeUpgrade}. Emits an {Upgraded} event."
      }
    },
    "version": 1
  },
  "userdoc": {
    "kind": "user",
    "methods": {},
    "version": 1
  }
}